:020000040800F2
:10000000380E0020450200088D19000889190008E3
:100010008B190008D91500082D22000800000000E7
:10002000000000000000000000000000011B0008AC
:10003000DB15000800000000091A00082D1D00084B
:100040005F0200085F0200085F0200085F0200080C
:100050005F0200085F0200085F0200085F020008FC
:100060005F0200085F0200085F0200085F020008EC
:100070005F0200085F0200085F0200085F020008DC
:100080005F0200085F0200085F0200085F020008CC
:100090005F0200085F0200085F0200085F020008BC
:1000A0005F0200085F0200085F0200085F020008AC
:1000B0005F0200085F020008E11D00085F020008FF
:1000C0005F0200085F0200085F0200085F0200088C
:1000D0005F020008B51F00085F0200081920000831
:1000E0005F0200085F0200085F0200085F0200086C
:1000F0005F0200085F0200085F0200085F0200085C
:100100005F0200085F0200085F0200085F0200084B
:100110005F0200085F0200085F0200081D1E000861
:100120005F0200085F0200085F0200085F0200082B
:1001300000F002F800F076F80AA090E8000C824483
:100140008344AAF10107DA4501D100F06BF8AFF260
:10015000090EBAE80F0013F0010F18BFFB1A43F0A5
:1001600001031847783A0000983A00000A444FF01B
:10017000000C10F8013B13F0070408BF10F8014B06
:100180001D1108BF10F8015B641E05D010F8016B4B
:10019000641E01F8016BF9D113F0080F1EBF10F8AF
:1001A000014BAD1C0C1B09D16D1E58BF01F801CBD2
:1001B000FAD505E014F8016B01F8016B6D1EF9D555
:1001C0009142D6D37047000000230024002500266A
:1001D000103A28BF78C1FBD8520728BF30C148BFAA
:1001E0000B607047662903F01384642900F0BE8019
:1001F000752900F0BB80782900F01F81632900F089
:100200009284732900F09784002070471FB500F096
:10021000A9FC04000020002103F07AFAE0601FBD71
:1002200010B510BD00F0A2FD1146FFF7EFFF02F080
:10023000BBF900F0C0FD03B4FFF7F2FF03BC02F00E
:1002400011F800000948804709480047FEE7FEE72B
:10025000FEE7FEE7FEE7FEE7FEE7FEE7FEE7FEE776
:1002600004480549054A064B70470000311D000847
:100270003101000838080020380E0020380A00201C
:10028000380A0020704700000FB4044910B503AAD3
:10029000029800F055FC10BC5DF814FB34000020FF
:1002A0000FB41CB5084B06AA7B446946009005981C
:1002B00000F017FC04460020694600F025FC2046AB
:1002C0001CBC5DF814FB00005D08000070B504461E
:1002D00085690068C10601D5302600E02026C007E8
:1002E00007D070BDD4E9012130469047206A401CF8
:1002F00020626D1EF6D570BD70B504468569007824
:10030000C00707D170BDD4E9012120209047206AA1
:10031000401C20626D1EF6D570BD70B50C460546BA
:10032000012A05D02878800600D5EA69002302E07A
:10033000012305E05B1C934202D2E05C0028F9D166
:10034000A869E618C01AA861286A184428622846D5
:10035000FFF7BCFF04E0D5E9012114F8010B904739
:10036000B442F8D32846FFF7C7FF70BD2DE9F0412E
:100370000646002410687529314616A510D0AFF343
:100380000080002802DA404213A507E031688A079E
:1003900001D512A502E0490704D511A5012401E009
:1003A000AFF3008000210A2206F1240709E0B0FB28
:1003B000F2FCB0FBF2F302FB1C003030785418461C
:1003C000491C0028F3D123462A463046BDE8F041B7
:1003D00000F01AB9000000002D0000002B00000002
:1003E00020000000F0B40D460188090502D5214C1B
:1003F0007C4402E01F4C7C440E34002100F12406B2
:1004000008E002F00F071209E75D42EA03721B09D8
:100410007754491C52EA0307F3D1027800231207EC
:1004200004D5702D06D009B1022311342246F0BC48
:1004300000F0EAB801231034F8E770B504460D4621
:1004400021461068AFF30080024629462046BDE8E9
:1004500070400023C6E7D21D22F00703D3E9002332
:10046000C0E70368126843F0200303600823C361F8
:100470000023B7E7443600002DE9F05F89460446C3
:100480004FF0000ADFF874B1FB44C0F820A020460A
:10049000E1688847002874D0252806D0D4E90121D6
:1004A0009047206A401C2062F1E700265F46204604
:1004B000E16888472028054607DB312D05D27819E9
:1004C00010F8200C08B10643F1E7B00701D526F07B
:1004D0000406C4F81CA00027C4F818A02A2D09D0CF
:1004E000284601F0B8FE38B304EB8708303DC8F861
:1004F000185019E059F8041B204604EB870291615B
:10050000E1688847012F054618D1E069002820DA04
:1005100026F020061DE0D8F8180000EB800005EB5F
:1005200040003038C8F818002046E1688847054682
:1005300001F091FE0028EED1012F0AD02E2D08D116
:100540002046E16888477F1C0546022F46F02006BA
:10055000C4DBA069002803DA404246F00106A0612E
:10056000F00701D026F010066C2D0BD0682D09D0B5
:100570004C2D39D06A2D35D0742D35D07A2D33D00D
:1005800016E038E0E1682F4620468847B842054625
:1005900009D16C2F26D04FF48060E16806432046D5
:1005A0008847054604E06C2F1AD04FF4807006434C
:1005B0000DB3A5F14100192802D8203546F4006694
:1005C0004A462946204626604E46FFF70BFE80B17C
:1005D00001280BD0F61D26F0070000F1080956E7A8
:1005E0004020E4E78020D8E70020D6E706F10409A0
:1005F0004DE7284652E7206ABDE8F09FD435000059
:1006000070477047704770472DE9F0470D4699468F
:100610009246044600F124080168880604D5E06982
:1006200021F01001216000E00120A84201DD471BFC
:1006300000E00027A1697A1902EB0900081AA061FD
:100640002078C00602D42046FFF740FE002608E0CE
:10065000D4E901211AF806009047206A401C761C54
:1006600020624E45F4DB2078C0060AD52046FFF70D
:100670002DFE06E0D4E9012130209047206A401C7D
:100680002062381EA7F10107F4DC07E0D4E901215C
:1006900018F805009047206A401C2062281EA5F12A
:1006A0000105F3DC2046FFF727FE2078000602D57F
:1006B0000220BDE8F0870120FBE770472DE9FF4FDE
:1006C0000C461E464FF0FF378BB0D2E90001DDF833
:1006D00060800A908A46C1F30A5505B93D4600215B
:1006E00008464FF00000BAF1000F00F4400005DAB0
:1006F00000EB80004FF4400101EA50004FEA9059AE
:10070000B9F1010F00DDB9460A9850EA4A000ED04F
:1007100044F61050A5F2FF3545432F14B8F1000FF1
:100720001ED07542291E1EDDC9F100021CE0B8F181
:10073000010F4FF0000001D0302103E0F24305E04B
:100740002154401CB042FBDB3046002200212154E2
:100750000B99C1F80880C1E900200FB0BDE8F08F07
:10076000BD1B6D1CDEE74A4600DA694206A800F0B0
:1007700083FA06AB93E8070003AB83E80700504613
:100780000A9900F061FB8DE80700A0F500501F38C2
:1007900000900398002D0ADD42F21F014A460844EA
:1007A000002303A90390684600F0CAFD09E0A0F504
:1007B00000504A461F38002303A90390684600F002
:1007C000D4FD8DE807000004000C03D04FF0FF308B
:1007D000410800E01046B8F1000F03D0002200925B
:1007E00015461EE0751E05D400F0C0F93032625582
:1007F0006D1EF9D5B3460122084302D000227F1CAA
:1008000004E02078302801D100227F1E002A0997B9
:1008100084D01DE0112D07DA00F0A8F930326255BE
:100820006D1C50EA0102F5D1084302D00098C8B10E
:100830000EE00021681E05E0235C625C63542254D4
:10084000401E491C8142F7DBAB46A81B401E0990A5
:10085000002004F80B000B98099AC0F80880C0E942
:10086000002B7AE711264FF0000857E72DE9F04FEB
:1008700088460446D21D22F0070191B0D1E900015B
:10088000CDE90A0101F0D3FC02460B98C00F01D05C
:100890002D2007E02068810701D52B2002E02021D0
:1008A00001EAC000032A099001D0072A05DB0346AC
:1008B0004146204600F0A0F90BE12078800601D5E2
:1008C000E06900E00620B8F1650F814606D0B8F176
:1008D000660F18D0B8F1670F70D131E00020B9F180
:1008E000110F009001DB112301E009F101030AAAB5
:1008F00001A90CA8FFF7E2FEDDE90C70002609F162
:100900000105834647E001204B4600904FF0004729
:100910000AAA01A90CA8FFF7D1FEDDE90DB00C99D8
:100920005D46002610B909F101000D18B9EB05006C
:1009300003D4C0F1FF3609F10105A5EB09002BE056
:10094000B9F1010F01DA4FF001090020B9F1110FDF
:100950000090484601DD112300E003460AAA01A9E0
:100960000CA8FFF7ABFEDDE90C704D460026834670
:10097000207800070AD4AB4500DA5D4601A8012DB6
:1009800004DD411911F8011C302907D04F4502DA66
:1009900017F1040F04DA012082460FE06D1EEEE726
:1009A000002F02DCED1B3E4403E0781CA84200DD72
:1009B0007D1CB81B00F1010A4FF0004720780007AA
:1009C00003D4AA4501DB4FF0FF3A0021B7F1004FF5
:1009D0000DF143088DF8431024D002202B23002F63
:1009E00001DA7F422D230A21021EA0F1010000DC62
:1009F0005FB197FBF1FC97FBF1F201FB1C7C174602
:100A00000CF1300C08F801CDEEE7A8F101000370FD
:100A10002188090501D5452100E06521A0F10108E3
:100A200000F8011C09980FA9A1EB0807FF1D00B1F0
:100A30000120411901EBEA70A1693844081A401EEF
:100A4000A0612078C00602D42046FFF73FFC099839
:100A500028B1D4E901219047206A401C2062207807
:100A6000C00622D52046FFF731FC1EE0002E04DB35
:100A7000B34502DD01A8805D00E03020D4E901210A
:100A80009047206A401C2062761CAAF101005FEAB0
:100A9000000A0AD100F066F8C0680168405CD4E939
:100AA00001219047206A401C2062281EA5F1010503
:100AB000DCDC07E0D4E9012118F8010B9047206A3B
:100AC000401C2062381EA7F10107F3DC2046FFF727
:100AD00013FC032011B041E601694A1C0261087849
:100AE000704700B58FB0CDE901310021059105496E
:100AF0007944CDE9031011466846FFF7BDFC0FB0FD
:100B000000BD0000E5FFFFFF0A6802F8010B0A6064
:100B1000704710B5436913B1AFF3008001E0FFF7F0
:100B2000FCFB012010BD127800F124010A700022A4
:100B30004A700122EDE711684FF0FF32E9E700004B
:100B4000074B70B50D467B44FFF7CBFF04462846A4
:100B500000F004F910B14FF0FF3070BD204670BDB9
:100B6000AF18000000487047F807002030B5B0F11A
:100B70000A024FEA900E71F100034EEA817EB0EB5B
:100B80000E0061EB91014FEA101E4EEA017E10EB60
:100B90000E0041EB11114FEA102E4EEA016E10EBE0
:100BA0000E0041EB11214FEA104E4EEA014E10EBC0
:100BB0000E0041EB1141401841F100014FEAD00015
:100BC00040EA41704FEAD10110EB80054FEA810401
:100BD00044EA907444EB01046D1944EB0404521B85
:100BE000A3414FF0000348BF0A3200D530BD401C7E
:100BF00041F1000130BD00002DE9F0411F460446DF
:100C000003260168072A01F4006004DB08B116A579
:100C100005E016A503E008B115A500E015A521F033
:100C200010002060A069C01EA0610FB1401EA0612D
:100C30002046FFF74BFB4FB1D4E9012138469047DE
:100C4000206A401C2062C01C206206E0206AFAE78D
:100C5000D4E9012115F8010B9047761EF8D2204601
:100C6000FFF74AFBBDE8F0814E414E006E616E0019
:100C7000494E4600696E66002DE9F04781461646EA
:100C80008AB0354878440DC88DE80D003248784464
:100C9000801C03AC0DC884E80D0041F69B3008446D
:100CA000372190FBF1F290FBF1F5A5F1800501FBF6
:100CB00012041B3C02D56442012000E00020DFF852
:100CC00098A080460027FA44AAF1BE0A0EE0E00789
:100CD0000AD03246684607EB470101230AEB81013F
:100CE00000F043FB8DE8070064107F1C002CEED160
:100CF000194F7F44AE3F19E0E80715D007EB041009
:100D00000DF1180A90E80E008AE80E00C068F04263
:100D100001D1981908903246012306A903A800F0D2
:100D200024FB03AB83E807006D10641C002DE3D1A6
:100D30004FF0010332466946B8F1000F03A802D014
:100D400000F0FEFA01E000F010FBC9E90001C9F86B
:100D500008200AB0BDE8F087682E0000007B00F094
:100D60008000704700487047D80700207546FFF79D
:100D7000F9FFAE4605006946534620F00700854658
:100D800018B020B5FFF76CFABDE820404FF0000620
:100D90004FF000074FF000084FF0000B21F0070163
:100DA000AC46ACE8C009ACE8C009ACE8C009ACE8A6
:100DB000C0098D46704710B50446AFF30080204649
:100DC000BDE81040FFF737BA4FF0013C50F8042B54
:100DD00051F8043B9A4221D1A2EB0C03934313EA4E
:100DE000CC1317D150F8042B51F8043B9A4215D17B
:100DF000A2EB0C03934313EACC130BD150F8042B52
:100E000051F8043B9A4209D1A2EB0C03934313EA35
:100E1000CC13DBD04FF00000704700BFD01A01BAEE
:100E2000B1FA81F101F0180122FA01F0CB40C1F1D1
:100E30002001DBB2C0B2C01A2CFA01F3D11A9143DF
:100E400011EAC311E6D170475FEA400C08BF91F088
:100E5000000F4FEA8C234FEAC12243EA51514FEA77
:100E60001C5018BF00F5F0404FEA300018BF41F0A9
:100E700000415FEA6C5C00F02980BCF1FF3F08BFD5
:100E800040F080407047130C06BF12044FF0100C66
:100E90004FF0000C130E04BF12020CF1080C130FDC
:100EA00004BF12010CF1040C930F04BF92000CF16B
:100EB000020CD30F04BF52000CF1010C11464FF08D
:100EC0000002A0F11F00A0EB0C00704711F0004FD2
:100ED00008BF704731F000413FF4D5AF0B0C06BF9F
:100EE00009044FF0100C4FF0000C0B0E04BF090268
:100EF0000CF1080C0B0F04BF09010CF1040C8B0F53
:100F000004BF89000CF1020CCB0F04BF49000CF1A7
:100F1000010CCCF12003A0EB0C0022FA03F302FA3F
:100F20000CF241EA030100F10100704720F07F4C10
:100F300080EA030023F07F47ACEB070303F57C5303
:100F400000F0004003F1FF032DE980494FEA154B03
:100F500009B44FEA144325EA0B4E24EA03480FF282
:100F6000042606EB132749083E785FEA320203FBAA
:100F70000667C7F5000707FB06F64FEA54374FEA46
:100F8000D64606F1020607FB066CCCF1005C4FEA80
:100F90001C472CEA074C07FB06F40CFB06F504EB98
:100FA00015464FEA961634BF00204FF000404FEA36
:100FB000D13706FB07FC4FEA1C4C0CFB0BF7D21B8E
:100FC00003FB0CF761EB07010CFB0EF7B0EB0740DE
:100FD00072EB17420CFB08F734BFA2EB0742B2EBEF
:100FE000074261EB17414FEA0C444FEA910706FBB9
:100FF00007FC4FEA1C4C0CFB0BF7B0EBC74072EB45
:10100000573203FB0CF734BFA2EBC742B2EBC74227
:1010100061EB57310CFB0EF7B0EBC70072EB577268
:101020000CFB08F734BFA2EBC702B2EBC70261EBBF
:101030005771039F4FEA816141EA921104EBCC049E
:101040004FEAD1374FEA826206FB07FC42EA901270
:101050004FEA80604FEA1C4C0CFB0BF7D21B03FBE2
:101060000CF761EB07010CFB0EF7B0EB074072EBDE
:1010700017420CFB08F734BFA2EB0742B2EB074262
:1010800061EB17414FEA8C554FEA910704EB9C2422
:1010900006FB07FC4FEA1C4C0CFB0BF7B0EBC74000
:1010A00072EB573203FB0CF734BFA2EBC742B2EB33
:1010B000C74261EB57310CFB0EF7B0EBC70072EB88
:1010C00057720CFB08F734BFA2EBC702B2EBC702A2
:1010D00061EB577115EB4C254FEA816141EA9211A2
:1010E0004FEA82624FEAD13742EA901206FB07FCD0
:1010F00044F100044FEA80604FEA1C4C0CFB0BF7F4
:10110000D21B03FB0CF761EB07010CFB0EF7B0EBF6
:10111000074072EB17420CFB08F734BFA2EB074203
:10112000B2EB074261EB174115EB1C154FEA813119
:1011300041EA92414FEA823242EA90424FEA8030DD
:101140004FEA0C7644F1000448EA03434EEA0B48A8
:101150004FF0000EB2EB080C71EB030724BF6246A0
:1011600039464EEB0E0E4FF0000B0018524149412C
:101170004BEB0B0BB2EB080C71EB03077BF1000B95
:1011800024BF624639464EEB0E0E4FF0000B00189E
:10119000524149414BEB0B0BB2EB080C71EB0307CF
:1011A0007BF1000B24BF624639464EEB0E0E51EA2E
:1011B000020718BF46F0010616EB0E7655F1000245
:1011C00054F1000103D5BDE88901BDE80088BDE800
:1011D0008901BDE80048B619524141EB0101A3F174
:1011E0000103704780807F7E7D7C7B7A797877767B
:1011F00076757473727171706F6E6E6D6C6C6B6AF4
:101200006A69686867666665646463636261616091
:10121000605F5F5E5E5D5D5C5C5B5B5A5A5959580E
:101220005857575656555555545453535252525178
:10123000515050504F4F4F4E4E4D4D4D4C4C4C4BCE
:101240004B4B4A4A4A494949484848474747474615
:101250004646454545444444444343434342424251
:1012600042414141002B9C4630D477002BD01CB525
:101270004FEA370703B44FF010004FF01001BAF1F6
:10128000000F06D0BCF1000FDCBF40F0080040F0BA
:1012900008014FF000000FBCBDE810400BF1010B3E
:1012A000BBF1010F08BF5FEA170722BF12F101026D
:1012B00011F101014FF0004143F1000300F0004043
:1012C00043EA00007047F9D35708D0E746EA0646DC
:1012D00013F1400F4FEA16461FDD13F1200FDFBF59
:1012E00016430A46002120335B42BED0C3F12007DB
:1012F00046EA064602FA07F74FEA164646EA0706A6
:10130000C3F1200722FA03F201FA07F721FA03F1E9
:101310004FF0000342EA0702A7E746EA020646EA60
:1013200006464FEA164646EA0106BCBF46EA0646AE
:10133000360C4FF000034FF000024FF0000194E72D
:101340002DE9804C9A46934670B491E8380007C85E
:1013500031EA400C48BF34EA430C03D5FFF7E6FD01
:10136000FFF780FFF0BCBDE8008C2DE9804C9A4669
:10137000934670B491E8380007C810F0804F08BF5A
:1013800013F0804F03D100F005F8FFF76BFFF0BCBE
:10139000BDE8008C20F07F4780EA030023F07F4CFB
:1013A00007EB0C03A3F57C5300F00040A3F1FE0310
:1013B00092F0000F00F0B38095F0000F00F07780FE
:1013C0002DE901494FEA11404FEA144621EA00484D
:1013D00000FB06FC24EA064708FB06F607FB08F8B4
:1013E00000FB07F718EB06484CEB164C4FEA124B84
:1013F00018EB07484FEA15464CEB174022EA0B4E14
:101400000BFB06FC25EA06470EFB06F607FB0EFE65
:101410000BFB07F71EEB064E4CEB164C4FF000068D
:101420001EEB074E4CEB174B18EB0B0840F100007E
:1014300018EB0E0B58EB000840F100008F1A4FF02C
:1014400000013CBFC943661B14BFB5EB040C00216F
:101450003CBFC943F61B4FEA17444EEA8E0E27EAFB
:1014600004454FEA1C4704FB07622CEA074C05FBC6
:1014700007F70CFB05F604FB0CFC16EB074642EBEA
:10148000174216EB0C4642EB1C421BEB060658EBD0
:101490000202414146EA9E0601D5BDE80189B6191E
:1014A000524141EB0101A3F10103BDE801894FEA7B
:1014B00014454FEA114724EA054621EA074C05FB8B
:1014C00007F406FB07F70CFB06F105FB0CFC11EB20
:1014D000074144EB17444FEA124711EB0C4144EB30
:1014E0001C4422EA074C05FB07F206FB07F70CFB3E
:1014F00006F605FB0CFC16EB074642EB174216EB13
:101500000C4642EB1C456A1854F1000148BF704775
:10151000B619524141EB0101A3F10103704795F067
:10152000000F37D04FEA11424FEA144721EA024632
:1015300024EA074C02FB07F106FB07F70CFB06F455
:1015400002FB0CFC14EB074441EB17414FEA154733
:1015500014EB0C4441EB1C4125EA074C02FB07F558
:1015600006FB07F70CFB06F602FB0CFC16EB074626
:1015700045EB174516EB0C4645EB1C42121951F191
:10158000000148BF7047B619524141EB0101A3F178
:10159000010370474FEA14454FEA114724EA054614
:1015A00021EA074C05FB07F106FB07F70CFB06F2E7
:1015B0004FF0000605FB0CFC12EB074241EB174114
:1015C00012EB0C4251EB1C4148BF7047921841EBA3
:1015D0000101A3F101037047FEE77047F8B501214F
:1015E000082000F02BFA40F20345ADF8005010241B
:1015F0001D4F8DF8034003268DF80260694638467A
:1016000000F05AF82946384600F0ABF8A501ADF8CD
:1016100000508DF803406946384600F04DF82946E1
:10162000384600F09EF80121042000F007FAB020AF
:10163000ADF800000D4D8DF803408DF8026069464D
:10164000284600F039F8B021384600F08AF8ADF8A5
:1016500000408DF803406946284600F02DF810211F
:10166000284600F07EF8F8BD000C0140000801405B
:1016700008B51020ADF8000014208DF803000320F9
:101680008DF802006946024800F016F808BD000017
:101690000008014008B51020ADF8000003208DF8C7
:1016A000020028208DF803006946024800F004F883
:1016B00008BD000000080140F0B5CC78002204F01D
:1016C0000F03E40601D58C7823430C784FF00F0C00
:1016D00014F0FF0F4FF0010E1BD005680E880EFAB4
:1016E00002F42640A64210D196000CFA06F725EA2D
:1016F000070703FA06F5CE783D43282E02D0482E80
:1017000002D002E0446100E00461521C082AE5D3E3
:1017100005600A88FF2A1CD94468002202F10806E5
:101720000EFA06F50E882E40AE420ED196000CFA47
:1017300006F7BC4303FA06F7CE783C43282E00D1C7
:101740004561CE78482E00D10561521C082AE5D3A8
:101750004460F0BD0246002092680A4200D0012099
:1017600070474161704701617047000038B5454CD2
:10177000D4F88600823402F0EDF8434D294602F099
:101780000FF801F0E1FF227A009202460B463FA1DA
:1017900004F12600FEF784FD04F126020121052054
:1017A00000F0FCFD54F8010C02F0D4F8294601F0D9
:1017B000F7FF01F0C9FFE278009202460B4639A11B
:1017C00004F12600FEF76CFDD4F81E0002F0AAF822
:1017D0003A4901F0E5FF01F0B7FF02460B4638A198
:1017E00004F12600FEF75CFD608C02F0B3F8394985
:1017F00001F0D6FF01F0A8FF02460B4636A104F126
:101800002600FEF74DFDE07D823C032807D83749CE
:1018100051F8202036A104F1A800FEF741FD194837
:1018200094F88C2035A1A8306E34FEF739FD14F8F9
:101830006E0C6425B0FBF5F105FB1102114836A1D1
:10184000A830FEF72DFD14F86D0CB0FBF5F105FB8B
:1018500011020C4837A1A830FEF722FDE07B009072
:101860000848A37BA2893AA1A830FEF719FDA07C05
:1018700000900448637C227C3CA1A830FEF710FD58
:1018800038BD0000840100200050C3474C6F6E67D4
:1018900069747564653A252E3566202531632020EC
:1018A000200000004C617469747564653A252E351A
:1018B0006620253163202020000000000000204128
:1018C000416C7469747564653A252E31666D20200B
:1018D0002020200000007A4453706565643A252E6C
:1018E00033666B6D2F682020202020000000002030
:1018F000466978204D6F64653A2573004750532B35
:1019000042442056616C696420736174656C6C6933
:1019100074653A2530326400475053205669736924
:10192000626C6520736174656C6C6974653A25300E
:101930003264000042442056697369626C6520730A
:101940006174656C6C6974653A253032640000001E
:1019500055544320446174653A253034642F253052
:1019600032642F253032642020200000555443205B
:1019700054696D653A253032643A253032643A252F
:101980003032642020200000FEE7FEE770470000B0
:1019900030B50F23C27801780125F2B1144A1268DC
:1019A00001F1E02102F4E062C2F5E062120AC2F144
:1019B0000404D3404278A24084781C40144322019E
:1019C00081F80024007800F01F018D40400980005C
:1019D00000F1E020C0F8005130BD01F01F0085404B
:1019E0004809800000F1E020C0F8805130BD0000BF
:1019F0000CED00E00249084302490860704700000E
:101A00000000FA050CED00E070470000044A0029D0
:101A1000D16901D0014300E08143D16170470000EA
:101A200000100240044A0029116901D0014300E07E
:101A3000814311617047000000100240044A0029F0
:101A4000916901D0014300E081439161704700003A
:101A500000100240044A0029D16801D0014300E08F
:101A60008143D160704700000010024030B5204A29
:101A70005168204B11F00C0103D0042901D0082932
:101A800001D0036012E05168536801F470114FF007
:101A9000020413F4803F04EB914102D053689B038E
:101AA00001D5154B00E0134B5943016051680F23DA
:101AB00003EA1111114B5C5C0168E140416054681C
:101AC000072505EA14241C5D21FA04F48460546897
:101AD00005EAD4241B5DD940C1605268032303EAA0
:101AE0009232064B1B1F9A5CB1FBF2F1016130BDD3
:101AF0000010024000127A0000093D003C00002066
:101B0000704700000CB5002226480092019201683F
:101B100041F4803101604FF4A063016801F40031A9
:101B200001910099491C0091019911B900999942BC
:101B3000F3D10168890333D5012101911A490A685B
:101B400042F010020A600A6822F003020A600A6882
:101B500042F002020A6041684160416841604168A8
:101B600041F480614160416821F47C114160416829
:101B700041F4E8114160016841F080710160016841
:101B80008901FCD5416821F003014160416841F0C1
:101B9000020141604168C1F381010229FAD10CBD03
:101BA00001920CBD001002400020024070B50024DC
:101BB0002546144E04E0641CA4B2052000F0A8FBE6
:101BC0003088000402D4642CF5D316E0642C14D2BF
:101BD00030880021C0F30E020B4B06E0585C8328CE
:101BE00005D0842807D0491C89B29142F6D391428E
:101BF00004D1022502E00325F9E701250020308009
:101C0000284670BD240000205E02002010B5044666
:101C100012484AF2A01101804FF4806141800521F1
:101C200001710021417184710121C171E1B281F022
:101C30000401017240F60D21A0F809100B2100F0FB
:101C400057F8C82000F064FB054850F8240000F065
:101C500099FDBDE81040FFF7A9BF0000B6040020C1
:101C6000143A000801460D4810B54AF2A01202804D
:101C70004FF4407242800E22027141710121817144
:101C8000417981F00F01C17140F60D2101810A21D6
:101C900000F02EF8BDE81040FFF788BFB604002022
:101CA0000146124810B54AF2A01202804FF4E062D9
:101CB000428065220271012209BA4271C0F8061001
:101CC00082720A0C82EA116282F0640282EA1122B4
:101CD0004A4082F00101C17240F60D2181810E213E
:101CE00000F006F8BDE81040FFF760BFB604002022
:101CF00030B5074B00221D1D06E01C886406FCD58C
:101D0000845C2C80521C92B28A42F6D330BD000013
:101D1000004800404FF0E0210428086903D020F07B
:101D200004000861704740F00400FAE770470000C3
:101D30000F4810B5016841F00101016041680D4A8A
:101D40001140416001680C4A11400160016821F4B2
:101D500080210160416821F4FE0141604FF41F01C0
:101D60008160FFF7CFFE05494FF00060086010BDAD
:101D7000001002400000FFF8FFFFF6FE08ED00E053
:101D80007FB50D46044601210220FFF73FFEADF866
:101D90000440ADF800500024104DADF80640ADF8F9
:101DA00002406946284600F087F80122114628467D
:101DB00000F075F80121284600F052F81D208DF83A
:101DC0000C008DF80D4002208DF80E0001208DF8DA
:101DD0000F0003A8FFF7DCFD7FBD000000040040FA
:101DE00010B50C4C0121204600F04DF801280AD115
:101DF0000948016988470021204600F05AF864210B
:101E0000204600F054F82046BDE81040012100F0C3
:101E100024B80000000800409000002010B50B4CD2
:101E20000121204600F02FF800280ED00848018834
:101E300041F4004101800121204600F00EF82046C7
:101E4000BDE81040002100F00BB810BD00140040A8
:101E500024000020C94301827047C94301827047B2
:101E60000029018802D041F0010101E021F00101C7
:101E700001807047808C704702460020128A0A4217
:101E800000D00120704702460020138A92890B423D
:101E900002EA010202D0002A00D001207047002A85
:101EA000828901D00A4300E08A438281704781859C
:101EB000704781847047000030B502881B4C1C4D70
:101EC000A0420DD0A8420BD0B0F1804F08D0194BE2
:101ED000984205D0184B984202D0184B984203D133
:101EE00022F070034A881A43154B984206D0154BCE
:101EF000984203D022F44073CA881A4302808A8829
:101F000082850A880285A0420AD0A84208D00E4ADB
:101F1000904205D00D4A904202D00D4A904201D124
:101F2000097A01860121818230BD0000002C014028
:101F3000003401400004004000080040000C004054
:101F400000100040001400400040014000440140E7
:101F5000004801407FB50D46044601210420FFF7EB
:101F600055FDADF804400020ADF80050104CADF820
:101F70000600ADF8020069462046FFF79DFF0122EA
:101F800041212046FFF78BFF1E218DF80C10032105
:101F90008DF80D108DF80E1001208DF80F0003A89C
:101FA000FFF7F6FC01212046FFF75AFF7FBD000036
:101FB0000008004070B5154C40F22551204600F055
:101FC000A3F800280ED0204600F02CF9104AC1B228
:101FD0001088030406D444044FF0000306D50A29F0
:101FE00001D0138070BD40F400400DE00D2909D0F0
:101FF000C0F30D04074D401C80B229551080C7283E
:10200000EFD870BD40F48040108070BD00380140B2
:10201000300000200E07002070B5154C40F225510D
:10202000204600F071F800281CD0204600F0FAF895
:10203000104CC5B22088000414D42088B0F5167F57
:1020400011D20D4E00213046FFF733FF208818B91A
:1020500001213046FFF704FF208808490144401C55
:1020600020800D7070BD208840F40040208070BD3D
:102070000048004024000020000400405E020020D0
:102080000029818902D041F4005101E021F400517E
:1020900081817047174910B588420AD101218C030C
:1020A0002046FFF7D7FC2046BDE810400021FFF78F
:1020B000D1BC1149884202D101214C0410E00F49E2
:1020C000884202D101218C040AE00D49884202D1E4
:1020D0000121CC0404E00B4988420AD101210C05FE
:1020E0002046FFF79FFC2046BDE810400021FFF787
:1020F00099BC10BD00380140004400400048004039
:10210000004C00400050004070B501F01F05012652
:102110000024C1F3421306FA05F2012B0FD0022B63
:102120000FD0838A4FEA11210088134206FA01F684
:1021300000EA060001D000B10124204670BD838969
:10214000F0E7038AEEE710B5C1F3421301F01F0474
:102150000121A140012B07D0022B07D01430002A07
:10216000026805D00A4304E00C30F8E71030F6E7C7
:102170008A43026010BD000030B50446008A85B075
:102180000D464CF6FF710840E98801432182A08981
:102190004EF6F3110840A9882A8911436A8902433F
:1021A0001143A181A08A4FF6FF410840A98901434C
:1021B000A1826846FFF75AFC1948844201D103986E
:1021C00000E00298A189090400EBC00101EB0010B6
:1021D000296801D5490000E08900B0FBF1F06422D4
:1021E000B0FBF2F109010B096FF018056B4300EB2E
:1021F0008300A3891D044FF0320306D503EBC00012
:10220000B0FBF2F000F0070005E003EB0010B0FBBC
:10221000F2F000F00F000843208105B030BD00004F
:10222000003801408088C0F308007047FEE749008D
:1022300050EAC12018BF04204A0D18BF40F0010029
:1022400040F2FF72B2EB515F08BF40F0020001287C
:1022500008BF0520704730380A2801D20120704796
:10226000002070477047000070B5134E02213046C1
:10227000FFF777FA31153046FFF775FA002505F1BB
:10228000B00000F0C7F9002000F0C4F9102000F001
:10229000C1F90024002000F0F1F9641CE4B2802CA4
:1022A000F8D36D1CEDB2082DE9D33046BDE870407F
:1022B0000221FFF758BA0000000C0140002241F251
:1022C0007C5304E00021491C9942FCDB521C8242F1
:1022D000F8DB704710B56FF00400FFF71BFD0948ED
:1022E00009490068B0FBF1F00849C0B200EB4002B8
:1022F0000870C2EBC0104FF6FF7202EAC0004880BF
:1023000010BD00001000002000127A002C000020F8
:102310000B49498848434FF0E021486100238B6115
:10232000086940F0010008610869C20701D0C003D4
:10233000FAD5086920F0010008618B617047000040
:102340002C0000202DE9F041AF30DFF84C800C4626
:10235000C7B2154602214046FFF703FA04F00F000A
:10236000401EC6B2102000EB1414384600F052F99B
:10237000204600F04FF9304600F04CF90024287850
:1023800000F07CF9641C6D1C062CF8D34046BDE8B7
:10239000F0410221FFF7E7B9000C0140FEB51646F7
:1023A0000D46074600241EE020385E2819D8114A41
:1023B0000F4902EBC000C0F3074C0860C0F30721CF
:1023C000C2B20820009001AB604600F021F801AADB
:1023D00029463846FFF7B6FF641CAD1DE4B2EDB2E6
:1023E00001E0641CE4B2305D0028DDD1FEBD0000D8
:1023F00028000020C0BF030004490A885206FCD50B
:10240000024AC1B2121D118070470000003801401D
:102410002DE9FF5FDFF8B0A005464FF4806B9846CA
:102420001646594654465046DDF83890FFF799F95C
:1024300002212046FFF797F9244F20213846FFF765
:1024400090F9032000F0C4F8284600F0C1F8019884
:1024500000F0BEF8304600F0BBF800262AE0002469
:1024600020213846FFF77FF900BFFFF713F9002559
:1024700010213846FFF777F900BF20213846FFF7D3
:1024800070F900BF6006040E10213846FFF762F9AC
:1024900008B1641CE4B200BF20213846FFF763F99D
:1024A0006D1CEDB2082DE3D3FFF7E2F808F8064003
:1024B000761CF6B24E45D2D304B059465046BDE81C
:1024C000F05FFFF750B90000000C01400008014028
:1024D00010B54FF4C870FFF7F1FEFFF77FF8314CED
:1024E00002212046FFF73DF921152046FFF73BF971
:1024F000AE2000F08FF8202000F08CF8102000F0C3
:1025000089F8B02000F086F8C82000F083F8002099
:1025100000F080F8102000F07DF8402000F07AF8FC
:10252000812000F077F8FF2000F074F8A12000F07F
:1025300071F8A62000F06EF8A82000F06BF83F209C
:1025400000F068F8A42000F065F8D32000F062F8ED
:10255000002000F05FF8D52000F05CF8F02000F0DB
:1025600059F8D92000F056F8222000F053F8DA206C
:1025700000F050F8122000F04DF8DB2000F04AF88F
:10258000202000F047F88D2000F044F8142000F0DF
:1025900041F8AF2000F03EF82046BDE8104002218F
:1025A000FFF7E1B8000C0140FFF794FE4FF4A06084
:1025B000FFF720FA4FF4E13000F094F8FFF788FFBE
:1025C000FFF752FEFFF7D2F8FCE700687047000003
:1025D00070B50F4E0546002428064FF080013046A6
:1025E00002D5FFF7C0F801E0FFF7BBF800BF6806AF
:1025F000050E20213046FFF7B4F800BF20213046F9
:10260000FFF7B1F800BF641CE4B2082CE4D370BD3E
:10261000000801402DE9F041164E054601213046E3
:10262000FFF79FF802213046FFF79BF8124F002476
:1026300020213846FFF795F828064FF080013846EC
:1026400002D5FFF790F801E0FFF78BF8202138461C
:10265000FFF789F800BF6D00641CE4B2082CE7D3D3
:1026600001213046FFF77FF83046BDE8F0410221F6
:10267000FFF779B8000C0140000801402DE9F04156
:10268000164E054601213046FFF76DF8022130460F
:10269000FFF767F8124F002420213846FFF761F852
:1026A00028064FF08001384602D5FFF75CF801E0BC
:1026B000FFF757F820213846FFF755F800BF6D00A7
:1026C000641CE4B2082CE7D301213046FFF74BF835
:1026D0003046BDE8F0410221FFF745B8000C01404B
:1026E0000008014070B5054686B0012144F204009F
:1026F000FFF7A4F94FF40070ADF8100003248DF833
:10270000124018201D4E8DF8130004A93046FEF724
:10271000D3FF3015ADF8100004208DF8130004A984
:102720003046FEF7C9FF25208DF814008DF81540BE
:102730008DF8164001208DF8170005A8FFF728F93D
:102740000020ADF80400ADF80600ADF80800ADF8C3
:102750000C000C200A4CADF80A0000956946204692
:10276000FFF70AFD012240F225512046FFF7EBFC5E
:1027700001212046FFF784FC06B070BD000801402F
:1027800000380140F0B5044687B001210820FFF76A
:1027900055F901218804FFF739F9294E3046FFF732
:1027A00079FC3015ADF8100003258DF81250182073
:1027B000244F8DF8130004A93846FEF77DFFF0146E
:1027C000ADF8100004208DF8130004A93846FEF778
:1027D00073FF00940024ADF808400C20ADF80440CD
:1027E000ADF80A00ADF80640ADF80C406946304639
:1027F000FFF7C2FC01213046FFF742FC012240F204
:1028000025513046FFF79FFC27208DF81400022049
:102810008DF815008DF8165001208DF8170005A8C9
:10282000FFF7B6F841F61F4140F2E730FFF7A8FA8C
:102830000548048000210548FFF712FB07B0F0BDF2
:1028400000480040000C014024000020000400402B
:1028500070B594B0064613AB11AA694600F0D8F9DA
:10286000002824D18DF840001D4C042514E0206878
:1028700005EBC10113AB405812AA08A900F0C8F932
:10288000002814D1694608A800F0EAFB88B19DF839
:102890004000401C8DF84000207D9DF8401088428B
:1028A000E5D8207D9DF8401088420ED1042014B058
:1028B00070BD9DF848009DF84410884201D902205F
:1028C000F5E79DF84000A075EBE710A9304600F051
:1028D00053FA0028EBD19DF8400060750020E6E730
:1028E000900000202DE9F0417E4E9AB0B57D307DFC
:1028F000A8427CD90421306801EBC50119AB4058CE
:1029000018AA10A900F084F910A977A0FDF7BCFC63
:1029100000240DF1180832E0308B0121A14008425B
:1029200017D0222172A0FDF7AFFC204600F08CFAF0
:10293000811970A02431FDF7A7FC22216CA0FDF7BE
:10294000A3FC204600F080FA3044243048F82400EC
:102950000BE0204600F078FA3044416A48F8241031
:10296000F07D00B364A0FDF78FFC9DF86000401E71
:10297000844202D062A0FDF787FC641CE4B29DF89B
:1029800060008442C8D35FA0FDF77EFC00F0A6FA89
:10299000707D0B2814D2DFE800F0080D3138404874
:1029A000525E6B78890058A0DDE7306850F835003A
:1029B000804704E0306850F835100698884707468D
:1029C00000F054FA9DF8640001286ED04FA0FDF786
:1029D0005BFC96F8EC0000280DD0D6F8F0000A2138
:1029E000B0FBF1F201FB1202B0FBF1F100E002E0FA
:1029F00047A0FDF749FC1AB0BDE8F081306850F8F7
:102A00003520DDE906019047D9E7306806AC50F87B
:102A1000353094E807009847D1E7306806AF50F8A2
:102A2000354097E80F00A047C9E70A980090306842
:102A300006AF50F8354097E80F00A047BFE7DDE943
:102A40000A01CDE90001306806AF50F8354097E83B
:102A50000F00A047B3E70AAB06AF93E807008DE885
:102A60000700306850F8354097E80F00A047A6E708
:102A70000AAC06AF94E80F008DE80F00306850F8FC
:102A8000354097E80F00A04799E70BAC06AF94E8F4
:102A90000F0001AC84E80F000A980090306850F8ED
:102AA000354097E80F00A04789E711E00CAC06AF6E
:102AB00094E80F0002AC84E80F00DDE90A01CDE9DB
:102AC0000001306850F8354097E80F00A04776E7DE
:102AD000F07D394618B116A0FDF7D6FB79E717A0AF
:102AE000FAE70000900000200D0A2573280000007E
:102AF00025630000257300003058255800000000B1
:102B00002C00000029000000256C75003B0D0A0018
:102B100046756E6374696F6E2052756E2054696DD0
:102B2000653A25642E2531646D730D0A000000009E
:102B30003D305825583B0D0A000000003D256C75BE
:102B40003B0D0A00F0B500252E462F462C46037893
:102B50002C2B03D0292B04D01BB103E014B9012680
:102B600000E05CB317B1222B26D026E0A3F1300C95
:102B7000BCF1090F15D9A3F1610CBCF1050F10D9F7
:102B8000A3F1410CBCF1050F0BD9582B09D0782BC0
:102B900007D0222B0CD0202B1ED02C2B1CD0FF2793
:102BA0000CE05EB9612B00D3203B01F8013B13E040
:102BB00026B901273C460FE0002426B1002008700A
:102BC00017702846F0BD3CB15C2B02D16D1CEDB2F4
:102BD000401C037801F8013B6D1CEDB2401CB6E7C8
:102BE00030B5002515700AE001F8014B1478401C3F
:102BF000641CE4B214709C4201D3012030BD0478FF
:102C0000202C01D0002CEFD10D70002030BD000031
:102C10002DE9FF4F002482B089469846A2462746F8
:102C2000012526462246EB46029915E0202810D0C1
:102C300002F07F03052B0CD202B9802202F07F0341
:102C4000042B01D12A280AD1521C0BF80300D2B25E
:102C500001E0852A04D0491C08780028E6D16AB131
:102C600002F07F0200200BF8020041A1584600F05C
:102C7000F7F938B1012188F8001000224FF0000860
:102C8000029B15E0002088F80000F6E708F101003B
:102C900000F0FF0813F8010F202801D02A2807D1DF
:102CA000184600F085F9282802D02A2800D0C2460C
:102CB0001878282801D00028E8D10299BAF1000F2D
:102CC00001D05144491C4FF000084346087888B1B0
:102CD000282804D0292806D0222810D011E083B952
:102CE000641CE4B20DE063B924B1641E14F0FF0467
:102CF00002D00DE04FF00108012F27D02FE04BB19B
:102D000000234CB12C280CD0202816D0282814D011
:102D10005AB110E00123F4E7202815D009F8010B7F
:102D200012E00125521CD2B207E0052E03D20BF8A7
:102D30000600761CF6B26D1CEDB2012C04D1022DFA
:102D400002D103257F1CFFB2491CBFE700200BF80E
:102D5000060007A1684600F083F900B9002704982F
:102D60000770002089F8000006B04046BDE8F08FEB
:102D7000766F6964000000002DE9F0430024894665
:102D8000304DB5B0214622466B18491CC9B29A761F
:102D90000A29F9D302E010F8011F99B10178282916
:102DA000F9D1461C4FF0010833AA69463046FFF7B7
:102DB000C9FE06449DF8CC0040B1012824D0FF286C
:102DC00036D10BE0012035B0BDE8F0839DF800005E
:102DD00070B334A9684600F0F3F808B10220F2E7B6
:102DE000204600F031F8284434994162298B08FAD2
:102DF00004F081432983042029198876641CE4B2F5
:102E00000A2C15D90320DEE7684600F03EF9471C7E
:102E1000204600F019F841196846243100F02CF9D9
:102E2000298B08FA04F00143281929838776E5E7FE
:102E30003078292801D00028B6D189F80040002038
:102E4000C1E7000090000020024610B500200146B6
:102E5000054B05E05C18491CA47EC9B22044C0B2F1
:102E60009142F7D310BD00009000002070B50B4DCB
:102E700001212846FFF700F8094C012806D1D4F8B3
:102E8000F0004FF6FF710844C4F8F0002846FEF742
:102E9000F1FF54F8F01F0844206070BD00080040A6
:102EA0009000002000EBC00101EB00104FF0FF315B
:102EB00001EB800010B581B24FF47A70FFF74AF849
:102EC00001490120C87510BD900000200346012073
:102ED00000E05843491EC9B2FBD2704710B5094CF7
:102EE00001212046FEF7B6FF4FF6FF712046FEF7A0
:102EF000DEFF00212046FEF7DCFF03490020C1F879
:102F0000F00010BD00080040900000202DE9F041C5
:102F1000164E3088010426D51549C0B2154F00253C
:102F20000D54B9681248884704000FD0104800F0CB
:102F3000B5F8012801D0040014D0012C09D0022CCE
:102F400009D0032C09D0042C0CD108E0F868804784
:102F500008E009A004E00BA002E00DA000E00FA033
:102F6000FDF792F93580BDE8F081000030000020C7
:102F70000E07002090000020BAAFCAFDB4EDCEF3DA
:102F8000210D0A00B2CECAFDB4EDCEF3210D0A0028
:102F9000B2CECAFDCCABB6E0210D0A00CEB4D5D27C
:102FA000B5BDC6A5C5E4B5C4BAAFCAFD210D0A00BA
:102FB00010F8011F202901D10028F9D1C8B27047AB
:102FC0002DE9F0410024884605460A260C60017868
:102FD000A1F13002092A0DD9113A052A0AD9582936
:102FE00005D011F0FF0F0CD00120BDE8F081012CBD
:102FF00002D0F9E7412900D31026641CE4B2401C3A
:10300000E5E7102E01D084B112E0032C01D202209A
:10301000EBE72878302802D16878582801D00320BF
:10302000E3E7A41EE4B2AD1C01E00420DDE70CB12F
:10303000641EE4B22F783846303F092F01D9A0F141
:10304000370721463046FFF741FFD8F8001007FB4D
:103050000011C8F8001015F8010F0028E7D1C4E7E7
:1030600002780B789A4201D00120704712B1401CBF
:10307000491CF5E70020704702780A700278002AA0
:1030800002D0401C491CF7E77047002102781AB1B2
:10309000491CC9B2401CF9E708467047F0B58DB02D
:1030A00004461E2308AA6946FFF79AFD09900028E6
:1030B00072D19DF82000271800253E4C8DF8205035
:1030C0009DF8200054F820106846FFF7C9FF38B17A
:1030D0009DF82000401CC0B28DF820000728EFD3D7
:1030E0009DF820000426344C072855D2DFE800F074
:1030F0000404395A605F5E0030A0FDF7C5F830A0C7
:10310000FDF7C2F83EA0FDF7BFF84DA0FDF7BCF8F3
:103110005BA0FDF7B9F86AA0FDF7B6F878A0FDF757
:10312000B3F885A0FDF7B0F88AA0FDF7ADF88FA041
:10313000FDF7AAF893A0FDF7A7F898A0FDF7A4F86B
:103140009DA0FDF7A1F8A3A0FDF79EF8AFA0FDF7A5
:103150009BF8BCA0FDF798F8C7A0FDF795F8D3A0A1
:103160001BE016A0FDF790F8E0A0FDF78DF88DF8B4
:1031700020500BE0216806EBC0000958EBA0FDF7DA
:1031800083F89DF82000401C8DF82000217D9DF8DB
:1031900020008142EED84EE24FE2FDF775F80020A4
:1031A0000DB0F0BD05A0FDF76FF8C3E124E204E225
:1031B000E3E100004C000020900000200D0A000018
:1031C0002D2D2D2D2D2D2D2D2D2D2D2D2D2D2D2D2F
:1031D0002D2D2D2D2D2D2D2D55534D415254205635
:1031E000332E312D2D2D2D2D2D2D2D2D2D2D2D2D04
:1031F0002D2D2D2D2D2D2D2D2D2D2D200D0A0000A9
:103200002020202055534D415254CAC7D3C9414CA8
:1032100049454E54454BBFAAB7A2B5C4D2BBB8F678
:10322000C1E9C7C9B5C4B4AEBFDAB5F7CAD4BBA546
:10323000BDBBD7E9BCFE2CCDA8B9FD200D0A00000E
:10324000CBFC2CC4E3BFC9D2D4CDA8B9FDB4AEBF6A
:10325000DAD6FACAD6B5F7D3C3B3CCD0F2C0EFC32F
:10326000E6B5C4C8CEBACEBAAFCAFD2CB2A2D6B4A7
:10327000D0D02ED2F2B4CB2CC4E3BFC90D0A0000CB
:10328000D2D4CBE6D2E2B8FCB8C4BAAFCAFDB5C45A
:10329000CAE4C8EBB2CECAFD28D6A7B3D6CAFDD7BA
:1032A000D62831302F3136BDF8D6C629A1A2D7D6BF
:1032B000B7FBB4AEA1A2BAAFCAFDC8EB0D0A0000BD
:1032C000BFDAB5D8D6B7B5C8D7F7CEAAB2CECAFD41
:1032D000292CB5A5B8F6BAAFCAFDD7EEB6E0D6A789
:1032E000B3D63130B8F6CAE4C8EBB2CECAFD2CB2C0
:1032F000A2D6A7B3D6BAAFCAFDB7B5200D0A000053
:10330000BBD8D6B5CFD4CABE2ED0C2D4F6B2CECAA0
:10331000FDCFD4CABEBDF8D6C6C9E8D6C3B9A6C4C7
:10332000DC2CD0C2D4F6BDF8D6C6D7AABBBBB9A692
:10333000C4DC2E0D0A000000BCBCCAF5D6A7B3D66B
:103340003A7777772E6F70656E6564762E636F6D52
:103350000D0A000055534D415254D3D037B8F6CF23
:10336000B5CDB3C3FCC1EE3A0D0A00003F3A2020B0
:1033700020202020BBF1C8A1B0EFD6FAD0C5CFA243
:103380000D0A000068656C703A202020BBF1C8A1CE
:10339000B0EFD6FAD0C5CFA20D0A00006C697374E5
:1033A0003A202020BFC9D3C3B5C4BAAFCAFDC1D02B
:1033B000B1ED0D0A0A00000069643A2020202020A7
:1033C000BFC9D3C3BAAFCAFDB5C44944C1D0B1ED7A
:1033D0000D0A0A006865783A20202020B2CECAFD86
:1033E0003136BDF8D6C6CFD4CABE2CBAF3B8FABFB0
:1033F000D5B8F12BCAFDD7D6BCB4D6B4D0D0BDF861
:10340000D6C6D7AABBBB0D0A0A0000006465633AA2
:1034100020202020B2CECAFD3130BDF8D6C6CFD490
:10342000CABE2CBAF3B8FABFD5B8F12BCAFDD7D6AD
:10343000BCB4D6B4D0D0BDF8D6C6D7AABBBB0D0A93
:103440000A00000072756E74696D653A312CBFAA6E
:10345000C6F4BAAFCAFDD4CBD0D0BCC6CAB13B30DB
:103460002CB9D8B1D5BAAFCAFDD4CBD0D0BCC6CA5E
:10347000B13B0D0A0A000000C7EBB0B4D5D5B3CC00
:10348000D0F2B1E0D0B4B8F1CABDCAE4C8EBBAAF6B
:10349000CAFDC3FBBCB0B2CECAFDB2A2D2D4BBD867
:1034A000B3B5BCFCBDE1CAF82E0D0A002D2D2D2DA3
:1034B0002D2D2D2D2D2D2D2D2D2D2D2D2D2D2D2D3C
:1034C0002D2D2D2D2D2D414C49454E54454B2D2D47
:1034D0002D2D2D2D2D2D2D2D2D2D2D2D2D2D2D2D1C
:1034E0002D2D2D2D2D2D2D200D0A00002D2D2D2DB6
:1034F0002D2D2D2D2D2D2D2D2D2D2D2D2D2D2D2DFC
:103500002D2D2D2D2DBAAFCAFDC7E5B5A52D2D2D1D
:103510002D2D2D2D2D2D2D2D2D2D2D2D2D2D2D2DDB
:103520002D2D2D2D2D2D2D2D200D0A0025730D0A4D
:103530000000000042A0FCF7A7FE8DF8205016E026
:10354000216806EBC0000BAB08580AAA6946FFF7D2
:103550005FFB9DF82010206850F83120694648A094
:10356000FCF792FE9DF82000401C8DF82000217D84
:103570009DF820008142E3D85DE0AFF2C030FCF757
:1035800083FE08AA69463846FFF7DCFA9DF820005A
:10359000002843D109A96846FFF712FD8DF82000E5
:1035A00010B104283AD102E03AA009991CE03CA0ED
:1035B000FCF76AFE0120E0753DE038A0FCF764FEF0
:1035C00008AA69463846FFF7BDFA9DF8200028BBD7
:1035D00009A96846FFF7F4FC8DF8200010B1042813
:1035E0001CD104E033A00999FCF74EFE23E034A07F
:1035F000FCF74AFEE5751EE028A0FCF745FE08AA88
:1036000069463846FFF79EFA9DF8200030B909A9AF
:103610006846FFF7D5FC8DF8200008B10220BFE511
:10362000099810F0FF0084F8EC0001D029A000E018
:103630002FA0FCF729FE19A0AFE50120B0E500009E
:103640002D2D2D2D2D2D2D2D2D2D2D2D2D2D2D2DAA
:103650002D2D2D2D2D2D2D2D2DBAAFCAFD204944F8
:10366000202D2D2D2D2D2D2D2D2D2D2D2D2D2D2D97
:103670002D2D2D2D2D2D2D2D2D2D2D2D200D0A00F7
:1036800025732069642069733A0D0A305825303853
:10369000580D0A004845583A305825580D0A000080
:1036A0003136BDF8D6C6B2CECAFDCFD4CABE210DC2
:1036B0000A0000004445433A256C750D0A000000DD
:1036C0003130BDF8D6C6B2CECAFDCFD4CABE210DA8
:1036D0000A00000052756E2054696D652043616CCC
:1036E00063756C6174696F6E204F4E0D0A000000A7
:1036F00052756E2054696D652043616C63756C6111
:1037000074696F6E204F46460D0A000001607047D5
:1037100010B500290AD00878002807D00548784459
:10372000FDF752FB002801D0002010BD024878446C
:1037300010BD0000DE040000D60400000808A0F55B
:1037400000114FEA3101704743004FEAD30C4FEAB2
:103750003C0C43401FBF40070CF1605113F0FE4F7B
:1037600070471CF0006F03D100200CF0004170473F
:103770000CF0004343EA507010B540EACC0000F072
:10378000FCF800BF000000924FEA0001FFF7D6BF2F
:103790004FF000414FF00000A1F5002170470000FC
:1037A0004FF47F0C1CEAD0121EBF1CEAD11392EA20
:1037B0000C0F93EA0C0F00F0858090EA010F48BFD0
:1037C00042F4807240F4000C41F400002CF07F4180
:1037D00020F07F4000B58142A2EB03020FF2081CEB
:1037E000ACEB504EC0F100009EF800E04FEA4E0EE8
:1037F00000FB0EFC38BF49004FEA2C1C02F5FA0210
:103800000CFB0EF34FEACE1E4FEA112C4FEAC121FA
:103810000EEB635E42EB22420EFB0CFC4FEA1C53A4
:1038200000FB03114FEA112C4FEA01310EFB0CFC97
:103830004FEADC4C00FB0C11C14228BF09184CEBCD
:1038400003335DF804EB10EB410143EBC250B2F5DA
:103850007C0F38BF704729D512F0F00F1CBF00F164
:10386000C04000F0004070470081828384858687D5
:1038700088898B8C8D8E8F919293959697999A9C2F
:103880009D9FA0A2A3A5A7A8AAACAEB0B2B3B5B79E
:10389000B9BCBEC0C2C5C7C9CCCED1D4D7D9DCDF74
:1038A000E2E6E9ECF0F3F7FAFE0000004FEA400C24
:1038B0000CF1807CBCF17E4F28BF7047B0F1C04056
:1038C00000F0A1B890EA010F0CEAD11348BF42F40E
:1038D0008072624538BF634507D213F47F0F16D05C
:1038E00080EA010000F00040704710B500F045F894
:1038F000097EFC3E00F005B880EA010000F00040BF
:10390000704780EA010000F0004000F07CB812F43B
:103910007F0F04BF0248704780EA010000F073B8CF
:103920000000C07F10F0004148BF4042B0FA80F371
:1039300010FA03F2C3F19D030BD051EAC35101EB1E
:103940001220530638BF704700F1010008BF20F075
:1039500001007047B0FA80F310FA03F2C3F19D033F
:103960000AD0D90501EB1220530638BF704700F189
:10397000010008BF20F0010070470EF1020E2EF08A
:10398000030E5EF8044B244204D44FEA4102B2F124
:103990007F4F11D84FEA4003B3F17F4F0CD80ED1BF
:1039A0004FEAD07CB2F17F4F0CEB4C0C0CF1020CC7
:1039B00008BF4CEBD17C04E04FF0080C01E04FEA6B
:1039C000D17C0CEB4C0324FA03F404F00704B4F1AB
:1039D000040C06D20EEB840CBDE810404CF0010C38
:1039E0006047DFE80CF0070802024FF00040A0F546
:1039F000800010BD0846420018BFD2F1807288BF17
:103A000000F0004010BDFF2141EAD050C0057047D2
:103A1000FCF72CBFC012000080250000004B000006
:103A20000096000000E1000000C2010000840300D5
:103A30000008070000100E003031323334353637BD
:103A400038394142434445464030580030313233E2
:103A500034353637383961626364656640307800E2
:103A60000400000800000000000000020001000047
:103A70001000000002400000000000A00000000054
:103A800005400000000000C8000000000C400000DD
:103A90000000409C00000000194000000020BCBE57
:103AA0000000000034400000BFC91B8E000000046D
:103AB000B5400000504BCFD06607E2CF01000000B8
:103AC0006C4100003E8251AADFEEA73401000000E5
:103AD000D9420000DCB5A0E23A301F97FFFFFFFF9C
:103AE000B4450000FD25A0C8E9A3C14FFFFFFFFFBB
:103AF000FF3F00000000008000000000FF3F0000CA
:103B0000000000800000000020324420000000007F
:103B100020334420000000004661696C0000000072
:103B20003F000000646563006964000072756E7494
:103B3000696D650068656C70000000006C697374E5
:103B40000000000068657800753820536B79547266
:103B5000615F4366675F507274287533322062611B
:103B600075645F6964290000753820536B7954725D
:103B7000615F4366675F54702875333220776964EC
:103B800074682900766F69642077726974655F6173
:103B90006464722875333220616464722C75333228
:103BA0002076616C29000000753820536B795472BF
:103BB000615F4366675F526174652875382046729D
:103BC0006570290075333220726561645F616464D9
:103BD000722875333220616464722900183C000831
:103BE00000000020840100006C010008883C0008EF
:103BF00084010020B40C0000C80100081C00000073
:103C000043000000F8FFFFFF0C0000000E00000062
:103C10000F0000002E00000013183B2A08041A08A9
:103C2000041A10041184A24A0400091401020304B6
:103C3000060708096D020406082469281A20401A9C
:103C400034041A3C041A28041A44041A24041A2CB2
:103C50000413CB251B08C408130D372B0884081246
:103C60001C1B0848081AA1081A68081A65081AA82F
:103C70000822681420A52E140851281B08E50413F7
:083C80000D2F1B08056701DC94
:0400000508000131BD
:00000001FF
