:020000040800F2
:10000000A010002045020008115800088D1A0008B1
:1000100001520008FD150008C9600008000000003A
:100020000000000000000000000000009D590008D2
:10003000FF150008000000008D580008C95B00088B
:100040005F0200085F0200085F0200085F0200080C
:100050005F0200085F0200085F0200085F020008FC
:100060005F0200085F0200085F0200085F020008EC
:100070005F0200085F0200085F0200085F020008DC
:100080005F0200085F0200085F0200085F020008CC
:100090005F0200085F0200085F0200085F020008BC
:1000A0005F0200085F0200085F0200085F020008AC
:1000B0005F0200085F0200081D5C00085F02000884
:1000C0005F0200085F0200085F0200085F0200088C
:1000D0005F020008515E00085F020008B55E00087C
:1000E0005F0200085F0200085F0200085F0200086C
:1000F0005F0200085F0200085F0200085F0200085C
:100100005F0200085F0200085F0200085F0200084B
:100110005F0200085F0200085F020008595C0008E7
:100120005F0200085F0200085F0200085F0200082B
:1001300000F002F800F076F80AA090E8000C824483
:100140008344AAF10107DA4501D100F06BF8AFF260
:10015000090EBAE80F0013F0010F18BFFB1A43F0A5
:10016000010318470C9500002C9500000A444FF03D
:10017000000C10F8013B13F0070408BF10F8014B06
:100180001D1108BF10F8015B641E05D010F8016B4B
:10019000641E01F8016BF9D113F0080F1EBF10F8AF
:1001A000014BAD1C0C1B09D16D1E58BF01F801CBD2
:1001B000FAD505E014F8016B01F8016B6D1EF9D555
:1001C0009142D6D37047000000230024002500266A
:1001D000103A28BF78C1FBD8520728BF30C148BFAA
:1001E0000B607047662907F07C85642900F0BE80AB
:1001F000752900F0BB80782900F01F81632900F089
:10020000A484732900F0A984002070471FB500F072
:10021000BBFC04000020002107F032F9E0601FBDA4
:1002200010B510BD00F0B4FD1146FFF7EFFF05F06B
:10023000C7FF00F0D2FD03B4FFF7F2FF03BC05F0E7
:100240005FFF00000948804709480047FEE7FEE7D6
:10025000FEE7FEE7FEE7FEE7FEE7FEE7FEE7FEE776
:1002600004480549054A064B70470000CD5B00086D
:1002700031010008A00A0020A0100020A00C0020DE
:10028000A00C0020704700000FB4044910B503AA69
:10029000029800F067FC10BC5DF814FB34000020ED
:1002A0000FB41CB5084B06AA7B446946009005981C
:1002B00000F029FC04460020694600F037FC204687
:1002C0001CBC5DF814FB00008108000070B50446FA
:1002D00085690068C10601D5302600E02026C007E8
:1002E00007D070BDD4E9012130469047206A401CF8
:1002F00020626D1EF6D570BD70B504468569007824
:10030000C00707D170BDD4E9012120209047206AA1
:10031000401C20626D1EF6D570BD70B50C460546BA
:10032000012A05D02878800600D5EA69002302E07A
:10033000012305E05B1C934202D2E05C0028F9D166
:10034000A869E618C01AA861286A184428622846D5
:10035000FFF7BCFF04E0D5E9012114F8010B904739
:10036000B442F8D32846FFF7C7FF70BD2DE9F0412E
:100370000646002410687529314616A510D0AFF343
:100380000080002802DA404213A507E031688A079E
:1003900001D512A502E0490704D511A5012401E009
:1003A000AFF3008000210A2206F1240709E0B0FB28
:1003B000F2FCB0FBF2F302FB1C003030785418461C
:1003C000491C0028F3D123462A463046BDE8F041B7
:1003D00000F02CB9000000002D0000002B000000F0
:1003E00020000000F0B40D460188090502D5214C1B
:1003F0007C4402E01F4C7C440E34002100F12406B2
:1004000008E002F00F071209E75D42EA03721B09D8
:100410007754491C52EA0307F3D1027800231207EC
:1004200004D5702D06D009B1022311342246F0BC48
:1004300000F0FCB801231034F8E770B504460D460F
:1004400021461068AFF30080024629462046BDE8E9
:1004500070400023C6E7D21D22F00703D3E9002332
:10046000C0E70368126843F0200303600823C361F8
:100470000023B7E7D89000002DE9F05F89460446D5
:100480004FF0000ADFF874B1FB44C0F820A020460A
:10049000E1688847002874D0252806D0D4E90121D6
:1004A0009047206A401C2062F1E700265F46204604
:1004B000E16888472028054607DB312D05D27819E9
:1004C00010F8200C08B10643F1E7B00701D526F07B
:1004D0000406C4F81CA00027C4F818A02A2D09D0CF
:1004E000284605F006FE38B304EB8708303DC8F80F
:1004F000185019E059F8041B204604EB870291615B
:10050000E1688847012F054618D1E069002820DA04
:1005100026F020061DE0D8F8180000EB800005EB5F
:1005200040003038C8F818002046E1688847054682
:1005300005F0DFFD0028EED1012F0AD02E2D08D1C5
:100540002046E16888477F1C0546022F46F02006BA
:10055000C4DBA069002803DA404246F00106A0612E
:10056000F00701D026F010066C2D0BD0682D09D0B5
:100570004C2D39D06A2D35D0742D35D07A2D33D00D
:1005800016E038E0E1682F4620468847B842054625
:1005900009D16C2F26D04FF48060E16806432046D5
:1005A0008847054604E06C2F1AD04FF4807006434C
:1005B0000DB3A5F14100192802D8203546F4006694
:1005C0004A462946204626604E46FFF70BFE80B17C
:1005D00001280BD0F61D26F0070000F1080956E7A8
:1005E0004020E4E78020D8E70020D6E706F10409A0
:1005F0004DE7284652E7206ABDE8F09F689000006A
:1006000030B505460B462A4613F8014B12F8010B8C
:1006100008B1A042F8D01CB1002802D06D1CF1E74F
:10062000284630BD70477047704770472DE9F04746
:100630000D4699469246044600F124080168880652
:1006400004D5E06921F01001216000E00120A842FA
:1006500001DD471B00E00027A1697A1902EB0900C0
:10066000081AA0612078C00602D42046FFF72EFEAB
:10067000002608E0D4E901211AF806009047206A14
:10068000401C761C20624E45F4DB2078C0060AD55B
:100690002046FFF71BFE06E0D4E9012130209047F9
:1006A000206A401C2062381EA7F10107F4DC07E035
:1006B000D4E9012118F805009047206A401C206207
:1006C000281EA5F10105F3DC2046FFF715FE207872
:1006D000000602D50220BDE8F0870120FBE7704745
:1006E0002DE9FF4F0C461E464FF0FF378BB0D2E985
:1006F0000001DDF860800A908A46C1F30A5505B909
:100700003D46002108464FF00000BAF1000F00F40A
:10071000400005DA00EB80004FF4400101EA500090
:100720004FEA9059B9F1010F00DDB9460A9850EA35
:100730004A000ED044F61050A5F2FF3545432F1461
:10074000B8F1000F1ED07542291E1EDDC9F100024E
:100750001CE0B8F1010F4FF0000001D0302103E0A0
:10076000F24305E02154401CB042FBDB304600223E
:10077000002121540B99C1F80880C1E900200FB075
:10078000BDE8F08FBD1B6D1CDEE74A4600DA69420A
:1007900006A800F083FA06AB93E8070003AB83E8F2
:1007A000070050460A9900F061FB8DE80700A0F5AC
:1007B00000501F3800900398002D0ADD42F21F01FF
:1007C0004A460844002303A90390684600F0CAFD86
:1007D00009E0A0F500504A461F38002303A9039002
:1007E000684600F0D4FD8DE807000004000C03D03B
:1007F0004FF0FF30410800E01046B8F1000F03D081
:100800000022009215461EE0751E05D400F0C0F9C6
:10081000303262556D1EF9D5B3460122084302D02D
:1008200000227F1C04E02078302801D100227F1EA6
:10083000002A099784D01DE0112D07DA00F0A8F9ED
:10084000303262556D1C50EA0102F5D1084302D0E6
:100850000098C8B10EE00021681E05E0235C625CD0
:1008600063542254401E491C8142F7DBAB46A81B4F
:10087000401E0990002004F80B000B98099AC0F85C
:100880000880C0E9002B7AE711264FF0000857E7EF
:100890002DE9F04F88460446D21D22F0070191B0A1
:1008A000D1E90001CDE90A0105F00FFC02460B98E1
:1008B000C00F01D02D2007E02068810701D52B2033
:1008C00002E0202101EAC000032A099001D0072A92
:1008D00005DB03464146204600F0A0F90BE12078F5
:1008E000800601D5E06900E00620B8F1650F814679
:1008F00006D0B8F1660F18D0B8F1670F70D131E0AB
:100900000020B9F1110F009001DB112301E009F182
:1009100001030AAA01A90CA8FFF7E2FEDDE90C70A9
:10092000002609F10105834647E001204B4600906F
:100930004FF000470AAA01A90CA8FFF7D1FEDDE994
:100940000DB00C995D46002610B909F101000D1893
:10095000B9EB050003D4C0F1FF3609F10105A5EBA1
:1009600009002BE0B9F1010F01DA4FF00109002075
:10097000B9F1110F0090484601DD112300E0034654
:100980000AAA01A90CA8FFF7ABFEDDE90C704D46E1
:1009900000268346207800070AD4AB4500DA5D467E
:1009A00001A8012D04DD411911F8011C302907D0DF
:1009B0004F4502DA17F1040F04DA012082460FE0F6
:1009C0006D1EEEE7002F02DCED1B3E4403E0781CB9
:1009D000A84200DD7D1CB81B00F1010A4FF0004762
:1009E0002078000703D4AA4501DB4FF0FF3A00212D
:1009F000B7F1004F0DF143088DF8431024D00220C9
:100A00002B23002F01DA7F422D230A21021EA0F1A1
:100A1000010000DC5FB197FBF1FC97FBF1F201FBF9
:100A20001C7C17460CF1300C08F801CDEEE7A8F15C
:100A3000010003702188090501D5452100E06521E9
:100A4000A0F1010800F8011C09980FA9A1EB080703
:100A5000FF1D00B10120411901EBEA70A169384482
:100A6000081A401EA0612078C00602D42046FFF775
:100A70002DFC099828B1D4E901219047206A401C37
:100A800020622078C00622D52046FFF71FFC1EE01A
:100A9000002E04DBB34502DD01A8805D00E03020BC
:100AA000D4E901219047206A401C2062761CAAF1FB
:100AB00001005FEA000A0AD100F066F8C068016828
:100AC000405CD4E901219047206A401C2062281E26
:100AD000A5F10105DCDC07E0D4E9012118F8010BE0
:100AE0009047206A401C2062381EA7F10107F3DC02
:100AF0002046FFF701FC032011B041E601694A1CC2
:100B000002610878704700B58FB0CDE9013100214E
:100B1000059105497944CDE9031011466846FFF770
:100B2000ABFC0FB000BD0000E5FFFFFF0A6802F854
:100B3000010B0A60704710B5436913B1AFF3008031
:100B400001E0FFF7EAFB012010BD127800F124015B
:100B50000A7000224A700122EDE711684FF0FF325F
:100B6000E9E70000074B70B50D467B44FFF7CBFF6C
:100B70000446284600F004F910B14FF0FF3070BD74
:100B8000204670BD3B560000004870475C0A0020BC
:100B900030B5B0F10A024FEA900E71F100034EEA4F
:100BA000817EB0EB0E0061EB91014FEA101E4EEA20
:100BB000017E10EB0E0041EB11114FEA102E4EEAB0
:100BC000016E10EB0E0041EB11214FEA104E4EEA80
:100BD000014E10EB0E0041EB1141401841F10001B4
:100BE0004FEAD00040EA41704FEAD10110EB800596
:100BF0004FEA810444EA907444EB01046D1944EB1C
:100C00000404521BA3414FF0000348BF0A3200D531
:100C100030BD401C41F1000130BD00002DE9F04124
:100C20001F46044603260168072A01F4006004DB1E
:100C300008B116A505E016A503E008B115A500E06A
:100C400015A521F010002060A069C01EA0610FB1A1
:100C5000401EA0612046FFF739FB4FB1D4E90121C6
:100C600038469047206A401C2062C01C206206E083
:100C7000206AFAE7D4E9012115F8010B9047761EA6
:100C8000F8D22046FFF738FBBDE8F0814E414E0018
:100C90006E616E00494E4600696E66002DE9F047B0
:100CA000814616468AB0354878440DC88DE80D0057
:100CB00032487844801C03AC0DC884E80D0041F62E
:100CC0009B300844372190FBF1F290FBF1F5A5F140
:100CD000800501FB12041B3C02D56442012000E0A8
:100CE0000020DFF898A080460027FA44AAF1BE0A47
:100CF0000EE0E0070AD03246684607EB47010123C1
:100D00000AEB810100F043FB8DE8070064107F1CB3
:100D1000002CEED1194F7F44AE3F19E0E80715D003
:100D200007EB04100DF1180A90E80E008AE80E0097
:100D3000C068F04201D1981908903246012306A9F3
:100D400003A800F024FB03AB83E807006D10641CCC
:100D5000002DE3D14FF0010332466946B8F1000F90
:100D600003A802D000F0FEFA01E000F010FBC9E990
:100D70000001C9F808200AB0BDE8F087D888000053
:100D8000007B00F080007047004870473C0A00205C
:100D90007546FFF7F9FFAE4605006946534620F059
:100DA0000700854618B020B5FFF75AFABDE8204085
:100DB0004FF000064FF000074FF000084FF0000B17
:100DC00021F00701AC46ACE8C009ACE8C009ACE8CA
:100DD000C009ACE8C0098D46704710B50446AFF3B2
:100DE00000802046BDE81040FFF725BA4FF0013CD7
:100DF00050F8042B51F8043B9A4221D1A2EB0C038A
:100E0000934313EACC1317D150F8042B51F8043B49
:100E10009A4215D1A2EB0C03934313EACC130BD1E6
:100E200050F8042B51F8043B9A4209D1A2EB0C0371
:100E3000934313EACC13DBD04FF00000704700BFA0
:100E4000D01A01BAB1FA81F101F0180122FA01F0C9
:100E5000CB40C1F12001DBB2C0B2C01A2CFA01F3C1
:100E6000D11A914311EAC311E6D170475FEA400CF1
:100E700008BF91F0000F4FEA8C234FEAC12243EAEA
:100E800051514FEA1C5018BF00F5F0404FEA3000B6
:100E900018BF41F000415FEA6C5C00F02980BCF1B2
:100EA000FF3F08BF40F080407047130C06BF12049C
:100EB0004FF0100C4FF0000C130E04BF12020CF197
:100EC000080C130F04BF12010CF1040C930F04BFA4
:100ED00092000CF1020CD30F04BF52000CF1010C74
:100EE00011464FF00002A0F11F00A0EB0C0070476C
:100EF00011F0004F08BF704731F000413FF4D5AF0B
:100F00000B0C06BF09044FF0100C4FF0000C0B0E39
:100F100004BF09020CF1080C0B0F04BF09010CF10E
:100F2000040C8B0F04BF89000CF1020CCB0F04BF23
:100F300049000CF1010CCCF12003A0EB0C0022FACB
:100F400003F302FA0CF241EA030100F101007047D9
:100F500020F07F4C80EA030023F07F47ACEB0703CF
:100F600003F57C5300F0004003F1FF032DE98049B5
:100F70004FEA154B09B44FEA144325EA0B4E24EA15
:100F800003480FF2042606EB132749083E785FEA70
:100F9000320203FB0667C7F5000707FB06F64FEAB8
:100FA00054374FEAD64606F1020607FB066CCCF131
:100FB000005C4FEA1C472CEA074C07FB06F40CFBCD
:100FC00006F504EB15464FEA961634BF00204FF0A5
:100FD00000404FEAD13706FB07FC4FEA1C4C0CFBE4
:100FE0000BF7D21B03FB0CF761EB07010CFB0EF7B1
:100FF000B0EB074072EB17420CFB08F734BFA2EBD3
:101000000742B2EB074261EB17414FEA0C444FEA4B
:10101000910706FB07FC4FEA1C4C0CFB0BF7B0EBEF
:10102000C74072EB573203FB0CF734BFA2EBC74249
:10103000B2EBC74261EB57310CFB0EF7B0EBC700C8
:1010400072EB57720CFB08F734BFA2EBC702B2EB8E
:10105000C70261EB5771039F4FEA816141EA921128
:1010600004EBCC044FEAD1374FEA826206FB07FC5F
:1010700042EA90124FEA80604FEA1C4C0CFB0BF7DF
:10108000D21B03FB0CF761EB07010CFB0EF7B0EB77
:10109000074072EB17420CFB08F734BFA2EB074284
:1010A000B2EB074261EB17414FEA8C554FEA9107CB
:1010B00004EB9C2406FB07FC4FEA1C4C0CFB0BF7D3
:1010C000B0EBC74072EB573203FB0CF734BFA2EB17
:1010D000C742B2EBC74261EB57310CFB0EF7B0EBE6
:1010E000C70072EB57720CFB08F734BFA2EBC702C4
:1010F000B2EBC70261EB577115EB4C254FEA8161EA
:1011000041EA92114FEA82624FEAD13742EA9012E5
:1011100006FB07FC44F100044FEA80604FEA1C4CD8
:101120000CFB0BF7D21B03FB0CF761EB07010CFB6D
:101130000EF7B0EB074072EB17420CFB08F734BF19
:10114000A2EB0742B2EB074261EB174115EB1C150E
:101150004FEA813141EA92414FEA823242EA9042BB
:101160004FEA80304FEA0C7644F1000448EA03432A
:101170004EEA0B484FF0000EB2EB080C71EB030780
:1011800024BF624639464EEB0E0E4FF0000B00189E
:10119000524149414BEB0B0BB2EB080C71EB0307CF
:1011A0007BF1000B24BF624639464EEB0E0E4FF02A
:1011B000000B0018524149414BEB0B0BB2EB080CF2
:1011C00071EB03077BF1000B24BF624639464EEBFF
:1011D0000E0E51EA020718BF46F0010616EB0E7616
:1011E00055F1000254F1000103D5BDE88901BDE8C5
:1011F0000088BDE88901BDE80048B619524141EBBD
:101200000101A3F10103704780807F7E7D7C7B7AA2
:101210007978777676757473727171706F6E6E6DA2
:101220006C6C6B6A6A696868676666656464636348
:1012300062616160605F5F5E5E5D5D5C5C5B5B5ACE
:101240005A5959585857575656555555545453533B
:1012500052525251515050504F4F4F4E4E4D4D4D96
:101260004C4C4C4B4B4B4A4A4A49494948484847E1
:10127000474747464646454545444444444343431F
:101280004342424242414141002B9C4630D47700C8
:101290002BD01CB54FEA370703B44FF010004FF0C6
:1012A0001001BAF1000F06D0BCF1000FDCBF40F016
:1012B000080040F008014FF000000FBCBDE81040EE
:1012C0000BF1010BBBF1010F08BF5FEA170722BF4B
:1012D00012F1010211F101014FF0004143F100034D
:1012E00000F0004043EA00007047F9D35708D0E708
:1012F00046EA064613F1400F4FEA16461FDD13F18A
:10130000200FDFBF16430A46002120335B42BED0C8
:10131000C3F1200746EA064602FA07F74FEA1646E7
:1013200046EA0706C3F1200722FA03F201FA07F79B
:1013300021FA03F14FF0000342EA0702A7E746EA69
:10134000020646EA06464FEA164646EA0106BCBFD2
:1013500046EA0646360C4FF000034FF000024FF00D
:10136000000194E72DE9804C9A46934670B491E8C9
:10137000380007C831EA400C48BF34EA430C03D5B3
:10138000FFF7E6FDFFF780FFF0BCBDE8008C2DE91C
:10139000804C9A46934670B491E8380007C810F024
:1013A000804F08BF13F0804F03D100F005F8FFF71E
:1013B0006BFFF0BCBDE8008C20F07F4780EA0300A3
:1013C00023F07F4C07EB0C03A3F57C5300F00040A7
:1013D000A3F1FE0392F0000F00F0B38095F0000F30
:1013E00000F077802DE901494FEA11404FEA144699
:1013F00021EA004800FB06FC24EA064708FB06F643
:1014000007FB08F800FB07F718EB06484CEB164CF7
:101410004FEA124B18EB07484FEA15464CEB1740C2
:1014200022EA0B4E0BFB06FC25EA06470EFB06F6EE
:1014300007FB0EFE0BFB07F71EEB064E4CEB164CA4
:101440004FF000061EEB074E4CEB174B18EB0B084A
:1014500040F1000018EB0E0B58EB000840F10000C3
:101460008F1A4FF000013CBFC943661B14BFB5EB98
:10147000040C00213CBFC943F61B4FEA17444EEA57
:101480008E0E27EA04454FEA1C4704FB07622CEA4C
:10149000074C05FB07F70CFB05F604FB0CFC16EBF1
:1014A000074642EB174216EB0C4642EB1C421BEB85
:1014B000060658EB0202414146EA9E0601D5BDE808
:1014C0000189B619524141EB0101A3F10103BDE8C5
:1014D00001894FEA14454FEA114724EA054621EAFB
:1014E000074C05FB07F406FB07F70CFB06F105FBB1
:1014F0000CFC11EB074144EB17444FEA124711EB88
:101500000C4144EB1C4422EA074C05FB07F206FBA6
:1015100007F70CFB06F605FB0CFC16EB074642EB47
:10152000174216EB0C4642EB1C456A1854F10001B9
:1015300048BF7047B619524141EB0101A3F10103C5
:10154000704795F0000F37D04FEA11424FEA144729
:1015500021EA024624EA074C02FB07F106FB07F7E3
:101560000CFB06F402FB0CFC14EB074441EB1741A7
:101570004FEA154714EB0C4441EB1C4125EA074C9C
:1015800002FB07F506FB07F70CFB06F602FB0CFC5B
:1015900016EB074645EB174516EB0C4645EB1C4290
:1015A000121951F1000148BF7047B619524141EB81
:1015B0000101A3F1010370474FEA14454FEA1147B7
:1015C00024EA054621EA074C05FB07F106FB07F76D
:1015D0000CFB06F24FF0000605FB0CFC12EB074279
:1015E00041EB174112EB0C4251EB1C4148BF7047D5
:1015F000921841EB0101A3F101037047FEE7704728
:101600008000A0F1C0400029016802D041F0010132
:1016100001E0024A1140016070470000FEFF0F0028
:1016200010B5D0E901121143D0E903231A43114345
:101630004269114382691143C2691143026A11432D
:10164000426A1143826A1143C26A1143026B114319
:1016500002689200A2F1C04211608168082907D196
:1016600001688900A1F1C0410A6842F040020A60A5
:10167000416BD1E9002342EA03128B688C891B027B
:1016800043EA04431A430B8A42EA03520B7D8969F9
:1016900042EA03620A4301688900A1F1C0414A603D
:1016A000C16AB1F5804F08D000686FF070418000CA
:1016B000A0F1C040C0F8041110BD816BD1E9002336
:1016C00042EA03128B680C8A1B0243EA04531A4352
:1016D0000B7D896942EA036200680A438000A0F139
:1016E000C040C0F8042110BDF0B5CC78002204F051
:1016F0000F03E40601D58C7823430C784FF00F0CD0
:1017000014F0FF0F4FF0010E1BD005680E880EFA83
:1017100002F42640A64210D196000CFA06F725EAFC
:10172000070703FA06F5CE783D43282E02D0482E4F
:1017300002D002E0446100E00461521C082AE5D3B3
:1017400005600A88FF2A1CD94468002202F10806B5
:101750000EFA06F50E882E40AE420ED196000CFA17
:1017600006F7BC4303FA06F7CE783C43282E00D197
:101770004561CE78482E00D10561521C082AE5D378
:101780004460F0BD0246002092680A4200D0012069
:1017900070470161704770B50C46054603F05CFF69
:1017A0002146284603F02EFD2146284603F0B8FDC9
:1017B0002146284603F0E4FD2146284603F030FE8A
:1017C00021462846BDE8704003F020BF2DE9FC41CA
:1017D0006C496D4C1F200880D4F88600823406F0D6
:1017E0002BF96A4F394606F02DF805F09DFF227A55
:1017F000009202460B4666A104F12600FEF750FD5A
:10180000102504F12606CDE900562B46C822782182
:101810001E2003F091FC54F8010C06F00DF9394636
:1018200006F010F805F080FFE278009202460B46C1
:101830005DA13046FEF734FDCDE900561023C822E5
:101840008C211E2003F078FCD4F81E0006F0DCF892
:101850005B4905F0F7FF05F067FF02460B4659A10B
:101860003046FEF71DFDCDE900561023C822A02109
:101870001E2003F061FC608C06F0DEF8564905F08E
:10188000E1FF05F051FF02460B4654A13046FEF73A
:1018900007FDCDE900561023C822B4211E2003F015
:1018A0004BFCE07D823C03280ED8514951F82020A2
:1018B00050A13046FEF7F4FCCDE90056C8221023B3
:1018C00011461E2003F038FC2F4894F88C204CA1C0
:1018D000A8306E34FEF7E4FCCDE900561023C82290
:1018E000DC211E2003F028FC14F86E0C6427B0FBEA
:1018F000F7F107FB1102244848A1A830FEF7D0FCFD
:10190000CDE900561023C822F0211E2003F014FC5C
:1019100014F86D0CB0FBF7F107FB11021A4846A151
:10192000A830FEF7BDFCCDE900561023C8224FF4C5
:1019300082711E2003F000FCE07B00901248A37B24
:10194000A28944A1A830FEF7ABFCCDE900561023D4
:10195000C8224FF48C711E2003F0EEFBA07C009097
:101960000948637C227C42A1A830FEF799FCCDE9AE
:1019700000561023C8224FF496711E2003F0DCFBA2
:10198000BDE8FC8126000020DC0300200050C34796
:101990004C6F6E6769747564653A252E356620252F
:1019A00031632020200000004C6174697475646507
:1019B0003A252E35662025316320202000000000C6
:1019C00000002041416C7469747564653A252E31BC
:1019D000666D20202020200000007A445370656549
:1019E000643A252E33666B6D2F682020202020005E
:1019F00000000020466978204D6F64653A25730029
:101A00004750532B42442056616C696420736174C3
:101A1000656C6C6974653A25303264004750532018
:101A200056697369626C6520736174656C6C697466
:101A3000653A253032640000424420566973696279
:101A40006C6520736174656C6C6974653A2530321D
:101A50006400000055544320446174653A253034D5
:101A6000642F253032642F2530326420202000007E
:101A70005554432054696D653A253032643A253017
:101A800032643A253032642020200000FEE7000056
:101A900008B50121442003F01FFF1C20ADF8000011
:101AA00048208DF8030069460648FFF71DFE012017
:101AB000ADF8000028208DF8030069460248FFF7C2
:101AC00013FE08BD00180140000801402DE9F04157
:101AD0002E4C2F4F2F4D012608B1267001E02078A3
:101AE000A0B110212846FFF74DFEB0B108212846CD
:101AF000FFF748FE88B104212846FFF743FE60B196
:101B000001213846FFF73EFE012806D01021284665
:101B1000FFF738FE012824D035E00A2004F010FB3E
:101B20000020207010212846FFF72CFE80B10821EC
:101B30002846FFF727FE70B104212846FFF722FE52
:101B400058B101213846FFF71DFE012807D01AE0E1
:101B50000120BDE8F0810220FBE70320F9E7042023
:101B6000F7E708212846FFF70DFE01280BD10421D5
:101B70002846FFF707FE012805D101213846FFF767
:101B800001FE00B926700020E3E7000024000020D9
:101B900000080140001801402DE9F043174F0646A8
:101BA000002438887D884543B888A0F5D0410439A1
:101BB00002D1B879012807D00021084603F0B2F914
:101BC00003F0E4FA0E4815E00020B8714FF02A093E
:101BD000A7F80A904FF02B08A7F80C80014603F0F5
:101BE000A1F90120B871A7F80A80A7F80C90E7E7DF
:101BF0000680641CAC42FBD3BDE8F083B604002031
:101C00000008006C2DE9F04F4A492A232B248988CB
:101C100045F2105A4FF4305B4FF4285E4FF448758C
:101C20004FF0F00C49F241394FF4A07745F21036ED
:101C30004FF4F07280B13F484FF00108494580F8F9
:101C400006800780A0F802C001D0B1423ED12C2509
:101C500005814381848157E036484FF000084945AB
:101C600080F80680A0F800C0478006D0A1F5D04CCF
:101C7000BCF1040C01D0B1420CD12C25058143816B
:101C8000A1F5D0438481043B01D0B14244D1078007
:101C9000428041E0514507D1A0F808B0A0F80AE021
:101CA0004FF42C5181810EE0A1F5C856633E06D059
:101CB0002221018120214181212181812CE02C21BF
:101CC0000181448183810280458025E0A1F5D04CCB
:101CD000BCF1040C09D051450BD1A0F808B0A0F814
:101CE0000AE04FF42C53838121E02C2505814481A7
:101CF00009E0A1F5C85CBCF1630C12D0222303817A
:101D00002123438120238381A1F5D043043B01D0CB
:101D1000B14201D102804780BDE8F04F002003F0BE
:101D20002DB84FF02C0CA0F808C0438184810580A9
:101D30004280E9E7B60400202DE9F04FDFF810817A
:101D4000934642460B46B8F804500C0ADFF804A14B
:101D50009189060A5289A5F513470AF10209413F04
:101D600019D0A5F5A647103F15D0A5F5AA47103FF5
:101D70001CD04746A5F5C85CBE793F883F1A7F1E38
:101D8000BCF1630C27D0A5F5D04CBCF1040C3AD0C3
:101D9000012E4AD04AE0AAF800204A46A9F800607D
:101DA000C0B2A9F80000AAF800103AE0AAF8002092
:101DB000A9F80060521CAAF80020C0B2A9F80000DF
:101DC000AAF80010A9F80040491CAAF80010D8B2DF
:101DD000A9F8000033E006B9B8B2AAF80020050A55
:101DE0004A46A9F80050C7B2A9F80070A9F80050F7
:101DF000C0B2A9F80000AAF80010A9F80040D8B2B3
:101E0000A9F800000DE0012E00D1B8B2AAF8002018
:101E1000050A4A46A9F80050C0B2A9F80000AAF87D
:101E200000101480D8B2108009E0B8B20146104604
:101E300003F0B6F9B8F80C00194603F0B1F9B8F898
:101E40000810AAF80010A9F800B0BDE8F08F000053
:101E5000B6040020FE07006C2DE9F8431F4D1F4615
:101E60008046AB88089EA3F5D040043802D1A879FB
:101E7000012807D0A2EB0800401C85B20C46DFF811
:101E8000609028E02B880846991A0024AC713A46E5
:101E90002A24A3EB08036C812B27491E5B1EAF810C
:101EA00089B29BB20096FFF7D7FF0120A8716F811E
:101EB000AC81BDE8F8832146404603F033F803F0D7
:101EC00065F90020494602E00E80401C80B2A8421D
:101ED000FAD3641CA4B2BC42EDD9EAE7B6040020F0
:101EE0000008006C2DE9F04F01210E029FB0304632
:101EF00003F0CEFC01214FF4B47003F0EDFC012798
:101F0000ADF83C704FF010088DF83F8003248DF839
:101F10003E400FA9FE48FFF7E7FB4CF23370ADF8E7
:101F20003C0018258DF83F508DF83E400FA9F94828
:101F3000FFF7DAFB4FF68070ADF83C008DF83F50AC
:101F40008DF83E400FA9F448FFF7CEFB41F20100A7
:101F5000ADF83C008DF83F508DF83E400FA9EF489A
:101F6000FFF7C2FB00200F21CDE918011A901B904A
:101F70001C901D901090CDE91104CDE91607149026
:101F800006211590CDE90010CDE9020813900490C8
:101F90003101CDE908010690059007908900CDE94F
:101FA0000A010C9017A80D9010A80E906846FFF734
:101FB00037FB01210620FFF723FB322004F0C0F895
:101FC000002002F0B1FED64DD64C49F24139A8802E
:101FD00046F6040A45F2103B45F210574FF6FF78DB
:101FE000FF2804D3404502D0B0F5134F70D1D32061
:101FF000208002F08FFEA88002F08CFEA88002F004
:1020000089FE08EA00204146A88002F083FEAA88E3
:102010001043A88048455BD0BF20208002F07AFEA4
:10202000A88002F077FEA88002F074FEA88002F07B
:1020300071FE01EA0020A88002F06CFEAA8810431D
:10204000A880504544D0D420208002F063FEA880B0
:1020500002F060FEA88002F05DFE01EA0020A88088
:1020600002F058FEAA881043A880584530D04FF49B
:102070005A40208002F04EFEA8804FF45B40208042
:1020800002F048FE01EA0020A8804FF45C40208066
:1020900002F040FEAA881043A880B0F5004F7DD022
:1020A000B84215D0A120208002F034FEA88002F0B2
:1020B00031FE01EA0020A88002F02CFEA988084326
:1020C000A0F5AE41A880613902D141F66310A88025
:1020D000A98895A0FEF7D8F8A888924DAD1C484570
:1020E0007ED1CF20208000202880C1202880302071
:1020F0002880ED2020806420288003202880122062
:10210000288081202880E8202080852028801020B9
:1021100028807A202880CB202080392028802C20FD
:102120002880002028803420288002202880F72062
:10213000208020202880EA202080002028802880FD
:10214000C02020801B202880C120208001202880E2
:10215000C5202080302028802880C7202080B720FC
:10216000288036202080482028803A202080552052
:102170002880B1202080002028801A202880B620C6
:1021800020800A202880A2202880F22020800020A1
:102190002880262020800120288000E051E0E020D7
:1021A00020800F2028802A202880282028800820AE
:1021B00028800E2028800820288054202880A920EC
:1021C0002880432028800A2028800F202880002093
:1021D0002880288028802880E1202080002000E0BE
:1021E00031E02880152028801720288007202880AB
:1021F00011202880062028802B2028805620288027
:102200003C20288005202880102028800F2028804E
:102210003F20288028800F2028802B20208000202D
:1022200028802880012028803F2028802A202080A4
:102230000020288028802880EF20288011202080FE
:1022400084E0AF8044E7504576D1112020801420EF
:1022500003F076FFD02020800720288042202880AD
:102260001D202880D1202080002028801A2028804E
:1022700009202880D2202080012028802220288048
:10228000C0202080102028803B202880002028802B
:102290000220288011202880C5202080032028804B
:1022A000C820208000202880252028802120288008
:1022B00005202880002028800A202880652028808A
:1022C0002520288077202880502028800F202880F3
:1022D00000202880F820208001202880FE202080F7
:1022E0000020288002202880202020803620208086
:1022F000082028803A202080552028802B2020800C
:10230000002028802880012028803F20288014E099
:10231000000C014000140140001801400020014061
:10232000B6040020FE07006C204C43442049443A88
:1023300025780D0A000000000EE02A2020800020F1
:102340002880288001202880DF202880782003F042
:10235000F7FE292001F02DBC58457DD1ED202080CD
:1023600001202880FE202880EE202080DE2028808A
:1023700021202880F120208001202880DF2020805B
:1023800010202880C42020808F202880C620208014
:1023900000202880E220288028802880BF202080FC
:1023A000AA202880B02020800D20288000202880AE
:1023B0000D202880002028801120288000202880DF
:1023C00019202880002028802120288000202880B3
:1023D0002D202880002028803D2028800020288073
:1023E0005D202880002028805D2028800020288013
:1023F000B120208080202880002028808B20288009
:10240000002028809620288000202880B22020806C
:102410000020288028800220288000202880032097
:10242000288000202880B320208000202880288059
:10243000288028802880288028802880288028805C
:10244000288028802880288028802880288028804C
:1024500028802880288000E0FEE3288028802880CB
:10246000B42020808B20288000202880962028807F
:1024700000202880A120288000202880B5202080EE
:102480000220288000202880032028800020288027
:102490000420288000202880B6202080002028806A
:1024A0002880B72020800020288028803F20288096
:1024B000002028805E20288000202880642028803A
:1024C000002028808C20288000202880AC202880B4
:1024D00000202880DC202880002028807020288090
:1024E000002028809020288000202880EB20288051
:1024F00000202880DC20288000202880B820208030
:102500000020288028802880288028802880288013
:102510002880BA202080242028800020288028803D
:102520002880C1202080202028800020288054205E
:10253000288000202880FF20288000202880C220BA
:1025400020800A2028800020288004202880002065
:102550002880C32020803C202880002028803A202A
:1025600028800020288039202880002028803720DB
:102570002880002028803C202880002028803620C9
:1025800028800020288032202880002028802F20CA
:102590002880002028802C202880002028802920C6
:1025A00028800020288026202880002028802420C1
:1025B00028800020288024202880002028802320B4
:1025C0002880002028803C20288000202880362079
:1025D00028800020288032202880002028802F207A
:1025E0002880002028802C20288000202880292076
:1025F0002880002028802620288000202880242071
:102600002880002028802420288000202880232063
:10261000288000202880C42020806220288000207C
:102620002880052028800020288084202880002001
:102630002880F02028800020288018202880002072
:102640002880A420288000202880182028800020AE
:10265000288050202880002028800C2028800020FE
:10266000288017202880002028809520288000209E
:102670002880F320288000202880E6202880002061
:102680002880C520208032202880002028804420F7
:10269000288000202880652028800020288076203F
:1026A0002880002028808820288000202880C620BC
:1026B00020802020288000202880172028800020CB
:1026C00028800120288000202880C720208000202A
:1026D0002880288028802880C8202080002028800A
:1026E000288028802880C9202080002028802880F9
:1026F000288028802880288028802880288028809A
:10270000288028802880288028802880E020208039
:1027100016202880002028801C2028800020288067
:102720002120288000202880362028800020288032
:1027300046202880002028805220288000202880E1
:1027400064202880002028807A202880002028808B
:102750008B20288000202880992028800020288035
:10276000A820288000202880B920288000202880E8
:10277000C420288000202880CA20288000202880AB
:10278000D220288000202880D9202880002028807E
:10279000E020288000202880F32028800020288046
:1027A000E120208016202880002028801C202880FE
:1027B00000202880222028800020288036202880A1
:1027C0000020288045202880002028805220288052
:1027D0000020288064202880002028807A202880FB
:1027E000002028808B2028800020288099202880A5
:1027F00000202880A820288000202880B920288058
:1028000000202880C420288000202880CA2028801A
:1028100000202880D220288000202880D8202880EE
:1028200000202880E020288000202880F3202880B5
:1028300000202880E2202080052028800020288099
:102840000B202880002028801B2028800020288042
:1028500034202880002028804420288000202880E0
:102860004F20288000202880612028800020288098
:102870007920288000202880882028800020288037
:102880009720288000202880A620288000202880EB
:10289000B720288000202880C2202880002028809F
:1028A000C720288000202880D12028800020288070
:1028B000D620288000202880DD2028800020288045
:1028C000F320288000202880E32020800520288015
:1028D000002028800A202880002028801C202880B2
:1028E0000020288033202880002028804420288051
:1028F0000020288050202880002028806220288006
:1029000000202880782028800020288088202880A7
:10291000002028809720288000202880A62028805A
:1029200000202880B720288000202880C22028800E
:1029300000202880C720288000202880D1202880DF
:1029400000202880D520288000202880DD202880B5
:1029500000202880F320288000202880E420208088
:102960000120288000202880012028800020288045
:1029700002202880002028802A202880002028800B
:102980003C202880002028804B20288000202880A0
:102990005D20288000202880742028800020288046
:1029A00084202880002028809320288000202880F0
:1029B000A220288000202880B320288000202880A2
:1029C000BE20288000202880C42028800020288065
:1029D000CD20288000202880D32028800020288037
:1029E000DD20288000202880F320288000202880F7
:1029F000E520208000202880288028802880022050
:102A000028800020288029202880002028803C2041
:102A10002880002028804B202880002028805D20EE
:102A2000288000202880742028800020288084208E
:102A30002880002028809320288000202880A22041
:102A4000288000202880B320288000202880BE20F5
:102A5000288000202880C420288000202880CD20C5
:102A6000288000202880D320288000202880DC2097
:102A7000288000202880F320288000202880E6205D
:102A800020801120288000202880342028800020E9
:102A9000288056202880002028807620288000204A
:102AA0002880772028800020288066202880002029
:102AB00028808820288000202880992028800020D5
:102AC0002880BB2028800020288099202880002092
:102AD000288066202880002028805520288000201B
:102AE000288055202880002028804520288000202C
:102AF000288043202880002028804420288000202F
:102B00002880E7202080322028800020288055203F
:102B100028800020288076202880002028806620B9
:102B200028800020288067202880002028806720B7
:102B30002880002028808720288000202880992055
:102B4000288000202880BB20288000202880992011
:102B5000288000202880772028800020288044209A
:102B600028800020288056202880002028802320CC
:102B700028800020288033202880002028804520BD
:102B8000288000202880E8202080002028802880BD
:102B900099202880002028808720288000202880F5
:102BA0008820288000202880772028800020288006
:102BB0006620288000202880882028800020288007
:102BC000AA20288000202880BB2028800020288080
:102BD00099202880002028806620288000202880D6
:102BE000552028800020288055202880002028801B
:102BF000442028800020288044202880002028802D
:102C00005520288000202880E9202080AA202880C4
:102C100000202880288028802080AA202880CF209B
:102C200020800020288028802880288028802880F4
:102C30002880288028802880288028802880288054
:102C4000288028802880F0202080002028805020A4
:102C500028800020288000E02CE028802880F320B5
:102C6000208000202880F920208006202880102045
:102C7000288029202880002028803A202080552084
:102C8000288011202080642003F05AFA2920208017
:102C9000352020800020288051202080FF2028809F
:102CA000532020802C2028805520208082202880BE
:102CB0002C20FCE3B8427DD14FF4704355211846D7
:102CC00002F06EFA4FF20105AA21284602F068FAD6
:102CD0006E1C5221304602F063FAAF1C08213846C0
:102CE00002F05EFA4FF204090121484602F058FA58
:102CF0000D214FF4304002F053FA0D214BF2010048
:102D000002F04EFA0D214BF2020002F049FA4FF4A4
:102D1000364A3421504602F043FA34214BF2016026
:102D200002F03EFA34214BF2026002F039FA4FF41D
:102D3000314B0D21584602F033FA0D214BF20110B0
:102D400002F02EFA0D214BF2021002F029FA342182
:102D50004FF4374002F024FA34214BF2017002F0B4
:102D60001FFA34214BF2027002F01AFA00214FF4DC
:102D7000324002F015FA00214BF2012002F010FA65
:102D800000214BF2022002F00BFA24214FF43840CC
:102D900002F006FA24214BF6010002F001FA242188
:102DA0004BF6020002F0FCF901214FF43F4002F023
:102DB000F7F900E0FEE30F214FF4334002F0F0F9A1
:102DC0000F214BF2013002F0EBF90F214BF20230F0
:102DD00002F0E6F934214FF4394002F0E1F93421F0
:102DE0004BF6011002F0DCF934214BF6021002F030
:102DF000D7F908214FF4354002F0D2F908214BF2FF
:102E0000015002F0CDF908214BF2025002F0C8F94E
:102E100003214FF4424002F0C3F924214FF43A4019
:102E200002F0BEF924214BF6012002F0B9F9242169
:102E30004BF6022002F0B4F900214FF43C4002F0BE
:102E4000AFF978214BF6014002F0AAF900214BF6C8
:102E5000024002F0A5F900214FF43D4002F0A0F934
:102E600078214BF6015002F09BF900214BF60250FD
:102E700002F096F900214FF43E4002F091F96421EE
:102E80004BF6016002F08CF900214FF4514002F042
:102E900087F933214DF2011002F082F900214DF241
:102EA000021002F07DF934214DF2031002F078F99E
:102EB00000214DF2041002F073F93A214DF2051091
:102EC00002F06EF900214DF2061002F069F94A2174
:102ED0004DF2071002F064F900214DF2081002F0E3
:102EE0005FF95C214DF2091002F05AF900214DF210
:102EF0000A1002F055F981214DF20B1002F050F941
:102F000000214DF20C1002F04BF9A6214DF20D10EC
:102F100002F046F900214DF20E1002F041F9E521D0
:102F20004DF20F1002F03CF901214DF2101002F0A9
:102F300037F913214DF2111002F032F901214DF24F
:102F4000121002F02DF954214DF2131002F028F95D
:102F500001214DF2141002F023F982214DF21510D7
:102F600002F01EF901214DF2161002F019F9CA21E2
:102F70004DF2171002F014F902214DF2181002F070
:102F80000FF900214DF2191002F00AF902214DF259
:102F90001A1002F005F901214DF21B1002F000F9A0
:102FA00002214DF21C1002F0FBF834214DF21D10ED
:102FB00002F0F6F802214DF21E1002F0F1F867213E
:102FC0004DF21F1002F0ECF802214DF2201002F039
:102FD000E7F884214DF2211002F0E2F802214DF2CF
:102FE000221002F0DDF8A4214DF2231002F0D8F8EF
:102FF00002214DF2241002F0D3F8B7214DF2251032
:1030000002F0CEF802214DF2261002F0C9F8CF21CD
:103010004DF2271002F0C4F802214DF2281002F000
:10302000BFF8DE214DF2291002F0BAF802214DF26C
:103030002A1002F0B5F8F2214DF22B1002F0B0F890
:1030400002214DF22C1002F0ABF8FE214DF22D10B2
:1030500002F0A6F803214DF22E1002F0A1F8102183
:103060004DF22F1002F09CF803214DF2301002F0C7
:1030700097F833214DF2311002F092F803214DF20E
:10308000321002F08DF86D214DF2331002F088F805
:1030900000214FF4524002F083F833214DF2012019
:1030A00002F07EF800214DF2022002F079F834217E
:1030B0004DF2032002F074F800214DF2042002F0DA
:1030C0006FF83A214DF2052002F06AF800214DF226
:1030D000062002F065F84A214DF2072002F060F860
:1030E00000214DF2082002F05BF85C214DF209202E
:1030F00002F056F800214DF20A2002F051F8812129
:103100004DF20B2002F04CF800214DF20C2002F0A1
:1031100047F8A6214DF20D2002F042F800214DF2B1
:103120000E2002F03DF8E5214DF20F2002F038F8B4
:1031300001214DF2102002F033F813214DF211203D
:1031400002F02EF801214DF2122002F029F854214C
:103150004DF2132002F024F801214DF2142002F068
:103160001FF882214DF2152002F01AF801214DF2CC
:10317000162002F015F8CA214DF2172002F010F8BF
:1031800002214DF2182002F00BF800214DF2192017
:1031900002F006F802214DF21A2002F001F8012196
:1031A0004DF21B2001F0FCFF02214DF21C2001F02A
:1031B000F7FF34214DF21D2001F0F2FF02214DF204
:1031C0001E2001F0EDFF67214DF21F2001F0E8FF06
:1031D00002214DF2202001F0E3FF84214DF2212055
:1031E00001F0DEFF02214DF2222001F0D9FFA421DF
:1031F0004DF2232001F0D4FF02214DF2242001F0F2
:10320000CFFFB7214DF2252001F0CAFF02214DF278
:10321000262001F0C5FFCF214DF2272001F0C0FF8D
:1032200002214DF2282001F0BBFFDE214DF22920C2
:1032300001F0B6FF02214DF22A2001F0B1FFF22188
:103240004DF22B2001F0ACFF02214DF22C2001F0B9
:10325000A7FFFE214DF22D2001F0A2FF03214DF228
:103260002E2001F09DFF10214DF22F2001F098FF3C
:1032700003214DF2302001F093FF33214DF2312034
:1032800001F08EFF03214DF2322001F089FF6D2104
:103290004DF2332001F084FF00214FF4534001F040
:1032A0007FFF33214DF2013001F07AFF00214DF212
:1032B000023001F075FF34214DF2033001F070FF50
:1032C00000214DF2043001F06BFF3A214DF2053040
:1032D00001F066FF00214DF2063001F061FF4A2146
:1032E0004DF2073001F05CFF00214DF2083001F093
:1032F00057FF5C214DF2093001F052FF00214DF2E1
:103300000A3001F04DFF81214DF20B3001F048FFF2
:1033100000214DF20C3001F043FFA6214DF20D309B
:1033200001F03EFF00214DF20E3001F039FFE521A2
:103330004DF20F3001F034FF01214DF2103001F059
:103340002FFF13214DF2113001F02AFF01214DF220
:10335000123001F025FF54214DF2133001F020FF0F
:1033600001214DF2143001F01BFF82214DF2153086
:1033700001F016FF01214DF2163001F011FFCA21B4
:103380004DF2173001F00CFF02214DF2183001F020
:1033900007FF00214DF2193001F002FF02214DF22A
:1033A0001A3001F0FDFE01214DF21B3001F0F8FE54
:1033B00002214DF21C3001F0F3FE34214DF21D309C
:1033C00001F0EEFE02214DF21E3001F0E9FE672110
:1033D0004DF21F3001F0E4FE02214DF2203001F0E9
:1033E000DFFE84214DF2213001F0DAFE02214DF2A0
:1033F000223001F0D5FEA4214DF2233001F0D0FEA1
:1034000002214DF2243001F0CBFEB7214DF22530E0
:1034100001F0C6FE02214DF2263001F0C1FECF219F
:103420004DF2273001F0BCFE02214DF2283001F0B0
:10343000B7FEDE214DF2293001F0B2FE02214DF23D
:103440002A3001F0ADFEF2214DF22B3001F0A8FE42
:1034500002214DF22C3001F0A3FEFE214DF22D3061
:1034600001F09EFE03214DF22E3001F099FE102155
:103470004DF22F3001F094FE03214DF2303001F077
:103480008FFE33214DF2313001F08AFE03214DF2DF
:10349000323001F085FE6D214DF2333001F080FEB7
:1034A00000214FF4544001F07BFE332100E080E323
:1034B0004DF2014001F074FE00214DF2024001F096
:1034C0006FFE34214DF2034001F06AFE00214DF2FF
:1034D000044001F065FE3A214DF2054001F060FE26
:1034E00000214DF2064001F05BFE4A214DF20740FB
:1034F00001F056FE00214DF2084001F051FE5C2122
:103500004DF2094001F04CFE00214DF20A4001F05D
:1035100047FE81214DF20B4001F042FE00214DF2A9
:103520000C4001F03DFEA6214DF20D4001F038FEA9
:1035300000214DF20E4001F033FEE5214DF20F4027
:1035400001F02EFE01214DF2104001F029FE132161
:103550004DF2114001F024FE01214DF2124001F024
:103560001FFE54214DF2134001F01AFE01214DF2CD
:10357000144001F015FE82214DF2154001F010FEBD
:1035800001214DF2164001F00BFECA214DF2174009
:1035900001F006FE02214DF2184001F001FE00216B
:1035A0004DF2194001F0FCFD02214DF21A4001F0EC
:1035B000F7FD00E0FFE201214DF21B4001F0F0FDBC
:1035C00002214DF21C4001F0EBFD34214DF21D4073
:1035D00001F0E6FD02214DF21E4001F0E1FD672100
:1035E0004DF21F4001F0DCFD02214DF2204001F0C0
:1035F000D7FD84214DF2214001F0D2FD02214DF290
:10360000224001F0CDFDA4214DF2234001F0C8FD80
:1036100002214DF2244001F0C3FDB7214DF22540B7
:1036200001F0BEFD02214DF2264001F0B9FDCF218F
:103630004DF2274001F0B4FD02214DF2284001F087
:10364000AFFDDE214DF2294001F0AAFD02214DF22D
:103650002A4001F0A5FDF2214DF22B4001F0A0FD22
:1036600002214DF22C4001F09BFDFE214DF22D4038
:1036700001F096FD03214DF22E4001F091FD102145
:103680004DF22F4001F08CFD03214DF2304001F04E
:1036900087FD33214DF2314001F082FD03214DF2CF
:1036A000324001F07DFD6D214DF2334001F078FD97
:1036B00000214FF4554001F073FD33214DF20150CC
:1036C00001F06EFD00214DF2025001F069FD342140
:1036D0004DF2035001F064FD00214DF2045001F061
:1036E0005FFD3A214DF2055001F05AFD00214DF2E7
:1036F000065001F055FD4A214DF2075001F050FDF2
:1037000000214DF2085001F04BFD5C214DF20950B3
:1037100001F046FD00214DF20A5001F041FD8121EA
:103720004DF20B5001F03CFD00214DF20C5001F028
:1037300037FDA6214DF20D5001F032FD00214DF272
:103740000E5001F02DFDE5214DF20F5001F028FD46
:1037500001214DF2105001F023FD13214DF21150C3
:1037600001F01EFD01214DF2125001F019FD54210E
:103770004DF2135001F014FD01214DF2145001F0EF
:103780000FFD82214DF2155001F00AFD01214DF28D
:10379000165001F005FDCA214DF2175001F000FD51
:1037A00002214DF2185001F0FBFC00214DF219509E
:1037B00001F0F6FC02214DF21A5001F0F1FC01215A
:1037C0004DF21B5001F0ECFC02214DF21C5001F0B7
:1037D000E7FC34214DF21D5001F0E2FC02214DF2D4
:1037E0001E5001F0DDFC67214DF21F5001F0D8FCA6
:1037F00002214DF2205001F0D3FC84214DF22150E2
:1038000001F0CEFC02214DF2225001F0C9FCA421AE
:103810004DF2235001F0C4FC02214DF2245001F07E
:10382000BFFCB7214DF2255001F0BAFC02214DF248
:10383000265001F0B5FCCF214DF2275001F0B0FC2D
:1038400002214DF2285001F0ABFCDE214DF229504F
:1038500001F0A6FC02214DF22A5001F0A1FCF22158
:103860004DF22B5001F09CFC02214DF22C5001F046
:1038700097FCFE214DF22D5001F092FC03214DF2F8
:103880002E5001F08DFC10214DF22F5001F088FCDC
:1038900003214DF2305001F083FC33214DF23150C1
:1038A00001F07EFC03214DF2325001F079FC6D21D4
:1038B0004DF2335001F074FC00214FF4564001F0FA
:1038C0006FFC33214DF2016001F06AFC00214DF2E2
:1038D000026001F065FC34214DF2036001F060FCF0
:1038E00000214DF2046001F05BFC3A214DF20560CD
:1038F00001F056FC00214DF2066001F051FC4A2116
:103900004DF2076001F04CFC00214DF2086001F01F
:1039100047FC5C214DF2096001F042FC00214DF2B0
:103920000A6001F03DFC81214DF20B6001F038FC92
:1039300000214DF20C6001F033FCA6214DF20D6028
:1039400001F02EFC00214DF20E6001F029FCE52172
:103950004DF20F6001F024FC01214DF2106001F0E6
:103960001FFC13214DF2116001F01AFC01214DF2F0
:10397000126001F015FC54214DF2136001F010FCAF
:1039800001214DF2146001F00BFC82214DF2156013
:1039900001F006FC01214DF2166001F001FCCA2184
:1039A0004DF2176001F0FCFB02214DF2186001F0AE
:1039B000F7FB00214DF2196001F0F2FB02214DF2FC
:1039C0001A6001F0EDFB01214DF21B6001F0E8FBF4
:1039D00002214DF21C6001F0E3FB34214DF21D6029
:1039E00001F0DEFB02214DF21E6001F0D9FB6721E0
:1039F0004DF21F6001F0D4FB02214DF2206001F076
:103A0000CFFB84214DF2216001F0CAFB02214DF26F
:103A1000226001F0C5FBA4214DF2236001F0C0FB40
:103A200002214DF2246001F0BBFBB7214DF225606D
:103A300001F0B6FB02214DF2266001F0B1FBCF216F
:103A40004DF2276001F0ACFB02214DF2286001F03D
:103A5000A7FBDE214DF2296001F0A2FB02214DF20D
:103A60002A6001F09DFBF2214DF22B6001F098FBE2
:103A700002214DF22C6001F093FBFE214DF22D60EE
:103A800001F08EFB03214DF22E6001F089FB102125
:103A90004DF22F6001F084FB03214DF2306001F004
:103AA0007FFB33214DF2316001F07AFB03214DF2AF
:103AB000326001F075FB6D214DF2336001F070FB57
:103AC0005521184601F06CFBAA21284601F068FB3D
:103AD0005221304601F064FB0821384601F060FBBA
:103AE0000021484601F05CFBCC21584601F058FB10
:103AF00000214BF2011001F053FB0521504601F06B
:103B00004FFB70214FF4374001F04AFB70214BF21C
:103B1000017001F045FB01214FF4384001F040FBFA
:103B200003214BF6010001F03BFB03214BF60200A1
:103B300001F036FB03214BF6030001F031FB0221BB
:103B40004FF43C4001F02CFB00214BF6014001F00A
:103B500027FB00214BF6024001F022FBD0214FF45D
:103B6000494001F01DFB02214CF6011001F018FB49
:103B700050214CF6021001F013FB50214CF60310BB
:103B800001F00EFB50214CF6041001F009FB00215E
:103B90004FF4545001F004FB55214FF4685001F0EC
:103BA000FFFA4FF488502080782002F0E3FA4FF4B7
:103BB00024502080FEE3A0F513414FF4E06940F269
:103BC000022A4FF4274B25392ED0A0F5134140F29D
:103BD000077728397ED0A0F513414FF4887B203930
:103BE00079D0A0F51341313976D0A0F5A841083934
:103BF00073D0A0F5A8514FF4407B05396ED0A0F5E5
:103C0000354105396BD0A0F54541053968D0A0F59F
:103C10008A4131397ED0A0F58A4135397BD0A0F573
:103C2000C851633978D0C5E747F6F001E52001F0C7
:103C3000B7FA3146012001F0B3FA4946022001F0FB
:103C4000AFFA41F23001032001F0AAFA002104206A
:103C500001F0A6FA5146082001F0A2FA002109203D
:103C600001F09EFA00210A2001F09AFA00210C20AE
:103C700001F096FA00210D2001F092FA00210F20A8
:103C800001F08EFA0021102001F08AFA072111209C
:103C900001F086FA0021122001F082FA002113209F
:103CA00001F07EFA0021072001F07AFA41F29061DA
:103CB000102001F075FA40F22721112001F070FA6E
:103CC0009D21122001F06CFA4FF4C851132001F02D
:103CD00067FA06E080E03CE1E1E1B7E253E3FDE3AF
:103CE000FDE32521292001F05BFA0D212B2001F0B5
:103CF00057FA0721302001F053FA40F20331312006
:103D000001F04EFA0321322001F04AFA40F2062176
:103D1000352002E0FEE3FEE3FEE301F041FA082174
:103D2000362001F03DFA40F20641372001F038FA22
:103D30004FF44171382001F033FA0721392001F0A6
:103D40002FFA40F202613C2001F02AFA08213D20BE
:103D500001F026FA0021502001F022FAEF21512033
:103D600001F01EFA0021522001F01AFA40F23F1130
:103D7000532001F015FA5946602001F011FA012193
:103D8000612001F00DFA00216A2001F009FA0021FA
:103D9000802001F005FA0021812001F001FA0021C4
:103DA000822001F0FDF90021832001F0F9F90021C2
:103DB000842001F0F5F90021852001F0F1F91021AE
:103DC000902001F0EDF94FF4C061922001F0E8F984
:103DD00040F233110720FDE341F28F01EC2001F0A6
:103DE000DFF941F23421EF2001F0DAF93146012008
:103DF00001F0D6F94946022001F0D2F941F2300132
:103E0000032001F0CDF90021042001F0C9F9514649
:103E1000082001F0C5F90021092001F0C1F90021B5
:103E20000A2001F0BDF901210C2001F0B9F90021AF
:103E30000D2001F0B5F900210F2001F0B1F90021AA
:103E4000102001F0ADF90721112001F0A9F900219E
:103E5000122001F0A5F90021132001F0A1F90121A0
:103E6000072001F09DF9322002F06AF941F29041F9
:103E7000102001F095F940F22721112001F090F96E
:103E8000322002F05DF98A21122001F089F93220F6
:103E900002F056F94FF4D051132001F081F90621B8
:103EA000292001F07DF90D212B2001F079F9322034
:103EB00002F046F90021202001F072F900212120B2
:103EC00001F06EF9322002F03BF90021302001F0C0
:103ED00067F940F20461312001F062F940F20531E6
:103EE000322001F05DF90021352001F059F940F64A
:103EF0000941362001F054F94FF40171372001F0E7
:103F00004FF940F20131382001F04AF939463920A1
:103F100001F046F900213C2001F042F940F60A2167
:103F20003D2001F03DF9322002F00AF90021502035
:103F300001F036F9EF21512001F032F90021522031
:103F400001F02EF940F23F11532001F029F95946B2
:103F500051E10021084601F023F93146012001F02A
:103F60001FF94946022001F01BF941F230010320FC
:103F700001F016F90021042001F012F95146082041
:103F800001F00EF90021092001F00AF900210A20B0
:103F900001F006F901210C2001F002F900210D20A9
:103FA00001F0FEF800210F2001F0FAF8322002F0B3
:103FB000C7F840F20111072001F0F2F8322002F0B8
:103FC000BFF84FF48651102001F0EAF807211120C4
:103FD00001F0E6F85B465946122001F0E1F84FF493
:103FE0003061132001F0DCF80021292001F0D8F81D
:103FF00044F210012B2001F0D3F80021502001F0F1
:10400000CFF8EF21512001F0CBF80021522001F030
:10401000C7F840F23F11532001F0C2F84FF41C5191
:10402000602001F0BDF80121612001F0B9F8002104
:104030006A2001F0B5F80021802001F0B1F80021DC
:10404000812001F0ADF80021822001F0A9F80021C3
:10405000832001F0A5F80021842001F0A1F80021BF
:10406000852001F09DF81021902001F099F80021A1
:10407000922001F095F80121932001F091F8194662
:10408000952001F08DF80021972001F089F800219A
:10409000982001F085F840F27311072086E341F281
:1040A0001401E72001F07CF83146012001F078F896
:1040B0004FF40071022001F073F841F2380103203F
:1040C00001F06EF85146082001F06AF8002109203D
:1040D00001F066F800210A2001F062F800210C20AE
:1040E00001F05EF800210D2001F05AF800210F20A8
:1040F00001F056F80021102001F052F8072111209C
:1041000001F04EF80021122001F04AF8002113209E
:1041100001F046F8C82002F013F841F29061102037
:1041200001F03EF840F22721112001F039F8322049
:1041300002F006F80C21122001F032F8322001F0D2
:10414000FFFF4FF40061132001F02AF8112129200C
:1041500001F026F80B212B2001F022F8322001F08B
:10416000EFFF0021202001F01BF840F23F13194619
:10417000212001F015F80021302001F011F84FF452
:1041800083742146312001F00BF80021322001F028
:1041900007F84FF40171352001F002F841F20A618D
:1041A000362000F0FDFF3946372000F0F9FF2146A8
:1041B000382000F0F5FF3946392000F0F1FF40F2D9
:1041C00002413C2000F0ECFF40F60F413D2000F0A2
:1041D000E7FF0021502000F0E3FFEF21512000F025
:1041E000DFFF0021522000F0DBFF1946532000F0D2
:1041F000D7FF4FF41C51602000F0D2FF0121612055
:1042000000F0CEFF00216A2000F0CAFF00218020CC
:1042100000F0C6FF0021812000F0C2FF00218220B3
:1042200000F0BEFF0021832000F0BAFF00218420AF
:1042300000F0B6FF0021852000F0B2FF1021902091
:1042400000F0AEFF4FF4C0619220FDE33146012043
:1042500000F0A6FF4946022000F0A2FF41F2300123
:10426000032000F09DFF0021042000F099FF40F2A0
:104270000721082000F094FF0021092000F090FFA2
:1042800000210A2000F08CFF00210C2000F088FFA4
:1042900000210D2000F084FF00210F2000F080FF9E
:1042A000142001F04DFF41F2B061102000F078FFC2
:1042B0000121112000F074FF0121172000F070FF90
:1042C0004FF49C71122000F06BFF4FF4006113203B
:1042D00000F066FF0921292000F062FF09212A2051
:1042E00000F05EFF0021A42000F05AFF00215020C2
:1042F00000F056FFEF21512000F052FF0021522024
:1043000000F04EFF40F23F11532000F049FF4FF400
:104310001C51602000F044FF0121612000F040FFAB
:1043200000216A2000F03CFF0021802000F038FFCF
:104330000021812000F034FF0021822000F030FFB6
:104340000021832000F02CFF0021842000F028FFB2
:104350000021852000F024FF1321902000F020FF91
:104360000021922000F01CFF0321932000F018FF91
:104370005946952000F014FF40F27311072000F019
:104380000FFF322011E10021072000F009FF322049
:1043900001F0D6FE4FF48E71122000F001FF0121D2
:1043A000A42000F0FDFE0F21082000F0F9FE0821F6
:1043B0000A2000E07BE300F0F3FE08210D2000F06E
:1043C000EFFE3946302000F0EBFE0721312000F0EF
:1043D000E7FE40F20361322000F0E2FE4C4649461F
:1043E000332000F0DDFE5146342000F0D9FE0221DA
:1043F000352000F0D5FE41F60F71362000F0D0FEDA
:104400003946372000F0CCFE0021382000F0C8FEED
:104410000021392000F0C4FE39463A2000F0C0FEE9
:1044200000213B2000F0BCFE07213C2000F0B8FE3C
:1044300000213D2000F0B4FE322001F081FE012178
:10444000072000F0ADFE0121172000F0A9FE322068
:1044500001F076FE4FF4BD51102000F0A1FE40F2B5
:104460001721112000F09CFE4FF48F71122000F0F4
:1044700097FE4FF47061132000F092FE00212A2075
:1044800000F08EFE0A21292000F08AFE4FF49F7171
:10449000122000F085FE0021502000F081FEEF2167
:1044A000512000F07DFE0021522000F079FE40F204
:1044B0003F11532000F074FE4FF41C51602000F0B7
:1044C0006FFE0121612000F06BFE00216A2000F0E8
:1044D00067FE0021802000F063FE01E068E066E1F5
:1044E0000021812000F05CFE0021822000F058FEB7
:1044F0000021832000F054FE0021842000F050FEB3
:104500000021852000F04CFE1321902000F048FE91
:10451000594602E015E2CBE272E3922000F040FE41
:104520000521932000F03CFE0021952000F038FE8C
:104530000021972000F034FE0021982000F030FE8A
:104540003146012000F02CFE2146022000F028FE1A
:1045500041F23801032000F023FE0021042000F086
:104560001FFE00210C2000F01BFE00210F2000F098
:1045700017FE0021202000F013FE0021212000F072
:104580000FFE2121072000F00BFE142001F0D8FDC2
:104590006121072000F004FE142001F0D1FD40F25B
:1045A0007311072000F0FCFD142001F0C9FDA1E308
:1045B0000021084600F0F4FD0021084600F0F0FD5F
:1045C0000021084600F0ECFD0021084600F0E8FD5F
:1045D000012100E0E6E0A42000F0E2FD142001F05B
:1045E000AFFD4FF41C542146602000F0D9FD554624
:1045F0005146082000F0D4FD4FF40571302000F042
:10460000CFFD43F21571312000F0CAFD40F2046184
:10461000322000F0C5FD40F61661332000F0C0FDE9
:1046200042F21121342000F0BBFD4FF4A851352097
:1046300000F0B6FD48F20751362000F0B1FD41F21E
:104640000741372000F0ACFD41F20341382000F073
:10465000A7FD2021392000F0A3FD1A21902000F0B1
:104660009FFD0021102000F09BFD0721112000F08C
:1046700097FD0021122000F093FD0021132000F08F
:104680008FFD142001F05CFD4FF4E661102000F076
:1046900087FD40F23711112000F082FD142001F057
:1046A0004FFD4FF4DC71122000F07AFD142001F070
:1046B00047FD4FF47061132000F072FD80212A2025
:1046C00000F06EFD4821292000F06AFD142001F061
:1046D00037FD3146012000F063FD4946022000F01D
:1046E0005FFD41F23801032000F05AFD2946082001
:1046F00000F056FD00210A2000F052FD00210C20A0
:1047000000F04EFD00210D2000F04AFD30210E206A
:1047100000F046FD0021502000F042FDEF21512025
:1047200000F03EFD0021522000F03AFD40F23F1122
:10473000532000F035FD2146602000F031FD0121BD
:10474000612000F02DFD00216A2000F029FD1121DB
:10475000902000F025FD4FF4C061922000F020FD74
:1047600040F20241932000F01BFD0221942000F052
:1047700017FD142001F0E4FC0121072000F010FDDA
:10478000142001F0DDFC6121072000F009FD40F25A
:104790007311072000F004FD0021202000F000FD2F
:1047A0000021212000F0FCFC222100207DE10021DD
:1047B000084600F0F5FC0021084600F0F1FC14204A
:1047C00001F0BEFC0021084600F0EAFC002108468A
:1047D00000F0E6FC0021084600F0E2FC002108465B
:1047E00000F0DEFC0121A42000F0DAFC142001F02E
:1047F000A7FC4FF41C51602000F0D2FC40F60601EB
:10480000082000F0CDFC40F203731946302000F080
:10481000C7FC0121312000F0C3FC0421322000F04C
:10482000BFFC4FF48171332000F0BAFC5C4659465E
:10483000342000F0B5FC40F20311352000F0B0FC4C
:104840001F21362000F0ACFC1946372000F0A8FCF0
:104850000121382000F0A4FC0421392000F0A0FC44
:104860001521902000F09CFC4FF48261102000F094
:1048700097FC40F24721112000F092FC4FF4DE71CA
:10488000122000F08DFC4FF46061132000F088FCD2
:10489000782001F055FC3146012000F081FC4FF4F6
:1048A0000071022000F07CFC41F23001032000F096
:1048B00077FC08210A2000F073FC00210C2000F096
:1048C0006FFC20210E2000F06BFC00210F2000F077
:1048D00067FC0021202000F063FC0021212000F073
:1048E0005FFC3D212A2000F05BFC142001F028FC35
:1048F0002D21292000F054FC0021502000F050FC14
:104900004DF2EF01512000F04BFC0021522000F04D
:1049100047FC40F23F11532000F042FC002161208F
:1049200000F03EFC00216A2000F03AFC2146922073
:1049300000F036FC0521932000F032FC3146FFF7F1
:10494000ACBB0121002000F02BFC0A2001F0F8FB99
:1049500041F22861102000F023FC0E21122000F00B
:104960001FFC40F63921132000F01AFC0A2001F048
:10497000E7FB4021112000F013FC5021152000F02E
:104980000FFC0A2001F0DCFB1E21122000F008FCC5
:104990000A2001F0D5FB4FF4B151102000F000FCCB
:1049A00042F63921132000F0FBFB0A2001F0C8FB7E
:1049B0003146012000F0F4FB5946022000F0F0FBE4
:1049C00041F23801032000F0EBFB5146082000F0D3
:1049D000E7FB08210A2000F0E3FB0021302000F073
:1049E000DFFB40F20241312000F0DAFB4FF483712B
:1049F000322000F0D5FB40F20351332000F0D0FB11
:104A00004FF48271342000F0CBFB40F201313520AD
:104A100000F0C6FB3946362000F0C2FB40F20531FB
:104A2000372000F0BDFB4FF40271382000F0B8FBD6
:104A300040F60B71392000F0B3FB0221412000F059
:104A4000AFFB4FF41C5100E0D5E0602000F0A8FB64
:104A50000121612000F0A4FB4FF40471902000F0CC
:104A60009FFB4FF48571922000F09AFB0421932064
:104A700000F096FB3146A02000F092FB01210720B8
:104A800000F08EFB2121072000F08AFB2321072064
:104A900000F086FB3321072000F082FB40F2331147
:104AA000072000F07DFB0021A02000F079FB21E130
:104AB0003021152000F074FB10219A2000F070FBCB
:104AC0002021112000F06CFB43F22841102000F05F
:104AD00067FB0221122000F063FB41F23801132032
:104AE00000F05EFB282001F02BFB1221084600F0AD
:104AF00057FB282001F024FB43F22041102000F056
:104B00004FFB43F23801132000F04AFB462001F02E
:104B100017FB0021302000F043FB40F2024131201E
:104B200000F03EFB40F20731322000F039FB4FF439
:104B30004171332000F034FB0421342000F030FBBD
:104B400040F20141352000F02BFB3946362000F0C1
:104B500027FB40F20531372000F022FB4FF4C263FF
:104B60001946382000F01CFB1946392000F018FBCC
:104B70003146012000F014FB5946022000F010FBE2
:104B800041F23001032000F00BFB40F60801082041
:104B900000F006FB08210A2000F002FB4FF41C5134
:104BA000602000F0FDFA0121612000F0F9FA4FF4D5
:104BB0009F71902000F0F4FA3146922000F0F0FA54
:104BC0003146932000F0ECFA4FF44051A02000F061
:104BD000E7FA1021A32000F0E3FA0121072000F0FA
:104BE000DFFA2121072000F0DBFA2321072000F063
:104BF000D7FA3321072000F0D3FA40F233119EE6B2
:104C0000E22020801D202880022028800420288087
:104C1000642001F0AFFAE0202080012028800A20E3
:104C200001F08EFAE0202080032028800C2001F083
:104C300087FA012020800A2001F082FAE6202080F5
:104C40002F202880FF2028802880B020208020204E
:104C50002880002028800320288040F21F302880F0
:104C60000120288040F2DF10288000202880B42016
:104C700020800420288040F21F40288000202880C7
:104C80002E20288000202880288028802880B62098
:104C90002080022028804FF4037028800020288084
:104CA0001720288015202880002028802880F020C8
:104CB00020800320288029202080D02020800020F0
:104CC0002880BE20208005202880FE20288001200A
:104CD00028800020288028802880B8202080032079
:104CE000288001202880BA2020800120288064208C
:104CF00000F026F80020FCF785FF05490120C1F8E7
:104D000080014046FCF748FF1FB0BDE8F08F00006F
:104D100000802142034808B50088ADF80000BDF8C6
:104D2000000008BD0008006C044910B5088005208B
:104D300001F020FABDE81040FFF7ECBFFE07006C61
:104D40000C4A10B5BE211180941C0521218002F06F
:104D5000DAFB4FF06632084B02F0E8FB02F0A6FBEC
:104D6000208001202080FF202080002020802080C3
:104D700010BD0000FE07006C66660440F0B5674E8B
:104D800000233146B279898846F6040741F6631458
:104D9000012A01D02AB11DE0B9421BD0A14202D1A3
:104DA00018E0A14216D1082814D2DFE800F004066A
:104DB000080A0C0E101206200CE007200AE004205E
:104DC00008E0052006E0012004E0002002E00320C6
:104DD00000E00220A1F5134C45F2103245F21055C7
:104DE000BCF1410C07D0B94205D0914203D0A94291
:104DF00001D0A14275D1082812D2DFE800F01104D9
:104E000006080A0C0E1080230AE0402308E0C023A5
:104E100006E0202304E0602302E0A02300E0E0237A
:104E2000A94202D14FF4585000E03620914205D0FB
:104E3000A94203D0A14201D043F00803B94201D1F5
:104E400043F00203194600F0ABF9B288A2420AD03F
:104E500098063088718802D5884202D303E08842E0
:104E600001D9318070802E48811CAA42728902804B
:104E700021D100230B80531C038000230B80931C43
:104E8000038033885B1E1C0A0C80D21C0280DAB2BD
:104E90000A80B289028000230B80531C0380002308
:104EA0000B80931C038073885B1E1C0A0C80D21C31
:104EB0000280D8B212E000220A800A803288521E94
:104EC000130A0B80D2B20A80B289028000200880C7
:104ED00008807088401E020A0A80C0B20880F0BDB7
:104EE000FFE7082812D2DFE800F0040608110A0CD8
:104EF0000E1030230AE0102308E0202306E03823B8
:104F000004E0282302E0182300E00823BDE8F04075
:104F1000032043F4805100F043B90000B6040020A0
:104F2000FE07006C2DE9F04F4E4F0B463A46BD8808
:104F30000C0ADFF834B191895289A5F513464FEA7E
:104F4000102C0BF1020A413E1DD0A5F5A646103EDD
:104F500019D03E46BE4696F806903688A5F5D0474D
:104F6000A6EB0008A8F10108043F17D0A5F5C85723
:104F7000633F28D0A5F5AA477646103F51D0B9F136
:104F8000010F63D064E0ABF800205246AAF800C0DD
:104F9000C0B2AAF80000ABF800100FE0B9F1010FA1
:104FA00001D11FFA88F0ABF80020050A5246AAF892
:104FB0000050C0B2AAF80000ABF800101480D8B2BC
:104FC0001080BDE8F08FB9F1000F1BD0ABF80020C6
:104FD0005246AAF800C0C0B2AAF80000761E300AF5
:104FE000AAF80000F0B21080ABF80010114614804F
:104FF000D8B21080BEF80200401E020A0A80C0B279
:105000000880DEE71FFA88F0ABF800200026524641
:10501000AAF80060AAF80060060AAAF80060C0B208
:10502000E1E7ABF80020AAF800C0521CABF8002062
:10503000C0B2AAF80000ABF80010AAF80040491C62
:10504000ABF80010D8B2AAF80000BAE71FFA88F04F
:105050000146104600F0A4F8B089BDE8F04F1946AB
:1050600000F09EB8B6040020FE07006C2DE9F84F52
:1050700082461F460C468B46580700D0012000EBA5
:10508000D70079084843203AC0B202F0FF09002651
:10509000009041E00C2F10D0102F12D0182F3ED1CD
:1050A000204909EBC90001EB80004FF00008855D45
:1050B00028060AD51C4802880BE009EB49001B4969
:1050C000F1E71B4901EB0910EFE70A9828B91648E8
:1050D000428821465046FCF72FFE6806050E15480B
:1050E000641CA4B24088A04219D9A4EB0B00B842BA
:1050F00009D10AF101001FFA80FA0E485C460188C6
:1051000051450CD906E008F1010000F0FF08B8F1A4
:10511000080FCDD3761CF6B200988642BAD3BDE80C
:10512000F88F000070870008260000200C7D000822
:1051300080810008B60400202DE9F84F044600F0F5
:10514000FF0810190D46DDE90A761FFA80FA581992
:105150001FFA80F94FF0000B11E0544502D3E81913
:10516000444685B24D450FD23B4629462046CDF8F0
:1051700000B0FFF77BFF04EB570084B2761C327857
:10518000A2F120005E28E8D9BDE8F88F0248034963
:105190000089088070470000B6040020FE07006CFC
:1051A000024A1080901C018070470000FE07006CCE
:1051B00038B50121482000F08FFB2024ADF80040D5
:1051C00010208DF8030003200B4D8DF80200694676
:1051D0002846FCF789FA20212846FCF7DAFAADF8D0
:1051E0000040064C69462046FCF77EFA2021204606
:1051F000FCF7CFFA38BD0000000C01400018014058
:10520000FEE700002DE9F84F0D468146002737A143
:105210002846FBF7F5F90446C0790321303800F041
:10522000FF0B204600F066F8FF2805D020446946B1
:1052300000F08EFA89F801004FF0000851E02BA130
:105240002846FBF7DDF9054600244FF0040A0AEB77
:105250008400C1B2284600F04DF8FF283CD0284415
:10526000694600F075FA07EB870202EB090686F83B
:105270003E00052000EB8400C1B2284600F03AF859
:10528000FF2829D02844694600F062FA86F83F00DA
:10529000062000EB8400C1B2284600F02BF8FF285E
:1052A0001AD02844694600F053FAA6F840000720B7
:1052B00000EB8400C1B2284600F01CF8FF280BD098
:1052C0002844694600F044FA7F1C641CE4B286F866
:1052D0004200FFB2042CBAD308F1010202F0FF0829
:1052E0006D1CD845ABD3BDE8F88F0000244244477D
:1052F0005356000003460DE002782A2A03D0202AE4
:1053000001D37A2A01D9FF2070472C2A01D1491EE6
:10531000C9B2401C0029EFD1C01AC0B270470000CA
:1053200038B50A46054614A11046FBF769F904464C
:105330000621FFF7DFFFFF2805D02044694600F073
:1053400007FA85F88B0007212046FFF7D3FFFF28D7
:1053500005D02044694600F0FBF985F88C0009214E
:105360002046FFF7C7FFFF2805D02044694600F01C
:10537000EFF9C5F8A00038BD24474E47474100006B
:10538000F8B50A46064624A11046FBF739F905464A
:105390000221FFF7AFFFFF2805D02844694600F03F
:1053A000D7F986F899000024E01CC1B22846FFF71F
:1053B000A1FFFF280AD02844694600F0C9F9311935
:1053C000641CE4B281F88D000C2CEDD30F2128462B
:1053D000FFF790FFFF2805D02844694600F0B8F990
:1053E000A6F89A0010212846FFF784FFFF2805D071
:1053F0002844694600F0ACF9A6F89C001121284623
:10540000FFF778FFFF2805D02844694600F0A0F98F
:10541000A6F89E00F8BD000024474E475341000007
:105420002DE9F8430A46044675A11046FBF7E8F853
:1054300005460121FFF75EFF42F210764FF0640847
:10544000FF281ED02844694600F082F907469DF8DF
:1054500000100A2000F074F9B7FBF0F0B0FBF6F191
:1054600084F87E104146B0FBF1F2B2FBF1F308FB89
:10547000132284F87F20B0FBF8F208FB120084F8B6
:10548000800003212846FFF735FFDFF87C91FF28D5
:105490003ED02844694600F05BF907469DF80000BD
:1054A000801CC1B20A2000F04BF9B7FBF0F044F8C1
:1054B000810F9DF80000801CC1B20A2000F040F965
:1054C0000146B7FBF1F200FB127002F0B5FA074695
:1054D0009DF80000C0F10500C1B20A2000F030F9CB
:1054E00002F0AAFA394602F0BBFA494602F0AAF9DC
:1054F000074605210A2000F023F92168484302F0FD
:105500009BFA394602F03CF902F05EFA44F8810950
:1055100004212846FFF7EEFEFF2802D0285C84F81D
:10552000850005212846FFF7E5FEFF283ED02844E8
:10553000694600F00DF907469DF80000801CC1B2D5
:105540000A2000F0FDF8B7FBF0F044F8860F9DF854
:105550000000801CC1B20A2000F0F2F80146B7FB3F
:10556000F1F200FB127002F067FA07469DF80000A6
:10557000C0F10500C1B20A2000F0E2F802F05CFAC6
:10558000394602F06DFA494602F05CF907460521FA
:105590000A2000F0D5F82168484302F04DFA394658
:1055A00002F0EEF802F010FA44F8860906212846C7
:1055B000FFF7A0FEFF2802D0285C84F88A000921AA
:1055C0002846FFF797FEFF2818D02844694600F0C8
:1055D000BFF8B0FBF6F184F87D104146B0FBF1F264
:1055E000B2FBF1F308FB132284F87C20B0FBF8F245
:1055F00008FB120000F5FA60A4F87A00BDE8F88311
:1056000024474E524D4300000000704238B50A4610
:1056100004460FA11046FAF7F3FF05460721FFF7EE
:1056200069FEFF2813D02844694600F091F8A4F8D9
:10563000A4009DF80000032809D2C0F10300C1B204
:105640000A2000F07DF834F8A41F4843208038BDBC
:1056500024474E56544700002DE9F84F0D46814629
:10566000002735A12846FAF7CBFF0446C07903216D
:10567000303800F0FF0B2046FFF73CFEFF2805D036
:105680002044694600F064F889F800004FF00008F3
:105690004DE029A12846FAF7B3FF054600244FF054
:1056A000040A0AEB8400C1B22846FFF723FEFF2854
:1056B00038D02844694600F04BF807EB870202EB2C
:1056C0000906B070052000EB8400C1B22846FFF740
:1056D00011FEFF2826D02844694600F039F8F07002
:1056E000062000EB8400C1B22846FFF703FEFF2826
:1056F00018D02844694600F02BF8B080072000EB52
:105700008400C1B22846FFF7F5FDFF280AD02844DF
:10571000694600F01DF87F1C641CE4B2B071FFB252
:10572000042CBED308F1010202F0FF086D1CD8451D
:10573000AFD3BDE8F88F0000244750475356000010
:105740000346012000E05843491EC9B2FBD270470E
:105750002DE9F04F4FF0000A8B468046D146564661
:105760005446554601782D2902D145F00205401CCA
:1057700001782C2908D02A2906D02E290AD03039C0
:105780000A290AD300263446A80701D508F10108E2
:10579000002718E045F00105401CE90702D0641C11
:1057A000E4B201E0761CF6B2401CDBE7F01B401EC1
:1057B000C1B20A20FFF7C4FF18F80710303900FB08
:1057C00001AA7F1CFFB2B742F0D3052C00D90524F3
:1057D0008BF8004000270EE0E01B401EC1B20A20FB
:1057E000FFF7AEFFF21902EB08014978303900FBF0
:1057F00001997F1CFFB2A742EED321460A20FFF792
:105800009FFF0AFB0090A90700D54042BDE8F08F3A
:105810007047000030B50F23C27801780125F2B13E
:10582000144A126801F1E02102F4E062C2F5E0627C
:10583000120AC2F10404D3404278A24084781C408A
:105840001443220181F80024007800F01F018D40EC
:105850004009800000F1E020C0F8005130BD01F0A7
:105860001F0085404809800000F1E020C0F8805109
:1058700030BD00000CED00E0024908430249086019
:10588000704700000000FA050CED00E070470000D2
:10589000044A0029516901D0014300E0814351616C
:1058A0007047000000100240044A0029D16901D06D
:1058B000014300E08143D1617047000000100240C5
:1058C000044A0029116901D0014300E081431161BC
:1058D0007047000000100240044A0029916901D07D
:1058E000014300E0814391617047000000100240D5
:1058F000044A0029D16801D0014300E08143D1600E
:10590000704700000010024030B5204A5168204B1B
:1059100011F00C0103D0042901D0082901D0036043
:1059200012E05168536801F470114FF0020413F44F
:10593000803F04EB914102D053689B0301D5154B86
:1059400000E0134B5943016051680F2303EA111122
:10595000114B5C5C0168E14041605468072505EA31
:1059600014241C5D21FA04F48460546805EAD424EC
:105970001B5DD940C1605268032303EA9232064B93
:105980001B1F9A5CB1FBF2F1016130BD00100240B7
:1059900000127A0000093D003C0000207047000022
:1059A0000CB50022264800920192016841F4803132
:1059B00001604FF4A063016801F400310191009986
:1059C000491C0091019911B900999942F3D10168DC
:1059D000890333D5012101911A490A6842F0100266
:1059E0000A600A6822F003020A600A6842F00202B2
:1059F0000A604168416041684160416841F48061EA
:105A00004160416821F47C114160416841F4E81132
:105A10004160016841F08071016001688901FCD535
:105A2000416821F003014160416841F00201416099
:105A30004168C1F381010229FAD10CBD01920CBD6C
:105A4000001002400020024070B500242546144E8C
:105A500004E0641CA4B2052000F072FB308800044E
:105A600002D4642CF5D316E0642C14D230880021C3
:105A7000C0F30E020B4B06E0585C832805D0842847
:105A800007D0491C89B29142F6D3914204D1022534
:105A900002E00325F9E7012500203080284670BD8B
:105AA0002A000020C404002010B5044612484AF21F
:105AB000A01101804FF48061418005210171002116
:105AC000417184710121C171E1B281F0040101725F
:105AD00040F60D21A0F809100B2100F057F8C8205E
