:020000040800F2
:10000000280F002045020008A11F000891190008D0
:1000100093190008FD15000875280008000000006D
:100020000000000000000000000000002D22000879
:10003000FF150008000000006521000849240008A1
:100040005F0200085F0200085F0200085F0200080C
:100050005F0200085F0200085F0200085F020008FC
:100060005F0200085F0200085F0200085F020008EC
:100070005F0200085F0200085F0200085F020008DC
:100080005F0200085F0200085F0200085F020008CC
:100090005F0200085F0200085F0200085F020008BC
:1000A0005F0200085F0200085F0200085F020008AC
:1000B0005F0200089D240008D52400085F020008A4
:1000C0005F0200085F0200085F0200085F0200088C
:1000D0005F020008712600085F020008D5260008AC
:1000E0005F0200085F0200085F0200085F0200086C
:1000F0005F0200085F0200085F0200085F0200085C
:100100005F0200085F0200085F0200085F0200084B
:100110005F0200085F0200085F0200085F0200083B
:100120005F0200085F0200085F0200085F0200082B
:1001300000F002F800F076F80AA090E8000C824483
:100140008344AAF10107DA4501D100F06BF8AFF260
:10015000090EBAE80F0013F0010F18BFFB1A43F0A5
:100160000103184714490000344900000A444FF0C5
:10017000000C10F8013B13F0070408BF10F8014B06
:100180001D1108BF10F8015B641E05D010F8016B4B
:10019000641E01F8016BF9D113F0080F1EBF10F8AF
:1001A000014BAD1C0C1B09D16D1E58BF01F801CBD2
:1001B000FAD505E014F8016B01F8016B6D1EF9D555
:1001C0009142D6D37047000000230024002500266A
:1001D000103A28BF78C1FBD8520728BF30C148BFAA
:1001E0000B607047662903F06887642900F0BE80C1
:1001F000752900F0BB80782900F01F81632900F089
:10020000A484732900F0A984002070471FB500F072
:10021000BBFC04000020002103F056FCE0601FBD81
:1002200010B510BD00F0B4FD1146FFF7EFFF02F06E
:10023000EFFB00F0D2FD03B4FFF7F2FF03BC02F0C6
:1002400035FB00000948804709480047FEE7FEE704
:10025000FEE7FEE7FEE7FEE7FEE7FEE7FEE7FEE776
:1002600004480549054A064B704700004D24000824
:100270003101000828090020280F0020280B002049
:10028000280B0020704700000FB4044910B503AAE2
:10029000029800F067FC10BC5DF814FB2C000020F5
:1002A0000FB41CB5084B06AA7B446946009005981C
:1002B00000F029FC04460020694600F037FC204687
:1002C0001CBC5DF814FB00008108000070B50446FA
:1002D00085690068C10601D5302600E02026C007E8
:1002E00007D070BDD4E9012130469047206A401CF8
:1002F00020626D1EF6D570BD70B504468569007824
:10030000C00707D170BDD4E9012120209047206AA1
:10031000401C20626D1EF6D570BD70B50C460546BA
:10032000012A05D02878800600D5EA69002302E07A
:10033000012305E05B1C934202D2E05C0028F9D166
:10034000A869E618C01AA861286A184428622846D5
:10035000FFF7BCFF04E0D5E9012114F8010B904739
:10036000B442F8D32846FFF7C7FF70BD2DE9F0412E
:100370000646002410687529314616A510D0AFF343
:100380000080002802DA404213A507E031688A079E
:1003900001D512A502E0490704D511A5012401E009
:1003A000AFF3008000210A2206F1240709E0B0FB28
:1003B000F2FCB0FBF2F302FB1C003030785418461C
:1003C000491C0028F3D123462A463046BDE8F041B7
:1003D00000F02CB9000000002D0000002B000000F0
:1003E00020000000F0B40D460188090502D5214C1B
:1003F0007C4402E01F4C7C440E34002100F12406B2
:1004000008E002F00F071209E75D42EA03721B09D8
:100410007754491C52EA0307F3D1027800231207EC
:1004200004D5702D06D009B1022311342246F0BC48
:1004300000F0FCB801231034F8E770B504460D460F
:1004400021461068AFF30080024629462046BDE8E9
:1004500070400023C6E7D21D22F00703D3E9002332
:10046000C0E70368126843F0200303600823C361F8
:100470000023B7E7E24400002DE9F05F8946044617
:100480004FF0000ADFF874B1FB44C0F820A020460A
:10049000E1688847002874D0252806D0D4E90121D6
:1004A0009047206A401C2062F1E700265F46204604
:1004B000E16888472028054607DB312D05D27819E9
:1004C00010F8200C08B10643F1E7B00701D526F07B
:1004D0000406C4F81CA00027C4F818A02A2D09D0CF
:1004E000284602F0DCF938B304EB8708303DC8F841
:1004F000185019E059F8041B204604EB870291615B
:10050000E1688847012F054618D1E069002820DA04
:1005100026F020061DE0D8F8180000EB800005EB5F
:1005200040003038C8F818002046E1688847054682
:1005300002F0B5F90028EED1012F0AD02E2D08D1F6
:100540002046E16888477F1C0546022F46F02006BA
:10055000C4DBA069002803DA404246F00106A0612E
:10056000F00701D026F010066C2D0BD0682D09D0B5
:100570004C2D39D06A2D35D0742D35D07A2D33D00D
:1005800016E038E0E1682F4620468847B842054625
:1005900009D16C2F26D04FF48060E16806432046D5
:1005A0008847054604E06C2F1AD04FF4807006434C
:1005B0000DB3A5F14100192802D8203546F4006694
:1005C0004A462946204626604E46FFF70BFE80B17C
:1005D00001280BD0F61D26F0070000F1080956E7A8
:1005E0004020E4E78020D8E70020D6E706F10409A0
:1005F0004DE7284652E7206ABDE8F09F72440000AC
:1006000030B505460B462A4613F8014B12F8010B8C
:1006100008B1A042F8D01CB1002802D06D1CF1E74F
:10062000284630BD70477047704770472DE9F04746
:100630000D4699469246044600F124080168880652
:1006400004D5E06921F01001216000E00120A842FA
:1006500001DD471B00E00027A1697A1902EB0900C0
:10066000081AA0612078C00602D42046FFF72EFEAB
:10067000002608E0D4E901211AF806009047206A14
:10068000401C761C20624E45F4DB2078C0060AD55B
:100690002046FFF71BFE06E0D4E9012130209047F9
:1006A000206A401C2062381EA7F10107F4DC07E035
:1006B000D4E9012118F805009047206A401C206207
:1006C000281EA5F10105F3DC2046FFF715FE207872
:1006D000000602D50220BDE8F0870120FBE7704745
:1006E0002DE9FF4F0C461E464FF0FF378BB0D2E985
:1006F0000001DDF860800A908A46C1F30A5505B909
:100700003D46002108464FF00000BAF1000F00F40A
:10071000400005DA00EB80004FF4400101EA500090
:100720004FEA9059B9F1010F00DDB9460A9850EA35
:100730004A000ED044F61050A5F2FF3545432F1461
:10074000B8F1000F1ED07542291E1EDDC9F100024E
:100750001CE0B8F1010F4FF0000001D0302103E0A0
:10076000F24305E02154401CB042FBDB304600223E
:10077000002121540B99C1F80880C1E900200FB075
:10078000BDE8F08FBD1B6D1CDEE74A4600DA69420A
:1007900006A800F083FA06AB93E8070003AB83E8F2
:1007A000070050460A9900F061FB8DE80700A0F5AC
:1007B00000501F3800900398002D0ADD42F21F01FF
:1007C0004A460844002303A90390684600F0CAFD86
:1007D00009E0A0F500504A461F38002303A9039002
:1007E000684600F0D4FD8DE807000004000C03D03B
:1007F0004FF0FF30410800E01046B8F1000F03D081
:100800000022009215461EE0751E05D400F0C0F9C6
:10081000303262556D1EF9D5B3460122084302D02D
:1008200000227F1C04E02078302801D100227F1EA6
:10083000002A099784D01DE0112D07DA00F0A8F9ED
:10084000303262556D1C50EA0102F5D1084302D0E6
:100850000098C8B10EE00021681E05E0235C625CD0
:1008600063542254401E491C8142F7DBAB46A81B4F
:10087000401E0990002004F80B000B98099AC0F85C
:100880000880C0E9002B7AE711264FF0000857E7EF
:100890002DE9F04F88460446D21D22F0070191B0A1
:1008A000D1E90001CDE90A0101F0E5FF02460B980C
:1008B000C00F01D02D2007E02068810701D52B2033
:1008C00002E0202101EAC000032A099001D0072A92
:1008D00005DB03464146204600F0A0F90BE12078F5
:1008E000800601D5E06900E00620B8F1650F814679
:1008F00006D0B8F1660F18D0B8F1670F70D131E0AB
:100900000020B9F1110F009001DB112301E009F182
:1009100001030AAA01A90CA8FFF7E2FEDDE90C70A9
:10092000002609F10105834647E001204B4600906F
:100930004FF000470AAA01A90CA8FFF7D1FEDDE994
:100940000DB00C995D46002610B909F101000D1893
:10095000B9EB050003D4C0F1FF3609F10105A5EBA1
:1009600009002BE0B9F1010F01DA4FF00109002075
:10097000B9F1110F0090484601DD112300E0034654
:100980000AAA01A90CA8FFF7ABFEDDE90C704D46E1
:1009900000268346207800070AD4AB4500DA5D467E
:1009A00001A8012D04DD411911F8011C302907D0DF
:1009B0004F4502DA17F1040F04DA012082460FE0F6
:1009C0006D1EEEE7002F02DCED1B3E4403E0781CB9
:1009D000A84200DD7D1CB81B00F1010A4FF0004762
:1009E0002078000703D4AA4501DB4FF0FF3A00212D
:1009F000B7F1004F0DF143088DF8431024D00220C9
:100A00002B23002F01DA7F422D230A21021EA0F1A1
:100A1000010000DC5FB197FBF1FC97FBF1F201FBF9
:100A20001C7C17460CF1300C08F801CDEEE7A8F15C
:100A3000010003702188090501D5452100E06521E9
:100A4000A0F1010800F8011C09980FA9A1EB080703
:100A5000FF1D00B10120411901EBEA70A169384482
:100A6000081A401EA0612078C00602D42046FFF775
:100A70002DFC099828B1D4E901219047206A401C37
:100A800020622078C00622D52046FFF71FFC1EE01A
:100A9000002E04DBB34502DD01A8805D00E03020BC
:100AA000D4E901219047206A401C2062761CAAF1FB
:100AB00001005FEA000A0AD100F066F8C068016828
:100AC000405CD4E901219047206A401C2062281E26
:100AD000A5F10105DCDC07E0D4E9012118F8010BE0
:100AE0009047206A401C2062381EA7F10107F3DC02
:100AF0002046FFF701FC032011B041E601694A1CC2
:100B000002610878704700B58FB0CDE9013100214E
:100B1000059105497944CDE9031011466846FFF770
:100B2000ABFC0FB000BD0000E5FFFFFF0A6802F854
:100B3000010B0A60704710B5436913B1AFF3008031
:100B400001E0FFF7EAFB012010BD127800F124015B
:100B50000A7000224A700122EDE711684FF0FF325F
:100B6000E9E70000074B70B50D467B44FFF7CBFF6C
:100B70000446284600F004F910B14FF0FF3070BD74
:100B8000204670BDB31D000000487047E8080020F3
:100B900030B5B0F10A024FEA900E71F100034EEA4F
:100BA000817EB0EB0E0061EB91014FEA101E4EEA20
:100BB000017E10EB0E0041EB11114FEA102E4EEAB0
:100BC000016E10EB0E0041EB11214FEA104E4EEA80
:100BD000014E10EB0E0041EB1141401841F10001B4
:100BE0004FEAD00040EA41704FEAD10110EB800596
:100BF0004FEA810444EA907444EB01046D1944EB1C
:100C00000404521BA3414FF0000348BF0A3200D531
:100C100030BD401C41F1000130BD00002DE9F04124
:100C20001F46044603260168072A01F4006004DB1E
:100C300008B116A505E016A503E008B115A500E06A
:100C400015A521F010002060A069C01EA0610FB1A1
:100C5000401EA0612046FFF739FB4FB1D4E90121C6
:100C600038469047206A401C2062C01C206206E083
:100C7000206AFAE7D4E9012115F8010B9047761EA6
:100C8000F8D22046FFF738FBBDE8F0814E414E0018
:100C90006E616E00494E4600696E66002DE9F047B0
:100CA000814616468AB0354878440DC88DE80D0057
:100CB00032487844801C03AC0DC884E80D0041F62E
:100CC0009B300844372190FBF1F290FBF1F5A5F140
:100CD000800501FB12041B3C02D56442012000E0A8
:100CE0000020DFF898A080460027FA44AAF1BE0A47
:100CF0000EE0E0070AD03246684607EB47010123C1
:100D00000AEB810100F043FB8DE8070064107F1CB3
:100D1000002CEED1194F7F44AE3F19E0E80715D003
:100D200007EB04100DF1180A90E80E008AE80E0097
:100D3000C068F04201D1981908903246012306A9F3
:100D400003A800F024FB03AB83E807006D10641CCC
:100D5000002DE3D14FF0010332466946B8F1000F90
:100D600003A802D000F0FEFA01E000F010FBC9E990
:100D70000001C9F808200AB0BDE8F087E03C000097
:100D8000007B00F08000704700487047C8080020D2
:100D90007546FFF7F9FFAE4605006946534620F059
:100DA0000700854618B020B5FFF75AFABDE8204085
:100DB0004FF000064FF000074FF000084FF0000B17
:100DC00021F00701AC46ACE8C009ACE8C009ACE8CA
:100DD000C009ACE8C0098D46704710B50446AFF3B2
:100DE00000802046BDE81040FFF725BA4FF0013CD7
:100DF00050F8042B51F8043B9A4221D1A2EB0C038A
:100E0000934313EACC1317D150F8042B51F8043B49
:100E10009A4215D1A2EB0C03934313EACC130BD1E6
:100E200050F8042B51F8043B9A4209D1A2EB0C0371
:100E3000934313EACC13DBD04FF00000704700BFA0
:100E4000D01A01BAB1FA81F101F0180122FA01F0C9
:100E5000CB40C1F12001DBB2C0B2C01A2CFA01F3C1
:100E6000D11A914311EAC311E6D170475FEA400CF1
:100E700008BF91F0000F4FEA8C234FEAC12243EAEA
:100E800051514FEA1C5018BF00F5F0404FEA3000B6
:100E900018BF41F000415FEA6C5C00F02980BCF1B2
:100EA000FF3F08BF40F080407047130C06BF12049C
:100EB0004FF0100C4FF0000C130E04BF12020CF197
:100EC000080C130F04BF12010CF1040C930F04BFA4
:100ED00092000CF1020CD30F04BF52000CF1010C74
:100EE00011464FF00002A0F11F00A0EB0C0070476C
:100EF00011F0004F08BF704731F000413FF4D5AF0B
:100F00000B0C06BF09044FF0100C4FF0000C0B0E39
:100F100004BF09020CF1080C0B0F04BF09010CF10E
:100F2000040C8B0F04BF89000CF1020CCB0F04BF23
:100F300049000CF1010CCCF12003A0EB0C0022FACB
:100F400003F302FA0CF241EA030100F101007047D9
:100F500020F07F4C80EA030023F07F47ACEB0703CF
:100F600003F57C5300F0004003F1FF032DE98049B5
:100F70004FEA154B09B44FEA144325EA0B4E24EA15
:100F800003480FF2042606EB132749083E785FEA70
:100F9000320203FB0667C7F5000707FB06F64FEAB8
:100FA00054374FEAD64606F1020607FB066CCCF131
:100FB000005C4FEA1C472CEA074C07FB06F40CFBCD
:100FC00006F504EB15464FEA961634BF00204FF0A5
:100FD00000404FEAD13706FB07FC4FEA1C4C0CFBE4
:100FE0000BF7D21B03FB0CF761EB07010CFB0EF7B1
:100FF000B0EB074072EB17420CFB08F734BFA2EBD3
:101000000742B2EB074261EB17414FEA0C444FEA4B
:10101000910706FB07FC4FEA1C4C0CFB0BF7B0EBEF
:10102000C74072EB573203FB0CF734BFA2EBC74249
:10103000B2EBC74261EB57310CFB0EF7B0EBC700C8
:1010400072EB57720CFB08F734BFA2EBC702B2EB8E
:10105000C70261EB5771039F4FEA816141EA921128
:1010600004EBCC044FEAD1374FEA826206FB07FC5F
:1010700042EA90124FEA80604FEA1C4C0CFB0BF7DF
:10108000D21B03FB0CF761EB07010CFB0EF7B0EB77
:10109000074072EB17420CFB08F734BFA2EB074284
:1010A000B2EB074261EB17414FEA8C554FEA9107CB
:1010B00004EB9C2406FB07FC4FEA1C4C0CFB0BF7D3
:1010C000B0EBC74072EB573203FB0CF734BFA2EB17
:1010D000C742B2EBC74261EB57310CFB0EF7B0EBE6
:1010E000C70072EB57720CFB08F734BFA2EBC702C4
:1010F000B2EBC70261EB577115EB4C254FEA8161EA
:1011000041EA92114FEA82624FEAD13742EA9012E5
:1011100006FB07FC44F100044FEA80604FEA1C4CD8
:101120000CFB0BF7D21B03FB0CF761EB07010CFB6D
:101130000EF7B0EB074072EB17420CFB08F734BF19
:10114000A2EB0742B2EB074261EB174115EB1C150E
:101150004FEA813141EA92414FEA823242EA9042BB
:101160004FEA80304FEA0C7644F1000448EA03432A
:101170004EEA0B484FF0000EB2EB080C71EB030780
:1011800024BF624639464EEB0E0E4FF0000B00189E
:10119000524149414BEB0B0BB2EB080C71EB0307CF
:1011A0007BF1000B24BF624639464EEB0E0E4FF02A
:1011B000000B0018524149414BEB0B0BB2EB080CF2
:1011C00071EB03077BF1000B24BF624639464EEBFF
:1011D0000E0E51EA020718BF46F0010616EB0E7616
:1011E00055F1000254F1000103D5BDE88901BDE8C5
:1011F0000088BDE88901BDE80048B619524141EBBD
:101200000101A3F10103704780807F7E7D7C7B7AA2
:101210007978777676757473727171706F6E6E6DA2
:101220006C6C6B6A6A696868676666656464636348
:1012300062616160605F5F5E5E5D5D5C5C5B5B5ACE
:101240005A5959585857575656555555545453533B
:1012500052525251515050504F4F4F4E4E4D4D4D96
:101260004C4C4C4B4B4B4A4A4A49494948484847E1
:10127000474747464646454545444444444343431F
:101280004342424242414141002B9C4630D47700C8
:101290002BD01CB54FEA370703B44FF010004FF0C6
:1012A0001001BAF1000F06D0BCF1000FDCBF40F016
:1012B000080040F008014FF000000FBCBDE81040EE
:1012C0000BF1010BBBF1010F08BF5FEA170722BF4B
:1012D00012F1010211F101014FF0004143F100034D
:1012E00000F0004043EA00007047F9D35708D0E708
:1012F00046EA064613F1400F4FEA16461FDD13F18A
:10130000200FDFBF16430A46002120335B42BED0C8
:10131000C3F1200746EA064602FA07F74FEA1646E7
:1013200046EA0706C3F1200722FA03F201FA07F79B
:1013300021FA03F14FF0000342EA0702A7E746EA69
:10134000020646EA06464FEA164646EA0106BCBFD2
:1013500046EA0646360C4FF000034FF000024FF00D
:10136000000194E72DE9804C9A46934670B491E8C9
:10137000380007C831EA400C48BF34EA430C03D5B3
:10138000FFF7E6FDFFF780FFF0BCBDE8008C2DE91C
:10139000804C9A46934670B491E8380007C810F024
:1013A000804F08BF13F0804F03D100F005F8FFF71E
:1013B0006BFFF0BCBDE8008C20F07F4780EA0300A3
:1013C00023F07F4C07EB0C03A3F57C5300F00040A7
:1013D000A3F1FE0392F0000F00F0B38095F0000F30
:1013E00000F077802DE901494FEA11404FEA144699
:1013F00021EA004800FB06FC24EA064708FB06F643
:1014000007FB08F800FB07F718EB06484CEB164CF7
:101410004FEA124B18EB07484FEA15464CEB1740C2
:1014200022EA0B4E0BFB06FC25EA06470EFB06F6EE
:1014300007FB0EFE0BFB07F71EEB064E4CEB164CA4
:101440004FF000061EEB074E4CEB174B18EB0B084A
:1014500040F1000018EB0E0B58EB000840F10000C3
:101460008F1A4FF000013CBFC943661B14BFB5EB98
:10147000040C00213CBFC943F61B4FEA17444EEA57
:101480008E0E27EA04454FEA1C4704FB07622CEA4C
:10149000074C05FB07F70CFB05F604FB0CFC16EBF1
:1014A000074642EB174216EB0C4642EB1C421BEB85
:1014B000060658EB0202414146EA9E0601D5BDE808
:1014C0000189B619524141EB0101A3F10103BDE8C5
:1014D00001894FEA14454FEA114724EA054621EAFB
:1014E000074C05FB07F406FB07F70CFB06F105FBB1
:1014F0000CFC11EB074144EB17444FEA124711EB88
:101500000C4144EB1C4422EA074C05FB07F206FBA6
:1015100007F70CFB06F605FB0CFC16EB074642EB47
:10152000174216EB0C4642EB1C456A1854F10001B9
:1015300048BF7047B619524141EB0101A3F10103C5
:10154000704795F0000F37D04FEA11424FEA144729
:1015500021EA024624EA074C02FB07F106FB07F7E3
:101560000CFB06F402FB0CFC14EB074441EB1741A7
:101570004FEA154714EB0C4441EB1C4125EA074C9C
:1015800002FB07F506FB07F70CFB06F602FB0CFC5B
:1015900016EB074645EB174516EB0C4645EB1C4290
:1015A000121951F1000148BF7047B619524141EB81
:1015B0000101A3F1010370474FEA14454FEA1147B7
:1015C00024EA054621EA074C05FB07F106FB07F76D
:1015D0000CFB06F24FF0000605FB0CFC12EB074279
:1015E00041EB174112EB0C4251EB1C4148BF7047D5
:1015F000921841EB0101A3F101037047FEE7704728
:10160000F8B50121082000F0BBFD40F20345ADF81C
:10161000005010241D4F8DF8034003268DF8026002
:101620006946384600F036F82946384600F080F81A
:10163000A501ADF800508DF803406946384600F02A
:1016400029F82946384600F073F80121042000F0FB
:1016500097FDB020ADF800000D4D8DF803408DF8DA
:1016600002606946284600F015F8B021384600F0BF
:101670005FF8ADF800408DF803406946284600F059
:1016800009F81021284600F053F8F8BD000C01407D
:1016900000080140F0B5CC78002204F00F03E40606
:1016A00001D58C7823430C784FF00F0C14F0FF0F0A
:1016B0004FF0010E1BD005680E880EFA02F426408A
:1016C000A64210D196000CFA06F725EA070703FA9E
:1016D00006F5CE783D43282E02D0482E02D002E0F7
:1016E000446100E00461521C082AE5D305600A88C1
:1016F000FF2A1CD94468002202F108060EFA06F5FA
:101700000E882E40AE420ED196000CFA06F7BC436E
:1017100003FA06F7CE783C43282E00D14561CE78F7
:10172000482E00D10561521C082AE5D34460F0BD63
:10173000416170470161704770B50C46054600F085
:1017400053FB2146284600F025F92146284600F0A3
:10175000AFF92146284600F0DBF92146284600F083
:1017600027FA21462846BDE8704000F017BB00006C
:1017700038B5454CD4F88600823402F049FB434D1D
:10178000294602F04BFA02F0BBF9227A0092024697
:101790000B463FA104F12400FEF782FD102342A274
:1017A0000221122000F0BEFC54F8010C02F030FBC4
:1017B000294602F033FA02F0A3F9E27800920246D9
:1017C0000B463AA104F12400FEF76AFDD4F81E008E
:1017D00002F006FB3B4902F021FA02F091F90246C1
:1017E0000B4639A104F12400FEF75AFD608C02F08B
:1017F0000FFB3A4902F012FA02F082F902460B4658
:1018000037A104F12400FEF74BFDE07D823C032864
:1018100007D8384951F8202037A104F1A600FEF777
:101820003FFD194894F88C2036A1A6306E34FEF79F
:1018300037FD14F86E0C6425B0FBF5F105FB1102C1
:10184000114837A1A630FEF72BFD14F86D0CB0FB44
:10185000F5F105FB11020C4838A1A630FEF720FD7A
:10186000E07B00900848A37BA2893BA1A630FEF74D
:1018700017FDA07C00900448637C227C3DA1A6302B
:10188000FEF70EFD38BD0000760200200050C34771
:101890004C6F6E6769747564653A252E3566202530
:1018A0003163202020000000363600004C6174694E
:1018B000747564653A252E35662025316320202015
:1018C0000000000000002041416C7469747564657B
:1018D0003A252E31666D20202020200000007A4419
:1018E00053706565643A252E33666B6D2F68202032
:1018F0002020200000000020466978204D6F64659C
:101900003A2573004750532B42442056616C69645A
:1019100020736174656C6C6974653A2530326400BB
:101920004750532056697369626C65207361746512
:101930006C6C6974653A253032640000424420566C
:10194000697369626C6520736174656C6C69746538
:101950003A253032640000005554432044617465D8
:101960003A253034642F253032642F2530326420FC
:10197000202000005554432054696D653A253032CB
:10198000643A253032643A25303264202020000049
:10199000FEE7FEE72DE9F84F0D468146002737A107
:1019A0002846FEF72DFE0446C0790321303800F0AA
:1019B000FF0B204600F066F8FF2805D0204469465A
:1019C00000F08EFA89F801004FF0000851E02BA1D9
:1019D0002846FEF715FE054600244FF0040A0AEBE0
:1019E0008400C1B2284600F04DF8FF283CD02844BE
:1019F000694600F075FA07EB870202EB090686F8E4
:101A00003E00052000EB8400C1B2284600F03AF801
:101A1000FF2829D02844694600F062FA86F83F0082
:101A2000062000EB8400C1B2284600F02BF8FF2806
:101A30001AD02844694600F053FAA6F8400007205F
:101A400000EB8400C1B2284600F01CF8FF280BD040
:101A50002844694600F044FA7F1C641CE4B286F80E
:101A60004200FFB2042CBAD308F1010202F0FF08D1
:101A70006D1CD845ABD3BDE8F88F00002442444725
:101A80005356000003460DE002782A2A03D0202A8C
:101A900001D37A2A01D9FF2070472C2A01D1491E8F
:101AA000C9B2401C0029EFD1C01AC0B27047000073
:101AB00038B50A46054614A11046FEF7A1FD0446B6
:101AC0000621FFF7DFFFFF2805D02044694600F01C
:101AD00007FA85F88B0007212046FFF7D3FFFF2880
:101AE00005D02044694600F0FBF985F88C000921F7
:101AF0002046FFF7C7FFFF2805D02044694600F0C5
:101B0000EFF9C5F8A00038BD24474E474741000013
:101B1000F8B50A46064624A11046FEF771FD0546B3
:101B20000221FFF7AFFFFF2805D02844694600F0E7
:101B3000D7F986F899000024E01CC1B22846FFF7C7
:101B4000A1FFFF280AD02844694600F0C9F93119DD
:101B5000641CE4B281F88D000C2CEDD30F212846D3
:101B6000FFF790FFFF2805D02844694600F0B8F938
:101B7000A6F89A0010212846FFF784FFFF2805D019
:101B80002844694600F0ACF9A6F89C0011212846CB
:101B9000FFF778FFFF2805D02844694600F0A0F938
:101BA000A6F89E00F8BD000024474E4753410000B0
:101BB0002DE9F8430A46044675A11046FEF720FDBC
:101BC00005460121FFF75EFF42F210764FF06408F0
:101BD000FF281ED02844694600F082F907469DF888
:101BE00000100A2000F074F9B7FBF0F0B0FBF6F13A
:101BF00084F87E104146B0FBF1F2B2FBF1F308FB32
:101C0000132284F87F20B0FBF8F208FB120084F85E
:101C1000800003212846FFF735FFDFF87C91FF287D
:101C20003ED02844694600F05BF907469DF8000065
:101C3000801CC1B20A2000F04BF9B7FBF0F044F869
:101C4000810F9DF80000801CC1B20A2000F040F90D
:101C50000146B7FBF1F200FB127002F0D9F807461B
:101C60009DF80000C0F10500C1B20A2000F030F973
:101C700002F0CEF8394602F0DFF8494601F0CEFF17
:101C8000074605210A2000F023F92168484302F0A5
:101C9000BFF8394601F060FF02F082F844F881098C
:101CA00004212846FFF7EEFEFF2802D0285C84F8C6
:101CB000850005212846FFF7E5FEFF283ED0284491
:101CC000694600F00DF907469DF80000801CC1B27E
:101CD0000A2000F0FDF8B7FBF0F044F8860F9DF8FD
:101CE0000000801CC1B20A2000F0F2F80146B7FBE8
:101CF000F1F200FB127002F08BF807469DF800002D
:101D0000C0F10500C1B20A2000F0E2F802F080F84C
:101D1000394602F091F8494601F080FF0746052157
:101D20000A2000F0D5F82168484302F071F83946DE
:101D300001F012FF02F034F844F886090621284623
:101D4000FFF7A0FEFF2802D0285C84F88A00092152
:101D50002846FFF797FEFF2818D02844694600F070
:101D6000BFF8B0FBF6F184F87D104146B0FBF1F20C
:101D7000B2FBF1F308FB132284F87C20B0FBF8F2ED
:101D800008FB120000F5FA60A4F87A00BDE8F883B9
:101D900024474E524D4300000000704238B50A46B9
:101DA00004460FA11046FEF72BFC05460721FFF75E
:101DB00069FEFF2813D02844694600F091F8A4F882
:101DC000A4009DF80000032809D2C0F10300C1B2AD
:101DD0000A2000F07DF834F8A41F4843208038BD65
:101DE00024474E56544700002DE9F84F0D468146D2
:101DF000002735A12846FEF703FC0446C0790321DD
:101E0000303800F0FF0B2046FFF73CFEFF2805D0DE
:101E10002044694600F064F889F800004FF000089B
:101E20004DE029A12846FEF7EBFB054600244FF0C4
:101E3000040A0AEB8400C1B22846FFF723FEFF28FC
:101E400038D02844694600F04BF807EB870202EBD4
:101E50000906B070052000EB8400C1B22846FFF7E8
:101E600011FEFF2826D02844694600F039F8F070AA
:101E7000062000EB8400C1B22846FFF703FEFF28CE
:101E800018D02844694600F02BF8B080072000EBFA
:101E90008400C1B22846FFF7F5FDFF280AD0284488
:101EA000694600F01DF87F1C641CE4B2B071FFB2FB
:101EB000042CBED308F1010202F0FF086D1CD845C6
:101EC000AFD3BDE8F88F00002447504753560000B9
:101ED0000346012000E05843491EC9B2FBD27047B7
:101EE0002DE9F04F4FF0000A8B468046D14656460A
:101EF0005446554601782D2902D145F00205401C73
:101F000001782C2908D02A2906D02E290AD0303968
:101F10000A290AD300263446A80701D508F101088A
:101F2000002718E045F00105401CE90702D0641CB9
:101F3000E4B201E0761CF6B2401CDBE7F01B401E69
:101F4000C1B20A20FFF7C4FF18F80710303900FBB0
:101F500001AA7F1CFFB2B742F0D3052C00D905249B
:101F60008BF8004000270EE0E01B401EC1B20A20A3
:101F7000FFF7AEFFF21902EB08014978303900FB98
:101F800001997F1CFFB2A742EED321460A20FFF73A
:101F90009FFF0AFB0090A90700D54042BDE8F08FE3
:101FA0007047000030B50F23C27801780125F2B1E7
:101FB000144A126801F1E02102F4E062C2F5E06225
:101FC000120AC2F10404D3404278A24084781C4033
:101FD0001443220181F80024007800F01F018D4095
:101FE0004009800000F1E020C0F8005130BD01F050
:101FF0001F0085404809800000F1E020C0F88051B2
:1020000030BD00000CED00E00249084302490860C1
:10201000704700000000FA050CED00E070B5134EAB
:1020200002213046FFF784FB31153046FFF782FB73
:10203000002505F1B00000F02FFD002000F02CFD80
:10204000102000F029FD0024002000F059FD641C40
:10205000E4B2802CF8D36D1CEDB2082DE9D33046E4
:10206000BDE870400221FFF765BB0000000C014095
:1020700010B50A460446002102F1B00000F06DF8E8
:10208000102040EA1410002100F067F804F00F005F
:10209000BDE81040002100F060B800002DE9F041DB
:1020A000203A00240F468046D5B27F2803D900206D
:1020B0008F1C8046FFB2102B394610D0FFF7D8FF97
:1020C000164905EB450001EB40050121285D00F0B4
:1020D00044F8641CE4B2062CF7D3BDE8F081FFF7A6
:1020E000C7FF0F4E04EB05100121305C00F035F8FE
:1020F000641CE4B2082CF5D37F1CF9B24046FFF70C
:10210000B7FF002404EB051030440121007A00F0F1
:1021100024F8641CE4B2082CF4D3DEE7BE400008C7
:10212000E64200082DE9F041984617460E4604465F
:1021300000250DE0434631462046FFF7AFFF083447
:10214000E4B2782C02D90024B61CF6B26D1CEDB2B4
:102150007A5D002AEED1BDE8F08109B100F0D0BC73
:1021600000F09ABC70470000044A0029D16901D0F0
:10217000014300E08143D16170470000001002403C
:10218000044A0029916901D0014300E08143916133
:10219000704700000010024030B5204A5168204BC3
:1021A00011F00C0103D0042901D0082901D00360EB
:1021B00012E05168536801F470114FF0020413F4F7
:1021C000803F04EB914102D053689B0301D5154B2E
:1021D00000E0134B5943016051680F2303EA1111CA
:1021E000114B5C5C0168E14041605468072505EAD9
:1021F00014241C5D21FA04F48460546805EAD42494
:102200001B5DD940C1605268032303EA9232064B3A
:102210001B1F9A5CB1FBF2F1016130BD001002405E
:1022200000127A0000093D003400002070470000D1
:102230000CB50022264800920192016841F48031D9
:1022400001604FF4A063016801F40031019100992D
:10225000491C0091019911B900999942F3D1016883
:10226000890333D5012101911A490A6842F010020D
:102270000A600A6822F003020A600A6842F0020259
:102280000A604168416041684160416841F4806191
:102290004160416821F47C114160416841F4E811DA
:1022A0004160016841F08071016001688901FCD5DD
:1022B000416821F003014160416841F00201416041
:1022C0004168C1F381010229FAD10CBD01920CBD14
:1022D000001002400020024070B500242546144E34
:1022E00004E0641CA4B2052000F000FB3088000468
:1022F00002D4642CF5D316E0642C14D2308800216B
:10230000C0F30E020B4B06E0585C832805D08428EE
:1023100007D0491C89B29142F6D3914204D10225DB
:1023200002E00325F9E7012500203080284670BD32
:10233000240000204E0300200146104810B54AF248
:10234000A01202804FF480624280052202710022B6
:10235000427181710121C171817981F004010172A1
:1023600040F60D21A0F809100B2100F04FF8C8200D
:1023700000F0BCFABDE81040FFF7AEBF4E030020EE
:1023800001460D4810B54AF2A01202804FF4407287
:1023900042800E220271417101218171417981F0E7
:1023A0000F01C17140F60D2101810A2100F02EF8C4
:1023B000BDE81040FFF790BF4E03002001461248D1
:1023C00010B54AF2A01202804FF4E062428065220A
:1023D0000271012209BA4271C0F8061082720A0C19
:1023E00082EA116282F0640282EA11224A4082F09B
:1023F0000101C17240F60D2181810E2100F006F825
:10240000BDE81040FFF768BF4E03002030B5074B12
:1024100000221D1D06E01C886406FCD5845C2C800F
:10242000521C92B28A42F6D330BD000000480040F0
:102430004FF0E0210428086903D020F0040008616F
:10244000704740F00400FAE7704700000F4810B5ED
:10245000016841F00101016041680D4A114041608D
:1024600001680C4A11400160016821F4802101607B
:10247000416821F4FE0141604FF41F018160FFF7C4
:10248000D7FE05494FF00060086010BD0010024003
:102490000000FFF8FFFFF6FE08ED00E010B50B4C62
:1024A0000121204600F04DF800280ED00848018890
:1024B00041F4004101800121204600F02CF8204623
:1024C000BDE81040002100F029B810BD0004004014
:1024D0002400002010B50C4C0121204600F031F8FA
:1024E00001280AD10948016988470021204600F0E7
:1024F0003EF86421204600F038F82046BDE8104040
:10250000012100F008B80000000800408800002009
:10251000C94301827047C94301827047002901887D
:1025200002D041F0010101E021F00101018070477A
:10253000808C704702460020128A0A4200D0012097
:10254000704702460020138A92890B4202EA010278
:1025500002D0002A00D001207047002A828901D0D1
:102560000A4300E08A4382817047818570478184F5
:102570007047000030B502881B4C1C4DA0420DD0A6
:10258000A8420BD0B0F1804F08D0194B984205D02B
:10259000184B984202D0184B984203D122F0700396
:1025A0004A881A43154B984206D0154B984203D0DF
:1025B00022F44073CA881A4302808A8882850A8876
:1025C0000285A0420AD0A84208D00E4A904205D007
:1025D0000D4A904202D00D4A904201D1097A0186FB
:1025E0000121818230BD0000002C014000340140F7
:1025F0000004004000080040000C004000100040B3
:1026000000140040004001400044014000480140E7
:102610007FB50D46044601210420FFF7A5FDADF866
:1026200004400020ADF80050104CADF80600ADF8A5
:10263000020069462046FFF79DFF01224121204606
:10264000FFF78BFF1E218DF80C1003218DF80D1064
:102650008DF80E1001208DF80F0003A8FFF7A2FCE3
:1026600001212046FFF75AFF7FBD0000000800400F
:1026700070B5154C40F22551204600F069F800284D
:102680000ED0204600F0F2F8104AC1B210880304C0
:1026900006D444044FF0000306D50A2901D0138064
:1026A00070BD40F400400DE00D2909D0C0F30D04C9
:1026B000074D401C80B229551080C728EFD870BD47
:1026C00040F48040108070BD003801402A00002096
:1026D000FE07002070B5154C40F22551204600F051
:1026E00037F800281CD0204600F0C0F8104CC5B2C6
:1026F0002088000414D42088B0F5167F11D20D4E26
:1027000000213046FFF733FF208818B901213046F9
:10271000FFF704FF208808490144401C20800D7009
:1027200070BD208840F40040208070BD004800400B
:1027300024000020001400404E030020002981895D
:1027400002D041F4005101E021F400518181704731
:1027500070B501F01F0501260024C1F3421306FAEB
:1027600005F2012B0FD0022B0FD0838A4FEA1121E3
:102770000088134206FA01F600EA060001D000B113
:102780000124204670BD8389F0E7038AEEE710B587
:10279000C1F3421301F01F040121A140012B07D016
:1027A000022B07D01430002A026805D00A4304E047
:1027B0000C30F8E71030F6E78A43026010BD0000E5
:1027C00030B50446008A85B00D464CF6FF710840CE
:1027D000E98801432182A0894EF6F3110840A988B7
:1027E0002A8911436A8902431143A181A08A4FF6C5
:1027F000FF410840A9890143A1826846FFF7CCFC4C
:102800001948844201D1039800E00298A189090483
:1028100000EBC00101EB0010296801D5490000E080
:102820008900B0FBF1F06422B0FBF2F109010B0961
:102830006FF018056B4300EB8300A3891D044FF074
:10284000320306D503EBC000B0FBF2F000F0070046
:1028500005E003EB0010B0FBF2F000F00F000843BE
:10286000208105B030BD0000003801408088C0F3F1
:1028700008007047FEE7490050EAC12018BF042055
:102880004A0D18BF40F0010040F2FF72B2EB515FF9
:1028900008BF40F00200012808BF0520704730380B
:1028A0000A2801D2012070470020704770470000BD
:1028B00010B56FF00400FFF7BBFD09480949006837
:1028C000B0FBF1F00849C0B200EB40020870C2EB67
:1028D000C0104FF6FF7202EAC000488010BD000031
:1028E0001000002000127A00260000200B494988C1
:1028F00048434FF0E021486100238B61086940F0B4
:10290000010008610869C20701D0C003FAD508694F
:1029100020F0010008618B61704700002600002054
:1029200004490A885206FCD5024AC1B2121D118020
:10293000704700000038014010B54FF4C870FFF731
:10294000D5FFFEF75DFE314C02212046FEF7F0FE7A
:1029500021152046FEF7EEFEAE2000F09DF8202067
:1029600000F09AF8102000F097F8B02000F094F8EA
:10297000C82000F091F8002000F08EF8102000F040
:102980008BF8402000F088F8812000F085F8FF20C7
:1029900000F082F8A12000F07FF8A62000F07CF87B
:1029A000A82000F079F83F2000F076F8A42000F08D
:1029B00073F8D32000F070F8002000F06DF8D520F7
:1029C00000F06AF8F02000F067F8D92000F064F811
:1029D000222000F061F8DA2000F05EF8122000F00A
:1029E0005BF8DB2000F058F8202000F055F88D202F
:1029F00000F052F8142000F04FF8AF2000F04CF82F
:102A00002046BDE810400221FEF794BE000C0140B4
:102A10000025FFF74DFF4FF4A060FFF7F5FA4FF4E4
:102A2000E13000F0A1F8FFF787FFFFF7F7FA13484E
:102A3000416848208847DFF84880124F124E002432
:102A400030880104FCD5C0F30E020020414603E0AB
:102A50000B5C3B54401C80B29042F9D309493C5472
:102A600001F1FA00FEF768FEFEF782FE1DB105498E
:102A700006A0FDF709FC3480E2E700008800002092
:102A8000FE0700207C0100202A0000200D0A25738B
:102A90000D0A0000006870472DE9F041164E05460A
:102AA00001213046FEF744FE02213046FEF740FE8B
:102AB000124F002420213846FEF73AFE28064FF038
:102AC0008001384602D5FEF735FE01E0FEF730FE04
:102AD00020213846FEF72EFE00BF6D00641CE4B2D4
:102AE000082CE7D301213046FEF724FE3046BDE82E
:102AF000F0410221FEF71EBE000C0140000801401B
:102B00002DE9F041164E054601213046FEF712FE32
:102B100002213046FEF70CFE124F002420213846D9
:102B2000FEF706FE28064FF08001384602D5FEF774
:102B300001FE01E0FEF7FCFD20213846FEF7FAFD1C
:102B400000BF6D00641CE4B2082CE7D301213046BD
:102B5000FEF7F0FD3046BDE8F0410221FEF7EABD88
:102B6000000C01400008014070B5054686B0012107
:102B700044F20400FFF704FB4FF40070ADF81000BE
:102B800003248DF8124018201D4E8DF8130004A95F
:102B90003046FEF77FFD3015ADF8100004208DF8AB
:102BA000130004A93046FEF775FD25208DF81400AA
:102BB0008DF815408DF8164001208DF8170005A8F6
:102BC000FFF7F0F90020ADF80400ADF80600ADF80D
:102BD0000800ADF80C000C200A4CADF80A00009576
:102BE00069462046FFF7ECFD012240F225512046C0
:102BF000FFF7CDFD01212046FFF7A0FD06B070BD17
:102C0000000801400038014070B594B0064613AB8F
:102C100011AA694600F0D8F9002824D18DF84000A7
:102C20001D4C042514E0206805EBC10113AB40588E
:102C300012AA08A900F0C8F9002814D1694608A80A
:102C400000F0EAFB88B19DF84000401C8DF8400080
:102C5000207D9DF840108842E5D8207D9DF84010E9
:102C600088420ED1042014B070BD9DF848009DF834
:102C70004410884201D90220F5E79DF84000A07574
:102C8000EBE710A9304600F053FA0028EBD19DF88D
:102C9000400060750020E6E7880000202DE9F04143
:102CA0007E4E9AB0B57D307DA8427CD90421306833
:102CB00001EBC50119AB405818AA10A900F084F91E
:102CC00010A977A0FDF7E0FA00240DF1180832E012
:102CD000308B0121A140084217D0222172A0FDF7BC
:102CE000D3FA204600F08CFA811970A02431FDF748
:102CF000CBFA22216CA0FDF7C7FA204600F080FA3B
:102D00003044243048F824000BE0204600F078FAE4
:102D10003044416A48F82410F07D00B364A0FDF708
:102D2000B3FA9DF86000401E844202D062A0FDF715
:102D3000ABFA641CE4B29DF860008442C8D35FA083
:102D4000FDF7A2FA00F0A6FA707D0B2814D2DFE896
:102D500000F0080D31384048525E6B78890058A069
:102D6000DDE7306850F83500804704E0306850F8FF
:102D7000351006988847074600F054FA9DF864001D
:102D800001286ED04FA0FDF77FFA96F8EC000028DE
:102D90000DD0D6F8F0000A21B0FBF1F201FB1202CF
:102DA000B0FBF1F100E002E047A0FDF76DFA1AB0C8
:102DB000BDE8F081306850F83520DDE90601904724
:102DC000D9E7306806AC50F8353094E807009847EA
:102DD000D1E7306806AF50F8354097E80F00A047BC
:102DE000C9E70A980090306806AF50F8354097E878
:102DF0000F00A047BFE7DDE90A01CDE90001306817
:102E000006AF50F8354097E80F00A047B3E70AAB8C
:102E100006AF93E807008DE80700306850F83540AA
:102E200097E80F00A047A6E70AAC06AF94E80F00AA
:102E30008DE80F00306850F8354097E80F00A04744
:102E400099E70BAC06AF94E80F0001AC84E80F00E3
:102E50000A980090306850F8354097E80F00A04776
:102E600089E711E00CAC06AF94E80F0002AC84E8EF
:102E70000F00DDE90A01CDE90001306850F8354066
:102E800097E80F00A04776E7F07D394618B116A005
:102E9000FDF7FAF979E717A0FAE7000088000020AB
:102EA0000D0A25732800000025630000257300002B
:102EB00030582558000000002C00000029000000B8
:102EC000256C75003B0D0A0046756E6374696F6E64
:102ED0002052756E2054696D653A25642E25316443
:102EE0006D730D0A000000003D305825583B0D0A57
:102EF000000000003D256C753B0D0A00F0B5002573
:102F00002E462F462C4603782C2B03D0292B04D099
:102F10001BB103E014B9012600E05CB317B1222B0A
:102F200026D026E0A3F1300CBCF1090F15D9A3F18E
:102F3000610CBCF1050F10D9A3F1410CBCF1050FD8
:102F40000BD9582B09D0782B07D0222B0CD0202B53
:102F50001ED02C2B1CD0FF270CE05EB9612B00D3B8
:102F6000203B01F8013B13E026B901273C460FE066
:102F7000002426B10020087017702846F0BD3CB12F
:102F80005C2B02D16D1CEDB2401C037801F8013BB3
:102F90006D1CEDB2401CB6E730B5002515700AE097
:102FA00001F8014B1478401C641CE4B214709C427C
:102FB00001D3012030BD0478202C01D0002CEFD1AA
:102FC0000D70002030BD00002DE9FF4F002482B0BD
:102FD00089469846A2462746012526462246EB46C4
:102FE000029915E0202810D002F07F03052B0CD2A7
:102FF00002B9802202F07F03042B01D12A280AD1D2
:10300000521C0BF80300D2B201E0852A04D0491CFF
:1030100008780028E6D16AB102F07F0200200BF8A0
:10302000020041A1584600F0F7F938B1012188F8B3
:10303000001000224FF00008029B15E0002088F8E5
:103040000000F6E708F1010000F0FF0813F8010F97
:10305000202801D02A2807D1184600F085F9282811
:1030600002D02A2800D0C2461878282801D000288B
:10307000E8D10299BAF1000F01D05144491C4FF038
:1030800000084346087888B1282804D0292806D0AB
:10309000222810D011E083B9641CE4B20DE063B9BA
:1030A00024B1641E14F0FF0402D00DE04FF00108BB
:1030B000012F27D02FE04BB100234CB12C280CD08E
:1030C000202816D0282814D05AB110E00123F4E7A4
:1030D000202815D009F8010B12E00125521CD2B2AC
:1030E00007E0052E03D20BF80600761CF6B26D1C25
:1030F000EDB2012C04D1022D02D103257F1CFFB2B9
:10310000491CBFE700200BF8060007A1684600F045
:1031100083F900B9002704980770002089F800009F
:1031200006B04046BDE8F08F766F6964000000008D
:103130002DE9F04300248946304DB5B021462246A2
:103140006B18491CC9B29A760A29F9D302E010F823
:10315000011F99B101782829F9D1461C4FF00108C7
:1031600033AA69463046FFF7C9FE06449DF8CC00F5
:1031700040B1012824D0FF2836D10BE0012035B022
:10318000BDE8F0839DF8000070B334A9684600F0F4
:10319000F3F808B10220F2E7204600F031F82844A5
:1031A00034994162298B08FA04F081432983042071
:1031B00029198876641CE4B20A2C15D90320DEE7AD
:1031C000684600F03EF9471C204600F019F8411906
:1031D0006846243100F02CF9298B08FA04F00143E9
:1031E000281929838776E5E73078292801D0002837
:1031F000B6D189F800400020C1E700008800002017
:10320000024610B500200146054B05E05C18491C3C
:10321000A47EC9B22044C0B29142F7D310BD0000D1
:103220008800002070B50B4D01212846FFF782F978
:10323000094C012806D1D4F8F0004FF6FF7108447C
:10324000C4F8F0002846FFF773F954F8F01F08445B
:10325000206070BD000800408800002000EBC00125
:1032600001EB00104FF0FF3101EB800010B581B28F
:103270004FF47A70FFF7CCF901490120C87510BDF1
:10328000880000200346012000E05843491EC9B2CF
:10329000FBD2704710B5094C01212046FFF738F9E1
:1032A0004FF6FF712046FFF760F900212046FFF737
:1032B0005EF903490020C1F8F00010BD000800408D
:1032C000880000202DE9F041164E3088010426D5F3
:1032D0001549C0B2154F00250D54B96812488847EA
:1032E00004000FD0104800F0B5F8012801D0040008
:1032F00014D0012C09D0022C09D0032C09D0042CA5
:103300000CD108E0F868804708E009A004E00BA0B1
:1033100002E00DA000E00FA0FCF7B6FF3580BDE88D
:10332000F08100002A000020FE0700208800002015
:10333000BAAFCAFDB4EDCEF3210D0A00B2CECAFD7C
:10334000B4EDCEF3210D0A00B2CECAFDCCABB6E08F
:10335000210D0A00CEB4D5D2B5BDC6A5C5E4B5C40D
:10336000BAAFCAFD210D0A0010F8011F202901D1B2
:103370000028F9D1C8B270472DE9F04100248846F1
:1033800005460A260C600178A1F13002092A0DD900
:10339000113A052A0AD9582905D011F0FF0F0CD08F
:1033A0000120BDE8F081012C02D0F9E7412900D3CA
:1033B0001026641CE4B2401CE5E7102E01D084B155
:1033C00012E0032C01D20220EBE72878302802D14A
:1033D0006878582801D00320E3E7A41EE4B2AD1CAE
:1033E00001E00420DDE70CB1641EE4B22F7838461A
:1033F000303F092F01D9A0F1370721463046FFF7AA
:1034000041FFD8F8001007FB0011C8F8001015F8AC
:10341000010F0028E7D1C4E702780B789A4201D067
:103420000120704712B1401C491CF5E7002070478D
:1034300002780A700278002A02D0401C491CF7E783
:103440007047002102781AB1491CC9B2401CF9E743
:1034500008467047F0B58DB004461E2308AA694699
:10346000FFF79AFD0990002872D19DF820002718D7
:1034700000253E4C8DF820509DF8200054F8201077
:103480006846FFF7C9FF38B19DF82000401CC0B264
:103490008DF820000728EFD39DF820000426344C37
:1034A000072855D2DFE800F00404395A605F5E0057
:1034B00030A0FCF7E9FE30A0FCF7E6FE3EA0FCF7EA
:1034C000E3FE4DA0FCF7E0FE5BA0FCF7DDFE6AA08A
:1034D000FCF7DAFE78A0FCF7D7FE85A0FCF7D4FE57
:1034E0008AA0FCF7D1FE8FA0FCF7CEFE93A0FCF7DC
:1034F000CBFE98A0FCF7C8FE9DA0FCF7C5FEA3A0DC
:10350000FCF7C2FEAFA0FCF7BFFEBCA0FCF7BCFE00
:10351000C7A0FCF7B9FED3A01BE016A0FCF7B4FED1
:10352000E0A0FCF7B1FE8DF820500BE0216806EB1F
:10353000C0000958EBA0FCF7A7FE9DF82000401C36
:103540008DF82000217D9DF820008142EED84EE2CA
:103550004FE2FCF799FE00200DB0F0BD05A0FCF78E
:1035600093FEC3E124E204E2E3E100004400002012
:10357000880000200D0A00002D2D2D2D2D2D2D2D24
:103580002D2D2D2D2D2D2D2D2D2D2D2D2D2D2D2D6B
:1035900055534D4152542056332E312D2D2D2D2D66
:1035A0002D2D2D2D2D2D2D2D2D2D2D2D2D2D2D2D4B
:1035B0002D2D2D200D0A00002020202055534D4197
:1035C0005254CAC7D3C9414C49454E54454BBFAA72
:1035D000B7A2B5C4D2BBB8F6C1E9C7C9B5C4B4AEC9
:1035E000BFDAB5F7CAD4BBA5BDBBD7E9BCFE2CCDAD
:1035F000A8B9FD200D0A0000CBFC2CC4E3BFC9D242
:10360000D4CDA8B9FDB4AEBFDAD6FACAD6B5F7D3D1
:10361000C3B3CCD0F2C0EFC3E6B5C4C8CEBACEBAFD
:10362000AFCAFD2CB2A2D6B4D0D02ED2F2B4CB2CDD
:10363000C4E3BFC90D0A0000D2D4CBE6D2E2B8FC85
:10364000B8C4BAAFCAFDB5C4CAE4C8EBB2CECAFDAD
:1036500028D6A7B3D6CAFDD7D62831302F3136BDEC
:10366000F8D6C629A1A2D7D6B7FBB4AEA1A2BAAFED
:10367000CAFDC8EB0D0A0000BFDAB5D8D6B7B5C889
:10368000D7F7CEAAB2CECAFD292CB5A5B8F6BAAFE7
:10369000CAFDD7EEB6E0D6A7B3D63130B8F6CAE445
:1036A000C8EBB2CECAFD2CB2A2D6A7B3D6BAAFCA67
:1036B000FDB7B5200D0A0000BBD8D6B5CFD4CABE21
:1036C0002ED0C2D4F6B2CECAFDCFD4CABEBDF8D673
:1036D000C6C9E8D6C3B9A6C4DC2CD0C2D4F6BDF89E
:1036E000D6C6D7AABBBBB9A6C4DC2E0D0A00000003
:1036F000BCBCCAF5D6A7B3D63A7777772E6F70657C
:103700006E6564762E636F6D0D0A000055534D4152
:103710005254D3D037B8F6CFB5CDB3C3FCC1EE3ACF
:103720000D0A00003F3A202020202020BBF1C8A134
:10373000B0EFD6FAD0C5CFA20D0A000068656C7054
:103740003A202020BBF1C8A1B0EFD6FAD0C5CFA255
:103750000D0A00006C6973743A202020BFC9D3C3DE
:10376000B5C4BAAFCAFDC1D0B1ED0D0A0A00000060
:1037700069643A2020202020BFC9D3C3BAAFCAFD54
:10378000B5C44944C1D0B1ED0D0A0A006865783A64
:1037900020202020B2CECAFD3136BDF8D6C6CFD407
:1037A000CABE2CBAF3B8FABFD5B8F12BCAFDD7D62A
:1037B000BCB4D6B4D0D0BDF8D6C6D7AABBBB0D0A10
:1037C0000A0000006465633A20202020B2CECAFDC2
:1037D0003130BDF8D6C6CFD4CABE2CBAF3B8FABFC2
:1037E000D5B8F12BCAFDD7D6BCB4D6B4D0D0BDF86D
:1037F000D6C6D7AABBBB0D0A0A00000072756E744C
:10380000696D653A312CBFAAC6F4BAAFCAFDD4CBF4
:10381000D0D0BCC6CAB13B302CB9D8B1D5BAAFCA2A
:10382000FDD4CBD0D0BCC6CAB13B0D0A0A00000003
:10383000C7EBB0B4D5D5B3CCD0F2B1E0D0B4B8F1C9
:10384000CABDCAE4C8EBBAAFCAFDC3FBBCB0B2CEB6
:10385000CAFDB2A2D2D4BBD8B3B5BCFCBDE1CAF894
:103860002E0D0A002D2D2D2D2D2D2D2D2D2D2D2DF7
:103870002D2D2D2D2D2D2D2D2D2D2D2D2D2D414C45
:1038800049454E54454B2D2D2D2D2D2D2D2D2D2DB6
:103890002D2D2D2D2D2D2D2D2D2D2D2D2D2D2D2065
:1038A0000D0A00002D2D2D2D2D2D2D2D2D2D2D2DE5
:1038B0002D2D2D2D2D2D2D2D2D2D2D2D2DBAAFCA8C
:1038C000FDC7E5B5A52D2D2D2D2D2D2D2D2D2D2D06
:1038D0002D2D2D2D2D2D2D2D2D2D2D2D2D2D2D2D18
:1038E000200D0A0025730D0A0000000042A0FCF71D
:1038F000CBFC8DF8205016E0216806EBC0000BAB26
:1039000008580AAA6946FFF75FFB9DF82010206857
:1039100050F83120694648A0FCF7B6FC9DF820001D
:10392000401C8DF82000217D9DF820008142E3D8C5
:103930005DE0AFF2C030FCF7A7FC08AA6946384644
:10394000FFF7DCFA9DF82000002843D109A968465A
:10395000FFF712FD8DF8200010B104283AD102E0E3
:103960003AA009991CE03CA0FCF78EFC0120E07510
:103970003DE038A0FCF788FC08AA69463846FFF706
:10398000BDFA9DF8200028BB09A96846FFF7F4FCA2
:103990008DF8200010B104281CD104E033A009994F
:1039A000FCF772FC23E034A0FCF76EFCE5751EE02A
:1039B00028A0FCF769FC08AA69463846FFF79EFA7A
:1039C0009DF8200030B909A96846FFF7D5FC8DF8AD
:1039D000200008B10220BFE5099810F0FF0084F82C
:1039E000EC0001D029A000E02FA0FCF74DFC19A0AD
:1039F000AFE50120B0E500002D2D2D2D2D2D2D2D15
:103A00002D2D2D2D2D2D2D2D2D2D2D2D2D2D2D2DE6
:103A10002DBAAFCAFD204944202D2D2D2D2D2D2D41
:103A20002D2D2D2D2D2D2D2D2D2D2D2D2D2D2D2DC6
:103A30002D2D2D2D200D0A0025732069642069731A
:103A40003A0D0A3058253038580D0A004845583A82
:103A5000305825580D0A00003136BDF8D6C6B2CE12
:103A6000CAFDCFD4CABE210D0A0000004445433A26
:103A7000256C750D0A0000003130BDF8D6C6B2CEF7
:103A8000CAFDCFD4CABE210D0A00000052756E20B7
:103A900054696D652043616C63756C6174696F6E08
:103AA000204F4E0D0A00000052756E2054696D655E
:103AB0002043616C63756C6174696F6E204F46467C
:103AC0000D0A00000160704710B500290AD008787F
:103AD000002807D005487844FDF788F9002801D070
:103AE000002010BD0248784410BD0000C20F000045
:103AF000BA0F00000808A0F500114FEA3101704725
:103B000043004FEAD30C4FEA3C0C43401FBF400731
:103B10000CF1605113F0FE4F70471CF0006F03D1A1
:103B200000200CF0004170470CF0004343EA507055
:103B300010B540EACC0000F000FA00BF000000928F
:103B40004FEA0001FFF7D6BF4FF000414FF00000F1
:103B5000A1F500217047000090EA010F48BF81F0F5
:103B6000004100F13C82421A3CBF801A89184FEA9A
:103B7000D0524FF07F4C1CEA410FA2EBD15318BF3B
:103B80009CEA026F00F03B804FF0004C4CEA0020B2
:103B90004CEA012121FA03FC10EB0C0C1ED202F1BD
:103BA000FF325FEA1C2040EBC25038BF70471CF068
:103BB0007F0F4FEA400C18BFBCF17F4F38BF7047F2
:103BC000C3F12003994008BF20F00100BCF17F4FF2
:103BD00038BF7047A0F1C04000F0F5B94FEA3C0093
:103BE000000A40EBC25028BF1CF0FF0F4FEA400C08
:103BF000E6D018BFBCF17F4F38BF7047EAE79CEAB8
:103C0000026F05D010EA5C0F08BF00F0004070475B
:103C100010B500F092F900BF64FBBE3E4FF47F0C7C
:103C20001CEAD0121EBF1CEAD11392EA0C0F93EAD1
:103C30000C0F00F0858090EA010F48BF42F48072BB
:103C400040F4000C41F400002CF07F4120F07F4054
:103C500000B58142A2EB03020FF2081CACEB504E00
:103C6000C0F100009EF800E04FEA4E0E00FB0EFC93
:103C700038BF49004FEA2C1C02F5FA020CFB0EF388
:103C80004FEACE1E4FEA112C4FEAC1210EEB635EC4
:103C900042EB22420EFB0CFC4FEA1C5300FB0311CB
:103CA0004FEA112C4FEA01310EFB0CFC4FEADC4CC1
:103CB00000FB0C11C14228BF09184CEB03335DF81F
:103CC00004EB10EB410143EBC250B2F57C0F38BF5F
:103CD000704729D512F0F00F1CBF00F1C04000F072
:103CE00000407047008182838485868788898B8C19
:103CF0008D8E8F919293959697999A9C9D9FA0A255
:103D0000A3A5A7A8AAACAEB0B2B3B5B7B9BCBEC0A4
:103D1000C2C5C7C9CCCED1D4D7D9DCDFE2E6E9EC45
:103D2000F0F3F7FAFE0000004FEA400C0CF1807C43
:103D3000BCF17E4F28BF7047B0F1C04000F043B9DE
:103D400090EA010F0CEAD11348BF42F48072624539
:103D500038BF634507D213F47F0F16D080EA010005
:103D600000F00040704710B500F0E7F8097EFC3E17
:103D700000F005B880EA010000F00040704780EADA
:103D8000010000F0004000F01EB912F47F0F04BFE4
:103D90000248704780EA010000F015B90000C07FBA
:103DA000C10DD1F19E0206DB4FEA002343F0004330
:103DB00023FA02F07047004207D54FEA4001B1F103
:103DC000FE4F02D24FF00000704710B500F0B5F87A
:103DD00049922480002070476FEA2000704700005D
:103DE00010F0004148BF4042B0FA80F310FA03F2ED
:103DF000C3F19D030BD051EAC35101EB12205306CE
:103E000038BF704700F1010008BF20F00100704783
:103E1000B0FA80F310FA03F2C3F19D030AD0D9057A
:103E200001EB1220530638BF704700F1010008BFB4
:103E300020F00100704700004FF47F0C1CEAD01204
:103E40001EBF1CEAD11392EA0C0F93EA0C0F00F08C
:103E5000478090EA010F48BF42F480724FF0004C57
:103E60004CEA00204CEA012102EB0302A0FB011303
:103E7000A2F50002002918BF43F001035B0028BF30
:103E80004FEA330342EB22425FEA132C4CEBC25061
:103E90002EBFBCEB436FB2F57C0F70474FEA036C4B
:103EA000BCF1004F08BF20F00100B2F57C0F38BF15
:103EB00070470BD582F0FF0212F5803FC8BF7047F4
:103EC00000F1C040D8BF00F00040704700F5000C82
:103ED0005FEA4C0C48BF7047B0F1C04000F073B8C7
:103EE00090EA010F0CEAD11348BF42F48072624598
:103EF00038BF634504D280EA010000F000407047FB
:103F000010B500F01AF800BF8900013E00F007B8B4
:103F100000F009B85FEA410C5FEA1C6C08D080EA47
:103F2000010000F050B85FEA400C5FEA1C6CF6D16B
:103F30004FF00040A0F5800070470EF1020E2EF009
:103F4000030E5EF8044B244204D44FEA4102B2F15E
:103F50007F4F11D84FEA4003B3F17F4F0CD80ED1F9
:103F60004FEAD07CB2F17F4F0CEB4C0C0CF1020C01
:103F700008BF4CEBD17C04E04FF0080C01E04FEAA5
:103F8000D17C0CEB4C0324FA03F404F00704B4F1E5
:103F9000040C06D20EEB840CBDE810404CF0010C72
:103FA0006047DFE80CF0070802024FF00040A0F580
:103FB000800010BD0846420018BFD2F1807288BF51
:103FC00000F0004010BDFF2141EAD050C00570470D
:103FD00090EA010F48BF81F000413FF5C4AD421A9D
:103FE00004D882F00042A0EB020011444FEAD05204
:103FF0004FF07F4C1CEA410FA2EBD15318BF9CEA53
:10400000026F4AD04FF0004C4CEA00204CEA0121EC
:1040100021FA03FCB0EB0C0C0FD412F0FE0F36D0DB
:104020005FEA4C001DD5001240EBC25038BF70470C
:104030001CF03F0F18BF70470BE0A2F101025FEACE
:104040001C2040EBC25038BF70471CF07F0F18BFD8
:104050007047C3F12003994014BF401E20F00100B7
:10406000704780084FEA122308BF7047B0FA80FCFF
:10407000A2EB0C02CCF1280C60FA0CF093EA122FA0
:1040800004BF00EBC25070474FEAC3707047130A79
:104090005FEADC1008BF7047F6E79CEA026F04D0C5
:1040A00010EA5C0F08BF0020704710B5FFF745FF0E
:1040B00040DFF63E81F000407047FCF7E9BB0000AE
:1040C000000000000000002F0000000007000700B3
:1040D00000147F147F1400242A7F2A1200626408CF
:1040E000132300364955225000000503000000004C
:1040F0001C224100000041221C000014083E08144C
:104100000008083E0808000000A060000008080839
:104110000808000060600000002010080402003E53
:104120005149453E0000427F4000004261514946EE
:10413000002141454B31001814127F1000274545DE
:104140004539003C4A4949300001710905030036F0
:104150004949493600064949291E00003636000003
:104160000000563600000008142241000014141408
:104170001414000041221408000201510906003203
:104180004959513E007C1211127C007F4949493641
:10419000003E41414122007F4141221C007F4949AC
:1041A0004941007F09090901003E4149497A007FE0
:1041B0000808087F0000417F4100002040413F0186
:1041C000007F08142241007F40404040007F020CE5
:1041D000027F007F0408107F003E4141413E007F86
:1041E00009090906003E4151215E007F091929464F
:1041F0000046494949310001017F0101003F40402B
:10420000403F001F2040201F003F4038403F0063D8
:1042100014081463000708700807006151494543FA
:1042200000007F41410000552A552A5500004141B8
:104230007F000004020102040040404040400000B2
:1042400001020400002054545478007F484444384C
:1042500000384444442000384444487F00385454D3
:10426000541800087E0901020018A4A4A47C007F51
:10427000080404780000447D4000004080847D00F4
:10428000007F102844000000417F4000007C04189B
:104290000478007C0804047800384444443800FC66
:1042A000242424180018242418FC007C0804040882
:1042B00000485454542000043F444020003C4040F7
:1042C000207C001C2040201C003C4030403C00442E
:1042D00028102844001CA0A0A07C004464544C4436
:1042E0001414141414140000000000000000000056
:1042F000000000000000000000F8000000000000C6
:1043000000333000000000100C06100C0600000006
:1043100000000000000040C07840C0784000043F2A
:1043200004043F040400007088FC083000000018FA
:1043300020FF211E0000F008F000E018000000211E
:104340001C031E211E0000F00888700000001E21C2
:1043500023241927211010160E0000000000000071
:10436000000000000000000000E01804020000004F
:1043700000071820400000020418E0000000004080
:10438000201807000000404080F0804040000202FA
:10439000010F01020200000000F000000000010116
:1043A000011F01010100000000000000000080B0BA
:1043B000700000000000000000000000000000018C
:1043C00001010101010100000000000000000030B7
:1043D0003000000000000000000080601804006051
:1043E00018060100000000E010080810E000000FAF
:1043F000102020100F00001010F800000000002016
:10440000203F20200000007008080888700000305D
:104410002824222130000030088888483000001805
:10442000202020110E000000C02010F8000000071E
:104430000424243F240000F8088888080800001994
:10444000212020110E0000E0108888180000000FC5
:10445000112020110E0000380808C838080000009C
:10446000003F000000000070880808887000001CF1
:10447000222121221C0000E010080810E0000000AA
:10448000312222110F00000000C0C0000000000017
:10449000003030000000000000800000000000003C
:1044A0008060000000000000804020100800000133
:1044B00002040810200040404040404040000404F6
:1044C00004040404040000081020408000000020C0
:1044D000100804020100007048080808F0000000FD
:1044E000003036010000C030C828E810E00007188E
:1044F000272423140B000000C038E0000000203CFB
:1045000023020227382008F8888888700000203F9E
:10451000202020110E00C0300808080838000718B5
:1045200020202010080008F808080810E000203FAC
:10453000202020100F0008F88888E8081000203F8D
:1045400020202320180008F88888E8081000203F61
:10455000200003000000C0300808083800000718D9
:104560002020221E020008F808000008F808203F5A
:10457000210101213F20000808F808080000002060
:10458000203F2020000000000808F8080800C08034
:1045900080807F00000008F888C028180800203FAD
:1045A00020012638200008F8080000000000203F05
:1045B00020202020300008F8F800F8F80800203FFC
:1045C000003F003F200008F830C00008F808203FF6
:1045D000200007183F00E01008080810E0000F1046
:1045E000202020100F0008F808080808F000203FDD
:1045F000210101010000E01008080810E0000F1878
:10460000242438504F0008F8888888887000203F9C
:104610002000030C3020007088080808380000389B
:10462000202121221C00180808F8080818000000A2
:10463000203F2000000008F808000008F808001FCC
:10464000202020201F000878880000C838080000BB
:1046500007380E010000F80800F80008F800033CD5
:104660000700073C0300081868808068180820309D
:104670002C03032C30200838C800C838080000007C
:10468000203F2000000010080808C8380800203823
:10469000262120201800000000FE02020200000077
:1046A000007F40404000000C30C0000000000000CF
:1046B00000010638C00000020202FE0000000040B7
:1046C00040407F00000000000402020204000000DD
:1046D00000000000000000000000000000008080DA
:1046E00080808080808000020204000000000000C2
:1046F00000000000000000008080808000000019A1
:10470000242222223F2008F8008080000000003F81
:10471000112020110E000000008080800000000E9B
:10472000112020201100000000808088F800000E79
:10473000112020103F200000808080800000001F9A
:10474000222222221300008080F08888881800200E
:10475000203F202000000000808080808000006BCF
:1047600094949493600008F8008080800000203FBB
:10477000210000203F2000809898000000000020C9
:10478000203F20200000000000809898000000C01A
:104790008080807F000008F8000080808000203F3B
:1047A00024022D302000000808F80000000000203E
:1047B000203F202000008080808080808000203F7B
:1047C00020003F20003F8080008080800000203F4C
:1047D000210000203F200000808080800000001F1A
:1047E000202020201F00808000808000000080FFAB
:1047F000A12020110E000000008080808000000EAB
:10480000112020A0FF8080808000808080002020F8
:104810003F21200001000000808080808000003364
:10482000242424241900008080E0808000000000FF
:10483000001F202000008080000000808000001FFA
:10484000202020103F208080800000808080000198
:104850000E300806010080800080008080800F30CC
:104860000C030C300F00008080008080800000204E
:10487000312E0E3120008080800000808080808179
:104880008E701806010000808080808080000021EA
:10489000302C2221300000000000807C0202000049
:1048A0000000003F404000000000FF00000000004A
:1048B0000000FF0000000002027C800000000040B9
:1048C000403F000000000006010102020404000055
:1048D00000000000000030313233343536373839CB
:1048E000414243444546403058003031323334353C
:1048F0003637383961626364656640307800040099
:10490000000800000000000000020001000010008C
:1049100002400000000000A0000000000540000070
:10492000000000C8000000000C4000000000409C97
:1049300000000000194000000020BCBE0000000084
:1049400034400000BFC91B8E00000004B5400000C9
:10495000504BCFD06607E2CF010000006C41000051
:104960003E8251AADFEEA73401000000D9420000C8
:10497000DCB5A0E23A301F97FFFFFFFFB44500000F
:10498000FD25A0C8E9A3C14FFFFFFFFFFF3F0000C7
:104990000000008000000000FF3F000000000080D9
:1049A000000000002032442000000000203344209A
:1049B000000000004661696C000000003F0000003C
:1049C000646563006964000072756E74696D6500EA
:1049D00068656C70000000006C6973740000000072
:1049E00068657800753820536B795472615F43664F
:1049F000675F5072742875333220626175645F6935
:104A000064290000753820536B795472615F4366E6
:104A1000675F5470287533322077696474682900A1
:104A2000766F69642077726974655F616464722867
:104A300075333220616464722C7533322076616C78
:104A400029000000753820536B795472615F43660A
:104A5000675F526174652875382046726570290059
:104A600075333220726561645F61646472287533E6
:104A70003220616464722900B44A000800000020FA
:104A80007C0100006C010008244B00087C01002020
:104A9000AC0D0000C80100081C000000430000002D
:104AA000F8FFFFFF0C0000000E0000000F000000E8
:104AB0002E00000013B4492A08041AA4041AAC04F6
:104AC0001184A24A04C00901020304060708096D03
:104AD000020406081C69201ABC381AD0041AD8042B
:104AE0001AC4041AE0041AC0041AC80413952A143C
:104AF00008604A1408C53A1B0820081339231B080C
:104B0000E4181ABD081A04101A81081A4408226011
:104B100014205D321408092C1B089D041AC50C1AB8
:044B2000056701DC48
:0400000508000131BD
:00000001FF
